:020000040800F2
:100000000040002039030008610300086303000872
:1000100000000000000000000000000000000000E0
:100020000000000000000000000000006503000860
:1000300000000000000000006703000869030008DA
:100040006D0300086F0300087103000873030008C4
:100050007503000877030008790300087B03000894
:100060007D0300087F030008810300088303000864
:100070008503000887030008890300088B03000834
:100080008D0300088F030008910300089303000804
:100090001D2E000897030008990300089B03000821
:1000A0009D0300089F030008A1030008A3030008A4
:1000B000A5030008A7030008ED1000082529000883
:1000C00001213F4A3F48136882B00B4313605368D5
:1000D0000340536013683C480340136013683B4877
:1000E0000340136053683A4803400F205360D36ABB
:1000F0008343D362136B374803401363536BA020D1
:100100008B43536300239360009301938023116812
:100110005B020B43802113608902C00102E0009B57
:10012000834208D013680B400193009B0133009376
:10013000019B002BF3D0224B1A68802311009B02F5
:1001400019401A4230D0012301931122224B1A6028
:100150001B4B5A685A605A685A60019A012A25D086
:100160005A681E490A405A60A022596892030A43FD
:100170005A608023124A5B0411680B43802113608C
:10018000890413680B42FCD0032153688B435360EE
:10019000536801390B4353600C2209494B681340E3
:1001A000082BFBD102B070470191CEE75A680B498A
:1001B0000A405A609822596852030A435A60D8E7A5
:1001C000001002400CB8FF08FFFFF6FEFFFFFBFF28
:1001D000FFFFC0FFACFEFFFF00200240FF7FC0FF1B
:1001E000354936480A1A02D0072291438D463449D0
:1001F00034480A1A06D00722914381F30988022263
:1002000082F3148830483149314A00F043F83148CC
:100210003149324A00F03EF831483249324A00F062
:1002200039F832483249334A00F034F83248334919
:10023000334A00F02FF833483349344A00F02AF8A3
:1002400033483449344A00F025F834483449002210
:1002500000F02BF833483449002200F026F83348E8
:100260003349091A082903DB0022026004300160C7
:100270001F482049884205D00268043003B49047E3
:1002800003BCF7E700208646EC4600200021294AFF
:100290009047FEE7884207D0521A05D00378013014
:1002A0000B700131013AF9D17047884202D00270D7
:1002B0000130FAE77047000000400020003E0020B7
:1002C0000040002000400020D4340008000000203E
:1002D000AC000020AC030008AC030008E42E0008CA
:1002E000D43400080000002000000020E42E0008A4
:1002F000E42E0008F02E0008E42E0008E42E00088A
:10030000E42E0008F02E0008F02E0008D434000877
:1003100080350008AC000020AC000020AC000020BC
:10032000E0330020E0330020E0330020E033002001
:10033000E0330020390A000804480549884385460F
:100340000448804704480549016049E7004000200F
:1003500007000000C100000808ED00E000000008F0
:10036000FEE7FEE7FEE7FEE7FEE7FEE7FEE7FEE765
:10037000FEE7FEE7FEE7FEE7FEE7FEE7FEE7FEE755
:10038000FEE7FEE7FEE7FEE7FEE7FEE7FEE7FEE745
:10039000FEE7FEE7FEE7FEE7FEE7FEE7FEE7FEE735
:0C03A000FEE7FEE7FEE7FEE7FEE7FEE7F3
:1003AC00F0B54546DE4657464E46E0B5837C804662
:1003BC0095B0002B00D133E1C37CB54D1A009C469F
:1003CC00534253415B0006AC0AAF52333B702100E1
:1003DC000368280099464CC84CC1036883460B60DF
:1003EC004B461B0FE35C2E007B7023008A4607CE26
:1003FC0007C35B4652461B6813604B460F221E0E0A
:10040C001640A65D2B00BE70260007CB07C65146D2
:10041C001B680F220B604B461E0D1640A65D230079
:10042C00FE702E0007CE07C35B4651461B680F2299
:10043C000B604B461E0C1640A65D23003E712E0031
:10044C0007CE07C35B4651461B680F220B604B4619
:10045C001E0B1640A65D23007E712E0007CE07C32F
:10046C005B4651461B680F220B604B461E0A16401A
:10047C00A65D2300BE712E0007CE07C35B46514616
:10048C001B680F220B604B461E091640A65D23000D
:10049C00FE712E0007CE07C35B4651461B680F2228
:1004AC000B604B461340E35C3B720B239946013BBC
:1004BC000493013B9A464346290058682300059053
:1004CC0045C945C30968524619600F230598034076
:1004DC00E35CBB546346002B35D1002833D0049B1E
:1004EC004146FA180F23B9469C46404403900095A8
:1004FC0020000B7A009E9B46A8CEA8C002963768B7
:10050C005E46019007603709E75D009B1770270076
:10051C0061CB61C7029D01982B6801310360634672
:10052C0058461840235C5370039B02329942DFD12A
:10053C00049A059B94465B009C44634604930133E8
:10054C004F469946009D00F06DFD002840D0434673
:10055C00280021001B8A98464CC84CC1036883466E
:10056C000B6043461B0BE35C049E8A46BB552E0076
:10057C00230007CE07C35B4652461B6813604346F5
:10058C001B0A1E000F224B461640A65D2A00FE5485
:10059C0026000BCA0BC65B461A6853461A604346C4
:1005AC000F221E091640A25D049EBE19B2702200D5
:1005BC000BCD0BC25B461A6853461A600F2243469A
:1005CC001340E35CF370049B5A1D9146043304936F
:1005DC000D23049ABB544B46002B1AD080230025C4
:1005EC0000224E462B4C5B01E1582B4BE0584B1C28
:1005FC001B051B0D834203D0B95C0125E154190086
:10060C000132D2B2B242F2D3002D02D080235B0170
:10061C00E15015B0F0BCBB46B246A946A046F0BDB1
:10062C00C37C1B4D1A009C465342534106AC0268D6
:10063C00210028005B000AAF723300923B704CC85B
:10064C004CC1036889460B600F23009A9B46160A1F
:10065C001E40A65D2B007E702600824607CB07C687
:10066C0049461B680B605B46009A16091E40A65D46
:10067C002300BE702E0007CE07C3534649461B68A5
:10068C000B605B46009A1340E35CFB7006230DE79E
:10069C00F02E00082012002004100000F0B54E4689
:1006AC004546DE465746E0B5414B84461E788846A3
:1006BC008BB0002E06D10BB0F0BCBB46B246A9469F
:1006CC00A046F0BD452301AD05AC23702B00394A83
:1006DC0083CA83C3934612681A6063461B09EB5C9A
:1006EC00344A63702B0083CA83C3126860461A6055
:1006FC000F23184099462B5CA37000F093FC002844
:10070C0020D1042503230D22E25480232A4F5B01C0
:10071C00F9582A4B0022F85800239C464B1C1B0509
:10072C001B0D834203D0A15CB446F954190001326D
:10073C00D2B2AA42F2D36346002BBCD080235B0119
:10074C00F950B8E72B001B4F07CF07C35A46126866
:10075C00184F1A6043464A461B0B1340EB5CE37080
:10076C002B0007CF07C35A461268124F1A60434634
:10077C004A461B0A1340EB5C23712B0007CF07C3BF
:10078C005A4612681A6043464A461B091340EB5CF2
:10079C0063712B00074F07CF07C35A4612684146B7
:1007AC001A604B4619406B5C0825A3710723AAE716
:1007BC0014020020F02E000820120020041000006B
:1007CC0070B5002911D08024094A0A4B4118D5581C
:1007DC006401135901331B051B0DAB4202D0067883
:1007EC001351D65401308142F3D1002070BDC04664
:1007FC001802002004100000F0B5DE4657464E46A5
:10080C0045460023E0B589B00393542800D1B9E0E4
:10081C00522847D002AA1375722800D0BEE00123DB
:10082C0002AA53750021082205A802F04CFB0123F3
:10083C0005219B460022802392460026904679484B
:10084C005B01C358049C9C46774B0092C3589C4553
:10085C00FDD001331B051B0DC25C0D2A00D1CAE073
:10086C00072954D908292AD11400303C092C6CD8FA
:10087C005A46E4B2002A00D0CAE0002C00D072E044
:10088C00694A83505346002B00D0039600230493EF
:10089C0003A800F0D3FB09B0F0BCBB46B246A94696
:1008AC00A046F0BD022302AAFF3393820021082246
:1008BC0005A802F008FB012300219B46BAE7454638
:1008CC006F0803ADED192D7A2D01EDB20195302590
:1008DC006D42A94691444D46092D23D84A46019DA7
:1008EC001543EDB203AA914601224F449146C844E8
:1008FC003D726200424513D84B4A83505346002B3D
:10090C0000D00396009B002BC2D00494C0E71500C6
:10091C00303D3601092D2AD8EDB2012292462E43E4
:10092C00013194E761256D42A94691444D46052D50
:10093C004DD941256D42A94691444D46052D56D8B9
:10094C00019D373A1543EDB2CCE71400613C052C00
:10095C002FD91400413C052C41D85D46373AD2B210
:10096C001400002D2BD10122013100926FE71500EC
:10097C00613D052D30D91500413D052D39D8373A4B
:10098C00D5B2CAE7012302AA93820021082205A846
:10099C0002F099FA002300219B464BE702AA5375FB
:1009AC000021082205A802F08EFA002305219B469F
:1009BC0040E75D46573AD2B21400002DD3D01A4905
:1009CC0043505346002B00D00396049260E7019DE0
:1009DC00573A1543EDB285E7573AD5B29DE75A46DB
:1009EC00002A0CD10122FF24009201312FE7FF25B0
:1009FC0078E7FF2591E70C4A835001204BE70A4A20
:100A0C0083505346002B00D00396FF2304933FE7FB
:100A1C00054A83505346002B00D176E70396049485
:100A2C0036E7C04618020020041000008023F0B501
:100A3C00DE4657464E464546BC4ADB025169E0B598
:100A4C000B435361BA4BBB491A6885B00A401A6014
:100A5C008022196852030A431A6000F0ABF9B648B9
:100A6C0000F02AFBB54800F031FBB54BB54AB6494E
:100A7C00B64801F0DFFEB64BB64D9946B64BB74CB7
:100A8C009A46B74B9B4602AB073301938023B5497B
:100A9C005B01EA586B58934216D001331B051B0DB2
:100AAC00E85C6B5001003F39C9B237290CD84E466F
:100ABC00890071588F46012000F018FA002848D0A0
:100ACC005846012101F068FF8022A64E5201904643
:100ADC00A359A2589342D9D001331B05019A1B0D7F
:100AEC00E35C01211000137001F056FF0128CDD1F9
:100AFC004346E258A3599A42C8D001331B051B0D3B
:100B0C00A3519A42E8D1C1E7FFF776FE0028D7D16E
:100B1C000121954801F040FF5046D2E7FFF76CFEEB
:100B2C000028CDD10121914801F036FF5046C8E78D
:100B3C008F49904801F030FFC6E705218E4801F03F
:100B4C002BFF5046BDE706218C4801F025FF50468F
:100B5C00B7E75046B5E700F03BFAAFE70023814A10
:100B6C000020A350043AA35000F0C0F9A6E70220DD
:100B7C0000F0BCF9A2E70321814801F00DFF5046BB
:100B8C009FE701331B051B0DE85C764A3038AB50F0
:100B9C00431E9841C0B200F03FFA8FE701331A05AB
:100BAC00120DAB5C6F49303BDBB26A50072B00D89F
:100BBC00B8E0744800F096F980E701331B051B0D73
:100BCC00EA5C684950466B501300303B5A1E934107
:100BDC006D4A137075E701331B051B0DE85C614A08
:100BEC003038AB50431E9841C0B200F021FA65E793
:100BFC00082600209A42FDD001331B051B0DE95C31
:100C0C000001844608003038092861D8C0B2674614
:100C1C00074338000D2903D0013EF6B2002EE9D16E
:100C2C00504AAB5000F00EF948E7082600209A42D3
:100C3C00FDD001331B051B0DE95C00018446080047
:100C4C00303809283BD8C0B26746074338000D2915
:100C5C0003D0013EF6B2002EE9D1424AAB5000F06F
:100C6C0005F92BE7042000269A42FDD001331B0521
:100C7C001B0DE95C3601B4460E00303E092E15D82A
:100C8C00F6B2674637433E000D2903D00138C0B297
:100C9C000028E9D1334AF005AB50FE23F601DB0303
:100CAC001E40C00D304300F0F3F807E70E00613E24
:100CBC00052E16D85739CEB261460E43E6E708002A
:100CCC00613805281FD85739C8B261460843C0E7B8
:100CDC000800613805280DD85739C8B26146084359
:100CEC009AE70E00413E052E16D83739CEB2614632
:100CFC000E43CBE708004138052811D83739C8B264
:100D0C006146084388E708004138052806D837397A
:100D1C00C8B2614608439CE7FF26B2E7FF2093E781
:100D2C00FF2074E7194A9B00D05843E7001002409B
:100D3C0000040048FFFFCFFFAD030008A906000820
:100D4C0098000020040000207C000020AC00002053
:100D5C00CC32000818020020082F000820120020B6
:100D6C00042F000804100000202F0008242F000876
:100D7C00A1030000282F0008142F00080C2F0008D6
:100D8C001C2F00080200670014020020AC3300087E
:100D9C00802000230449054A40010B508B50044924
:100DAC000B508B507047C0461802002004100000F6
:100DBC002012002080231E4ADB02516910B50B4320
:100DCC0053611C4B1C481968812401401960A021F7
:100DDC00186809030143FF201960596AA400814374
:100DEC005962596ABB38014359628023D1699B040B
:100DFC000B43D36146220121104B1A60BB32FF32E8
:100E0C009858084398500020185108341951083448
:100E1C001851083419512434185104341851985865
:100E2C0088439850064801F071FF002010BDC04661
:100E3C000010024000040048FFFFF0FF0064004077
:100E4C0038220020802210B50124074B92009958BB
:100E5C00C043214399509121890058509958002042
:100E6C00A143995010BDC04600640040802210B5CB
:100E7C000124064B920099582143995090218900E6
:100E8C00585099580020A143995010BD006400405F
:100E9C000F4A104B11680B400F49084018430F4B79
:100EAC0010601B78002B10D001210D4A13680B43E6
:100EBC00136053681942FCD0D06113688B431360E4
:100ECC00012207494B681A42FCD100207047C046EA
:100EDC000000002000FC80FCFF037F033422002074
:100EEC000064004010B5FFF7D3FF10BD8021304ADD
:100EFC000902136810B50B43136013680B42FCD145
:100F0C00012113680B431360294A53681942FCD022
:100F1C00442113680B431360264B1B78002B37D0EE
:100F2C00136834390B431360234A13689B009B08E6
:100F3C00012837D0022802D1802109060B43136007
:100F4C0001211B4AD36113688B4313605368194208
:100F5C00FCD1042353605069184BC724034302206F
:100F6C0053611368A40083431360154B15481A5939
:100F7C0010408022D20302431A518022D2051A60FB
:100F8C00114B12481970012101F030FF002010BDE7
:100F9C00102113688B431360074A13689B009B084E
:100FAC000128C7D18021C9050B431360C8E7C0468F
:100FBC00006400402922002000000020028800006C
:100FCC0000E100E0FFFF00FF342200203822002067
:100FDC0002210C4A10B513680B4313605368194275
:100FEC00FCD0094B802193608023084AC905D1505D
:100FFC000022074B074800211A7001F0F7FE002071
:10100C0010BDC046006400408080800000E100E01C
:10101C003422002038220020014B18700020704729
:10102C0028220020014B18787047C0462822002047
:10103C00014B18700020704729220020E0211A4A29
:10104C0010B594684905030001200C4226D0926823
:10105C0015499201920F5C68120184305118FF30CF
:10106C000C5012489C681018046011488446D868CB
:10107C0062441060187C1A68002810D152055B7C01
:10108C00002B01D002231A4301231A438033FF3370
:10109C000848CA50052101F08BFE002010BD042029
:1010AC00D2000243EBE7C046006400408865004074
:1010BC008C65004038220020002803D0024B1860B9
:1010CC00002070470120FCE72C220020002803D0D0
:1010DC00024B1860002070470120FCE730220020F2
:1010EC00042270B5244B86B059680A420BD05A6062
:1010FC009869224B1B68002B05D0214A40061268C8
:10110C00400F516A98471C4AD3689B0731D0D821AD
:10111C0011261B484900036801AC5B6A23825358B3
:10112C0055585B07DB0FA3745B42B3431533DD40AB
:10113C00019553589B07DB0FE374DA235B00D158FE
:10114C00A63BFF3B0B400293DC235B00D3582021D2
:10115C000393DE235B00D3580493D3680B43D36013
:10116C001B3901F007FE074B1B68002B01D0200038
:10117C00984706B070BDC046006400403022002085
:10118C00382200202C220020024B03480349044A39
:10119C0007C37047382200200040014080BB00008C
:1011AC0060EA0000F0B557464E46DE464546E0B5CF
:1011BC0085B002AB9F1D00233B80C94B03AE1B685F
:1011CC009AB232801B0469D5C64B984616E0338818
:1011DC00DB0600D4A6E0C44C23689BB23B803B8862
:1011EC001B0500D5CCE03B881BB2002B00DA1DE1BF
:1011FC00BB4B1B689AB232801B044FD50F221500D3
:10120C0033881D401A42E2D0B74BAC009946A1443A
:10121C004B461B689BB23B803B881BB2002B44DBCC
:10122C003B881B06E4D54B46B04A1B6813404A4624
:10123C0013606319DB0043449A4622331B78002B5E
:10124C0000D084E05346187E00F02EFB5346186302
:10125C006B1C021E994600D01DE16419E400444445
:10126C00207E00F021FB4B46424641469B004B44FE
:10127C00DB00D25820631218CA5043445B68217EAD
:10128C00002B00D0AFE09A4B40461B685B68984738
:10129C00934B1B689AB232801B04AFD405B0F0BCE0
:1012AC00BB46B246A946A046F0BD4B46914A1B68C8
:1012BC0013404A4613608B4B9A466319DB001A00A5
:1012CC0052441300C2331B780192002B70D11300CF
:1012DC00B833187800F0FAFA8346002800D0E5E01D
:1012EC006119C90051440A00D03213685B44136081
:1012FC000B00C8331A685A441A6004331B68002B5D
:10130C0005D00800C4300068834500D3D7E06319CA
:10131C00DB005344B8331978754B50461B681B6877
:10132C0098477DE7704A714913686E4C0B40136007
:10133C00207E00F0B9FAA36A20639C466C4B604493
:10134C001B68A062002120005B68984750E7534659
:10135C00187E00F09FF9430649D55346187E00F0DD
:10136C002FFB5346021E186300D0D1E06B1C99462C
:10137C006319DB0043440121187E00F045FB6CE748
:10138C004246B823D05C00F0A1FA4146D023C850A5
:10139C00143B0200C95A584800F06EFB2368554AAA
:1013AC00404613402360524B1B689B6898471FE7CD
:1013BC00B8229446019B634418789B4600F06AF966
:1013CC00430422D45B46187800F00CFB83460028BB
:1013DC0000D0C3E06319DB005344B8330021187804
:1013EC0000F012FB7CE7404600F0C4FC00E75346DB
:1013FC00187E00F0F7FA534618636B1C021E9946D0
:10140C00B6D05346198C4B4685E05B46187800F0F5
:10141C00D7FA83460028DDD0019A1300BE33198811
:10142C000A335A46186800F027FBD3E72368314A81
:10143C00134023602B4BD0249A46B8235246D05CE1
:10144C0000F044FA5346021E185176D1284B002165
:10145C001B6850461B689847284A51469446C4223C
:10146C00274B8A581B681B041B0C63443E2A2DD93E
:10147C00510989B2D2065DD0224A890211431980E2
:10148C001949214A0B681A40C0239B0153401F4A3B
:10149C0013430B60ACE65346998B4B4640469B007E
:1014AC004B44DB00C05800F0D1FAD6E6019A130089
:1014BC00BC335A461988D86800F0DEFA10E7B83108
:1014CC00504609789BB200F00DFCA9E6510889B290
:1014DC00D20701D5013189B289021980D0E7C04603
:1014EC00445C0040AC000020005C00400F8F00000A
:1014FC00480000208F0F0000BC0000200660004058
:10150C00505C00400080FFFF8FBF00008080000017
:10151C00D98B6B1C994640469B004B44DB00C05852
:10152C0000F094FA6319DB0043440121187E00F0AB
:10153C006BFA92E6013989B29EE7BC235146C82565
:10154C00C95A5346585900F097FA524653465259C5
:10155C001B59944652466344535177E7019A130042
:10156C00C0335A461988986800F086FA32E7C046AC
:10157C0070B582B06B469C1D002380212380314BBB
:10158C00314D1B6809029BB2238022882B681A40BC
:10159C000A424BD122881A4052050DD52B4A294BB1
:1015AC002B4E1A602B4B30001B681B69984700218F
:1015BC00300000F09FFC2B6822881A40920403D55F
:1015CC00204B254A1A602B6822881A40D2040BD56E
:1015DC00224A1C4B1E481A601E4B1B689B6998477D
:1015EC00002001F0A3FA2B6822881A4012050AD5B4
:1015FC001B4A144B16481A60164B1B685B699847BC
:10160C0001F086FA2B6822881A40920508D50D4BFA
:10161C00144A0F481A600F4B1B68DB6898472B68FD
:10162C0022881340DB0505D402B070BDFFF7BAFD6C
:10163C002B68AFE7034B0C4A07201A6001F076FACF
:10164C00F2E7C046445C004044220020FFFB00004F
:10165C00AC00002048000020FFDF0000FFEF00007E
:10166C00FFF70000FFFD0000FFFE0000014B1860BB
:10167C007047C046405C0040014B18607047C04644
:10168C00445C004007239843014B18607047C046E8
:10169C00505C0040034B80009C466044006880B264
:1016AC007047C046005C0040054B80009C4660447F
:1016BC000368044A13400B439BB203607047C04657
:1016CC00005C00408F89FFFF0A4B80009C46604401
:1016DC000368094A1340CA0602D5102253409BB234
:1016EC008A0602D5202253409BB2044A134303605E
:1016FC007047C046005C0040BF8F00008080000037
:10170C000A4B80009C466044094A036813408022BF
:10171C005201114200D0534080229201114200D05C
:10172C005340044A134303607047C046005C0040BA
:10173C008FBF000080800000064B80009C468023F9
:10174C00604402685B001343034A1340034A13438B
:10175C0003607047005C00400F0F000080800000A9
:10176C00054B80009C4660440368044A1A40044BB5
:10177C00134303607047C046005C00400F0F00002D
:10178C0080C00000054B80009C4660440368044AFE
:10179C001A40044B134303607047C046005C004082
:1017AC000F0F0000C0800000064B80009C46604478
:1017BC0003685B0405D50368034A1A40034B1343C3
:1017CC0003607047005C00400F0F000080C00000F9
:1017DC00064B80009C46604403685B0605D5036895
:1017EC00034A1A40034B134303607047005C0040EC
:1017FC000F0F0000C0800000064BC0001B6849089A
:10180C001B041B0CC018044B49009C46604401800F
:10181C007047C046505C004000600040064BC00062
:10182C001B6849081B041B0CC018044B49009C4640
:10183C00604401807047C046505C0040046000402A
:10184C00054BC0001B681B041B0CC018034B9C46AB
:10185C00604401807047C046505C0040026000400C
:10186C000E4A0F4B94461B68C0001B041B0C1B1824
:10187C0063443E2907D94A09C9060BD0094992028B
:10188C000A431A8070474A08C90700D501329202F0
:10189C001A80F7E7013A92B2F0E7C04606600040C2
:1018AC00505C00400080FFFF064BC0001B681B040F
:1018BC001B0CC018044B9C46604400888005800DAE
:1018CC007047C046505C004002600040064BC000B0
:1018DC001B681B041B0CC018044B9C4660440088FE
:1018EC008005800D7047C046505C0040066000408B
:1018FC0030B50B4D0B4CAC462368C0001B041B0CC5
:10190C00C3184908634449001980236852081B0412
:10191C001B0CC018044B52009C466044028030BD26
:10192C0000600040505C00400460004010B500298D
:10193C001ED11F491F4B8C461B68C0001B041B0C7F
:10194C001B1863443E2A21D95109D20601D1013911
:10195C0089B2194A89020A4392B21A80154B1B6844
:10196C001B041B0CC018154B9C466044028010BD18
:10197C000129FCD10E4C0F49A4460B68C0001B0476
:10198C001B0CC31863441A800B6807E05108D2077C
:10199C000CD48A0292B21A80064B1B681B041B0CD7
:1019AC00C018064B9C4660440280E0E70131F0E72A
:1019BC0002600040505C00400080FFFF0660004069
:1019CC00064BC0001B681B041B0CC018044B9C4628
:1019DC00604400888005800D7047C046505C004014
:1019EC0002600040064BC0001B681B041B0CC01897
:1019FC00044B9C46604400888005800D7047C046AF
:101A0C00505C00400660004000290AD10B4B80005E
:101A1C009C46604403680A4A1A400A4B134303600D
:101A2C0070470129FCD1054B80009C46604403683B
:101A3C00034A1A40044B13430360F1E7005C004077
:101A4C000F0F0000C080000080C00000013230B5D4
:101A5C00091A54100CD0074D4378AC4602781B027F
:101A6C00134342186244013C13800230002CF2D123
:101A7C0030BDC04600600040013210B552100AD093
:101A8C00091A054C4318A44663441B88013A038089
:101A9C000230002AF5D110BD006000400123002265
:101AAC0010B5837002718260C3600120FFF7DEFD08
:101ABC000020FFF7DBFD0020FFF7DEFD0020FFF725
:101ACC00E1FDBF20024B00021860FFF7CFFD10BDF7
:101ADC004422002010B50C060CD57F240C40A1002C
:101AEC000919C90018314018002A0CD18272838060
:101AFC00002010BD7F240C40A1000919C900B83189
:101B0C004018002AF2D00122C3801B0C8272038180
:101B1C00EEE7C04670B5050080207F2406000C401F
:101B2C000E40084200D168E0A0000019C00004007B
:101B3C00183428182C19012545767F200840E260BE
:101B4C00E370207002D16062E061206200222261A9
:101B5C006261A261A270022B59D01DD8002B5BD000
:101B6C008021C900FFF7A0FD2078A37A002B1DD19E
:101B7C006378A188002B36D1FFF750FEA18920781D
:101B8C00FFF76EFE2078FFF70FFEC0212078890149
:101B9C00FFF7B6FD002070BD032BE6D1C021C900B4
:101BAC00FFF782FDA37A2078002BE1D0FFF7C4FD6C
:101BBC0020782289E188FFF79BFE63782078002B40
:101BCC0030D1FFF7F1FD2078FFF702FE2078FFF708
:101BDC00D9FDC02120788901FFF792FD00212078E2
:101BEC00FFF772FDD6E7FFF707FE2078FFF7F0FD51
:101BFC0020212078FFF768FDCCE7A0000019C00079
:101C0C000400B8342C192D18B9352E7095E7002125
:101C1C00FFF74AFD2078A8E780218900FFF744FDF3
:101C2C002078A2E7FFF7C0FD2078FFF7D1FD2078E0
:101C3C00FFF796FD20780021FFF746FD0021207864
:101C4C00FFF75EFDA6E7C0464BB210B5002B40DB9C
:101C5C008C006118C900B8314418A37A002B0AD142
:101C6C0063782078002B2DD0FFF7B2FD002120786F
:101C7C00FFF72AFD13E063782078002B11D0FFF7D3
:101C8C0093FD2078FFF7A4FD2078FFF769FD002174
:101C9C002078FFF719FD00212078FFF731FD002097
:101CAC0010BDFFF781FD2078FFF792FD2078FFF73C
:101CBC0069FD20780021FFF723FD00212078FFF734
:101CCC0003FDECE7FFF770FD00212078FFF718FD0E
:101CDC00E5E77F240C40A1000919C900183144180C
:101CEC00BBE7C046F0B57F2705000F40BE00F419D6
:101CFC00E4002C192100C8310A6022000020CC32EB
:101D0C001360C4348860216883B001908B421DD964
:101D1C00019101995B1A1360F319DB00EB181A009F
:101D2C00C2321278002A1BD10199B833187889B2C3
:101D3C00FFF796FDC021F619F600AD19B8352878D5
:101D4C008901FFF7DDFC002003B0F0BD0193F3190E
:101D5C00DB00EB1810601A00C2321278002AE3D0B4
:101D6C001900019AB833B9310978187892B2FFF793
:101D7C00DDFDDFE7F0B57F25C6460600100000222A
:101D8C000D4000B5AF007C19E4003419616A82B0D3
:101D9C0001922576A062E3622263994224D20191DA
:101DAC00019A9B1AE3627B19DB009846B0444346C8
:101DBC002233019A1B7892B2002B18D14346998B8F
:101DCC00FFF744FE43460199187E89B2FFF738FDB0
:101DDC007F19FF00F719387E3021FFF775FC0020C2
:101DEC0002B080BCB846F0BD0193E262DBE743462B
:101DFC002800597EFFF79AFD4346187EFFF74AFCF0
:101E0C0043060ED44346D98B019AA06A92B2FFF7CF
:101E1C001DFE7B19DB00F318597E187EFFF7F4FDCD
:101E2C00D6E74346198CEFE74BB210B5002B18DB05
:101E3C008B005918C900B8314118087800281AD0FD
:101E4C004B78002B07D101238B7080214901FFF7C0
:101E5C0057FC002010BD01238B701021FFF734FCC0
:101E6C00F7E77F230B409900C918C90018314118B6
:101E7C0008780028E4D10648064A03681A40064B45
:101E8C005340064A1343036001238B70E1E7C046BD
:101E9C00005C0040BFBF00001010000080800000FC
:101EAC004BB270B50400002B1BDB88004018C0003F
:101EBC00B830241865782078002D09D0FFF788FCFD
:101ECC0030212078FFF700FC0023A370002070BDA8
:101EDC00FFF76AFCC02120788901FFF711FCA5707F
:101EEC00F4E77F20014088004018C0001830241807
:101EFC00E0E7C046002230B5094D0A4C01710A4B8F
:101F0C0090009C46604403682B40134323430132EA
:101F1C000360042AF3D180231943044B196030BDAC
:101F2C000F0F000080800000005C00404C5C004003
:101F3C008023044A1B0211680B4313600123837036
:101F4C007047C046585C004010B5074C2068FF280D
:101F5C0007D0064B06491A68064B9B689847FF2327
:101F6C002360002010BDC04628000020A8320020AD
:101F7C00583200204C000020432301480B8070474E
:101F8C00CC33000810B5C023002281210400FFF7D8
:101F9C00A1FD80230022822120005B00FFF79AFD27
:101FAC0088230022032120005B00FFF793FD02230E
:101FBC00402281212000FFF7ADFD022340220321A6
:101FCC002000FFF7A7FD0822822103232000FFF742
:101FDC00A1FD054B1B689847402303212000034AB1
:101FEC00FFF780FE002010BD4C0000206432002062
:101FFC0070B504008B005B18DB00C318D033074DA1
:10200C001988074B28001B6998472A004023032195
:10201C002000FFF767FE002070BDC0466432002030
:10202C004C00002010B504008121FFF70DFE0321A8
:10203C002000FFF709FE82212000FFF705FE024B6E
:10204C005B689847002010BD4C000020602270B5E2
:10205C0015000B7806000C001D401A4214D0202DE0
:10206C001BD1CA88002A1CD05BB2002B35DA264D56
:10207C00264B48789B682900984729003000E28855
:10208C0000F00CFC002506E04B780A2B11D00B2B32
:10209C001DD0062B13D0280070BD00F0A9FA022524
:1020AC00F9E71A4B4878002200219B6898470025D5
:1020BC00F1E701221649300000F0F0FBEBE74B880A
:1020CC001B0A212B13D013493A220931F3E78B78E1
:1020DC00002B15D10E4B1D60DDE749780E4B00250A
:1020EC0019600E4B08491A6000F0ECFBD3E7CB8863
:1020FC001A1C3A2B00D93A22064992B21231DAE76D
:10210C0000F076FAC7E7C046583200204C00002099
:10211C00AC320020CC33000828000020A83200206C
:10212C002D4AF8B51368591C012B02D01160002000
:10213C00F8BD0023294D13602B78002BF7D180219B
:10214C00274A490114688C4200D11360254B14684E
:10215C0019688C423CD0146819688C4230D98023A1
:10216C0011685B015B1A20490B6014680B68402BEB
:10217C001BD80F6816683B041B0CF61816600A680F
:10218C00D21A0A600A68002A05D1BFB2402F02D1C8
:10219C000121164A1170012215492A702204120CD1
:1021AC0052188121FFF7E6FDC1E713684033136035
:1021BC000B68403B0B600B68002B07D04023EAE711
:1021CC001B6811685B1A08490B60CEE74023DFE7F8
:1021DC00002111601960AAE760320020A4320020AF
:1021EC004C32002048320020503200205432002063
:1021FC0048220020214B70B51A78002A09D0204AB9
:10220C001168002907D11F4C2278D5B2002A29D198
:10221C001D70002070BD1C4C21681368402B11D917
:10222C002368403323601368403B13601368002B12
:10223C001FD040230A041549120C52188121FFF7B4
:10224C0099FDE6E71668256833041B0CED1825602C
:10225C001468E41A14601268002AEBD1B6B2402E4E
:10226C00E8D107E02170002300228131FFF782FDC5
:10227C00CFE740230124034A1470DBE7A43200208B
:10228C0050320020543200204C32002048220020D2
:10229C0070B54B7805000C0082B0092B0ED8834A20
:1022AC009B00D3589F464A88130A022B00D1ADE0FD
:1022BC00032B00D1B6E0012B00D177E000212800E0
:1022CC00FFF7B2FD002002B070BD8B78784C237004
:1022DC00012BF3D88278022A00D185E0032AEDD1B4
:1022EC00002B00D1D5E00178012933D000F0CEFAD3
:1022FC0021782800297000F0BBFA280000F0F8FAC9
:10230C00E0E7002301938378023B012BD6D801230D
:10231C0001938368002B01D0032301930222280030
:10232C0001A900F0BBFACDE78378023B012BC5D89D
:10233C004B88012BC6D100238360593304E04B88B2
:10234C00012BBFD183605833FF33EB582100280099
:10235C009B689847280000F0CBFAB3E78B88002BDA
:10236C00ACD1CB88002BA9D18378032BA6D07F24AA
:10237C004B881C404F4B04711C6000F0B9FA002CC8
:10238C0000D183E00223AB709CE70022CB88019242
:10239C00012B00D092E78378022B32D0032B00D094
:1023AC008CE70122010000F079FA8BE76033FF33F0
:1023BC00EB5801AE3100007B1B689847E288402A3D
:1023CC0071D03388002B00D17CE7E288002A00D141
:1023DC0078E7111C9A4200D9191C8AB2318001008D
:1023EC00280000F05BFA6DE7002BB3D001230370DB
:1023FC0002330121837000F03BFA280000F078FAD8
:10240C0060E7012201A900F049FA5BE7AC235B000D
:10241C00EB5801AE1B6A3100007B9847B2235B007E
:10242C00E850CEE7D2B2052A00D947E7224B9200FA
:10243C009B58007B01AE9F46B0235B00EB583100EC
:10244C005B699847BDE7B0235B00EB5831001B6913
:10245C009847B6E7B0235B00EB583100DB68984730
:10246C00AFE7B0235B00EB5831009B689847A8E7B7
:10247C00B0235B00EB5831005B689847A1E7B023B1
:10248C005B00EB5831009B6998479AE70123AB70CE
:10249C0018E7022200218270037000F0F7F928007F
:1024AC0000F026FA0EE7082393E7C0461034000824
:1024BC00B3330020B03200203834000870B5837874
:1024CC0004000D00032B11D10B79012B0ED8AC237A
:1024DC005B00C3589B689847EB880600002B0AD119
:1024EC00002808D1200000F003FA04E000212000AD
:1024FC00FFF79AFC0026300070BDC04630B50023B3
:10250C000C0083B0019363788A8805000979012B4C
:10251C0006D0032B2BD0002B0CD0002003B030BDE9
:10252C008378022B09D0032B38D000212800FFF729
:10253C007BFCF2E78378022B05D14B06EDD028000B
:10254C00FFF772FCE9E7032BEFD113062ED48B00B7
:10255C005B18DB00C318BA331B78002B01D00123A6
:10256C0001930222280001A900F098F9D5E783789D
:10257C00022BE2D0032BD8D16388002B03D14B065E
:10258C0001D0FFF751FCAC235B00EB582100280075
:10259C009B689847280000F0ABF9BEE76388002BD6
:1025AC00F1D14B06EFD0FFF77BFCECE77F230B4020
:1025BC009900C918C90041188B7E002BD1D0CEE7E9
:1025CC00037C0B70437C4B70C27C837C12029B1887
:1025DC004B80427D037D12029B188B80C27D837DD4
:1025EC0012029B189BB2CB80C363012343707047CC
:1025FC0010B50021FFF718FC10BDC04670B50028BF
:10260C0021D00378002B1FD001260300361A9C1909
:10261C005D780133E4B2002DF9D101346400E3B2EA
:10262C0014800B7003234B700478002C0BD0002506
:10263C00013B5A1CD2B2CC5401308D540478023375
:10264C00DBB2002CF5D170BD02230224E8E7C046B2
:10265C00AE2310B504005B00C3581B699847E378A0
:10266C000020A37010BDC04610B58378C37004233E
:10267C0083705933FF33C358DB689847002010BD73
:10268C00AC235B00C35810B5DB69002B00D0984716
:10269C00002010BD10B50400402300220021FFF7DC
:1026AC0019FA8023002280212000FFF713FA00235F
:1026BC00402200212000FFF72DFA40228021002328
:1026CC002000FFF727FA0123A3705C33FF33E35894
:1026DC00207B5B689847002010BDC04610B582B0C7
:1026EC0069460400FFF76CFF6B4619781F230B40FB
:1026FC00012B0BD0022B13D0002B0CD07F232000EE
:10270C009943FFF791FB002002B010BD69462000F1
:10271C00FFF7D4FEF7E769462000FFF7B9FDF2E7B3
:10272C0069462000FFF7EAFEEDE7C046F8B5040065
:10273C000D1E06D14378022B0ED0042B30D0002076
:10274C00F8BDAC235B00C3585B69002BF7D08278D3
:10275C00032AF4D19847F2E7426B456AAA4228D87B
:10276C00876B2900380000F099FB0E1E0BD1BD427F
:10277C0009D8E36B9F4206D200220021200000F012
:10278C0099F8E663DBE7AC235B00E358DB68002BCE
:10279C0002D0A278032A13D0200000F0B3F8CEE7C1
:1027AC00094E31680029CAD0C9B2FFF7A3FB3560C6
:1027BC00C5E7521B816A426392B200F07BF8BEE718
:1027CC0020009847E8E7C046B032002010B504005E
:1027DC00002904D14378032B0CD0002010BDAC236E
:1027EC005B00C3589B69002BF7D08278032AF4D185
:1027FC009847F2E70300B833D969DA6891420DD8EB
:10280C00AC235B00C3581B69002B03D08278032ACE
:10281C0000D19847200000F06BF8DEE7891AD961E7
:10282C008A4205D82000196992B200F059F8D4E711
:10283C000A00F7E7F8B504000D0017001E0000F0C1
:10284C006FF8AC235B00E750AE2708337F00E651EE
:10285C00E55000F021F92000FFF720F9E3591B683F
:10286C009847200000F084F82000FFF761FBF8BDCA
:10287C00AC235B00C35810B51B6804009847AE230B
:10288C005B00E3589B689847002010BDAC2310B543
:10289C005B00C3585B689847002010BD10B513004F
:1028AC0082634263022242700A000021FFF762FA3F
:1028BC00002010BD10B513000A000021FFF75AFAD2
:1028CC00002010BD1300D82210B58350043A835059
:1028DC00D13A42700A000021FFF704FA002010BD23
:1028EC0010B513000A000021FFF7FCF9002010BD01
:1028FC00042310B50022437000210023FFF73AFA9D
:10290C00002010BD052310B50022437000210023C8
:10291C00FFF7E8F9002010BD10B5FEF729FE10BD39
:10292C008022104B1204D9690A438021DA611A6B98
:10293C008A431A638022D96912050A43DA610A4B69
:10294C000A495A680A405A608022596892050A431B
:10295C0040215A601A680A431A601A6820390A43DF
:10296C001A60704700100240006C0040FFFFFFCF60
:10297C00C7208021054A80001358C9051B021B0A79
:10298C000B43135080231B061360704700E100E0DB
:10299C000020704700207047F0B5CE464746060031
:1029AC0080B5002920D0114B114F1B680020984690
:1029BC0080235B019C460F4B002599463A6809E041
:1029CC00745D4D46013080B2AC5405003B608842CA
:1029DC0006D21A00531C6345A44123409845EFD1FD
:1029EC00C0BCB946B046F0BD0020F9E74C3200201F
:1029FC00483200204822002010B5FDF7E1FE10BD42
:102A0C0000207047122301480B807047A434000843
:102A1C00042301480B807047B83400081A2301487E
:102A2C000B8070476000002010B5044C0A00210098
:102A3C000348FFF7E3FD200010BDC046B432002070
:102A4C005034000810B5044C0A0021000348FFF76D
:102A5C00D5FD200010BDC046B432002074340008EF
:102A6C0010B5044C0A0021000348FFF7C7FD2000F5
:102A7C0010BDC046B43200208834000810B5044C98
:102A8C000A0021000348FFF7B9FD200010BDC04625
:102A9C00B432002094340008194B70B51A68194BE5
:102AAC001B68D218002A00D170BD174B174900259E
:102ABC00080000261C6807E0303302358370C670AE
:102ACC0012010230102D0AD0130F092BF4D9373311
:102ADC0002358370C67012010230102DF4D1002221
:102AEC00002007E030338B740232C87424010231A9
:102AFC00082AD9D0230F092BF4D937338B74F3E779
:102B0C00ACF7FF1FB4F7FF1FB0F7FF1F60000020EA
:102B1C000821054A13689BB20B43136013680439F0
:102B2C009BB20B4313607047405C004010B52D4BBB
:102B3C00072800D018701978CAB205294CD82A4930
:102B4C0092008A589746102028490A6892B202438C
:102B5C000A6005221A7005325A7010BD5A78013A73
:102B6C00D2B25A705A78D1B2002AF6D11F48204CF2
:102B7C0002682240026006221A701E4B1960ECE7B4
:102B8C001C4A1268002A2AD1184A1B4811680140B5
:102B9C001160BF210902116006221A70DDE70420C2
:102BAC0012490A6892B282430A60BF2212020A607A
:102BBC00012218700F4B1A60CFE702225A700132B3
:102BCC001A70CAE75A78013AD2B25A705A78002A67
:102BDC00C3D104321A70C0E706221A70BDE7052271
:102BEC001A70BAE7B4330020BC340008405C0040D3
:102BFC00EFFF0000B8330020FBFF00007047C04619
:102C0C007047C0467047C0467047C0467047C046C4
:102C1C008022036810B5D205934236D0324A9342D3
:102C2C001BD0324A93423DD0314A934240D0314A74
:102C3C00934230D0304A934240D0304A934244D0F1
:102C4C002F4A934248D02F4A93420BD180222E49CF
:102C5C00D2028C6922438A6104E002242A49CA699F
:102C6C002243CA6182880121013A92B21A85826894
:102C7C00013ADA6200225A6201329A821A8A1142AD
:102C8C00FCD000221A82198010BD01241E49CA6989
:102C9C002243CA61E6E780221B495200CC692243D9
:102CAC00CA61DFE710241849CA692243CA61D9E70F
:102CBC0020241549CA692243CA61D3E780221249EC
:102CCC0012018C6922438A61CCE780220E495202A0
:102CDC008C6922438A61C5E780220B4992028C6978
:102CEC0022438A61BEE7C046000400400010004049
:102CFC000014004000200040002C01400040014026
:102D0C0000440140004801400010024010B504008E
:102D1C00FFF77EFF0022C521FF20236889001A835C
:102D2C001A840E4A535883437F38034353508023ED
:102D3C005B03136080230A4ADB0251690B43536126
:102D4C00084B09491A680A401A601968074A0A436D
:102D5C001A609A8A06490A409A8210BD00E100E086
:102D6C000010024000040048CFFF0FFF100050007D
:102D7C00FBF3FFFF0D4B10B514CB0123A340936164
:102D8C0082680368013A91420DD9596A51188A42F6
:102D9C0000D2891A03225963022152421A829A895B
:102DAC000A439A8110BD586A0918F0E7C83300200D
:102DBC000D4B10B514CB0123A340936182680368BB
:102DCC00013A91420DD9596A51188A4200D2891A96
:102DDC0005229963042152421A829A890A439A81E4
:102DEC0010BD586A0918F0E7D4330020074B1A6855
:102DFC00002904D0596801238B40936170475968AE
:102E0C0080235B028B409361F8E7C046BC33002003
:102E1C000221124B1A8A90B211420CD00322524258
:102E2C001A829A898A439A810D4B1A6859688023B1
:102E3C005B028B409361042303420DD00521074AAA
:102E4C004942118291899943064B91811A685968BC
:102E5C0080235B028B4093617047C0460040014069
:102E6C00C8330020D43300200B220A20074B08491A
:102E7C005A600A3A19609A60064B196058609A6059
:102E8C00054B196002219A6059607047BC330020D1
:102E9C0000040048C8330020D43300200A0010D0AE
:102EAC000300400800E052008242FCD9002000E000
:102EBC005208934200D39B1A40418A42F8D1190020
:102ECC007047002070478446002A03D001700130FF
:082EDC00013AFBD1604670478A
:0C2EE4009D0D000895110008752E0008D7
:102EF0003031323334353637383941424344454630
:102F000000000000070000000D0000007653544D43
:102F1000333200005630313132000000463030008C
:102F20007A0000005A0000005553422D43414E20C4
:102F300061646170746572206261736564206F6E94
:102F40002053544D3332463037322E20436F6D704C
:102F5000696C65643A204A616E2020382032303234
:102F6000322031363A30383A33310A436F6D6D6171
:102F70006E64206C6973743A0A536E5B43525D2031
:102F80002020202D20536574757020776974682087
:102F90007374616E646172642043414E206269748F
:102FA0002D7261746573207768657265206E206983
:102FB0007320302D380A73787878785B43525D201F
:102FC0002D20536574757020637573746F6D204385
:102FD000414E206269742D72617465730A4F5B43C0
:102FE000525D20202020202D204F70656E207468B7
:102FF000652043414E206368616E6E656C20696E8A
:10300000206E6F726D616C206D6F64650A4C5B435E
:10301000525D20202020202D204F70656E20746886
:10302000652043414E206368616E6E656C20696E59
:10303000206C697374656E206F6E6C79206D6F649F
:10304000650A6C5B43525D20202020202D204F70AC
:10305000656E207468652043414E206368616E6E22
:10306000656C20696E206C6F6F706261636B206DA0
:103070006F64650A435B43525D20202020202D2091
:10308000436C6F7365207468652043414E2063680C
:10309000616E6E656C0A765B43525D2020202020B5
:1030A0002D204765742053572056657273696F6EE3
:1030B000206E756D6265720A565B43525D2020205A
:1030C00020202D204765742048572056657273696B
:1030D0006F6E206E756D6265720A5A6E5B43525D4B
:1030E000202020202D20536574732054696D6520A5
:1030F0005374616D70204F4E2F4F464620666F729D
:10310000207265636569766564206672616D6573BA
:10311000206F6E6C790A456E5B43525D2020202043
:103120002D2053657473204572726F722052657042
:103130006F7274696E67204F4E2F4F46460A446E79
:103140005B43525D202020202D2044697361626C16
:1031500065204175746F2052657472616E736D697C
:103160007474696E670A746969696C64642E2E2EC2
:103170005B43525D2020202020202D205472616E60
:10318000736D69742061207374616E646172642070
:10319000283131626974292043414E206672616D85
:1031A000650A5469696969696969696C64642E2E84
:1031B0002E5B43525D202D205472616E736D6974D5
:1031C00020616E20657874656E64656420283239EC
:1031D000626974292043414E206672616D650A72EE
:1031E0006969696C5B43525D2020202020202020EB
:1031F0002020202D205472616E736D697420616EE1
:10320000207374616E6461726420525452202831BC
:1032100031626974292043414E206672616D650AEE
:103220005269696969696969696C5B43525D20200B
:10323000202020202D205472616E736D69742061EE
:103240006E20657874656E6465642052545220283F
:103250003239626974292043414E206672616D657E
:103260000A4D78787878787878785B43525D2020BA
:1032700020202020202D2053657473204163636536
:103280007074616E636520436F6465205265676981
:10329000737465720A6D78787878787878785B439B
:1032A000525D202020202020202D20536574732083
:1032B000416363657074616E6365204D61736B205B
:1032C00052656769737465720A0000003C0B000860
:1032D000D40A0008D40A0008D40A0008620B0008C7
:1032E000E20B0008C60B0008820B0008D40A000895
:1032F000D40A0008D40A0008D40A0008D40A000836
:103300007A0B0008360C0008D40A0008680B000885
:10331000D40A0008D40A0008280B0008A80B0008EB
:10332000280B0008D40A0008460B0008D40A00083D
:10333000D40A0008D40A00088E0B0008D40A00083A
:10334000D40A0008D40A0008D40A0008D40A0008E5
:10335000D40A0008D40A0008D40A0008D40A0008D5
:10336000D40A0008D40A0008D40A0008D40A0008C5
:103370003C0B0008D40A0008D40A0008D40A00084C
:10338000C20A0008FC0B0008D40A0008D40A00088E
:10339000D40A0008D40A0008140B0008700C0008B6
:1033A000140B0008D40A0008520B00082B01670018
:1033B000950067003B0067001D006700170067006D
:1033C0000B00670005006700040045000902430088
:1033D000020100C0320904000001020201000524BC
:1033E0000010010524010001042402020524060046
:1033F00001070582030800FF09040100020A00001A
:10340000000705030240000007058102400000009C
:103410000E23000834230008C82200084A230008AD
:10342000C822000868230008B2220008C822000849
:1034300096230008D62200087C2400086E24000889
:103440006024000852240008442400088A2400084C
:1034500053544D3332205669727475616C20436F3A
:103460006D506F727420696E204653204D6F6465F5
:103470000000000053544D6963726F656C6563749E
:10348000726F6E696373000056435020436F6E661F
:103490006967000056435020496E74657266616327
:1034A0006500000012010002000000408304405744
:1034B0000002010203010000040309048C2B000830
:1034C000AA2B0008C62B0008D02B0008522B00089E
:0434D000682B00085D
:1034D40002006700911F00083120000859200008ED
:1034E40000000000551F000801220008FD1F00080D
:1034F4002D210008851F0008FF000000D9270008BF
:1035040039270008E92600088D260008A1260008AE
:10351400752600085D2600082C0000209D2900085F
:103524000D2A0008A1290008A5290008052A000879
:103534001A0300000000000000000000000000006A
:10354400000000000000000000000000112A000834
:103554001D2A0008512A0008352A0008292A0008D3
:103564006D2A0008892A0008092C00080D2C00087F
:0C357400152C0008192C0008112C000870
:0400000508000339B3
:00000001FF
