:020000040800F2
:10000000004000203D030008650300086703000866
:1000100000000000000000000000000000000000E0
:10002000000000000000000000000000690300085C
:1000300000000000000000006B0300086D030008D2
:1000400071030008730300087503000877030008B4
:10005000790300087B0300087D0300087F03000884
:100060008103000883030008850300088703000854
:10007000890300088B0300088D0300088F03000824
:1000800091030008930300089503000897030008F4
:10009000512E00089B0300089D0300089F030008E1
:1000A000A1030008A3030008A5030008A703000894
:1000B000A9030008AB0300082D0F00082F29000832
:1000C00082B0404B1A6801210A431A605A683E48C0
:1000D00002405A601A683D4802401A601A683C485B
:1000E00002401A605A683B4802405A60DA6A0F20A0
:1000F0008243DA621A6B384802401A635A6B8A43A9
:100100005A6300229A60009201921968802252027A
:100110000A431A60190080229202A020C0010B68D5
:1001200013400193009B01330093019B002B02D1EC
:10013000009B8342F3D1234B1B689B0333D50123E0
:100140000193264B11221A601E4B5A685A605A6856
:100150005A60019B012B29D01A4B5A6820490A404A
:100160005A605968A02292030A435A60154A1168DE
:1001700080235B040B4313601100802292040B6800
:100180001342FCD00F4B5A6803218A435A605A68C5
:1001900001390A435A6019000C224B681340082B9E
:1001A000FBD102B0704700230193CAE7054B5A68A0
:1001B0000B490A405A605968982252030A435A6010
:1001C000D4E7C046001002400CB8FF08FFFFF6FE5F
:1001D000FFFFFBFFFFFFC0FFACFEFFFF0020024060
:1001E000FF7FC0FF354936480A1A02D007229143E3
:1001F0008D46344934480A1A06D00722914381F3C8
:100200000988022282F3148830483149314A00F0CB
:1002100043F831483149324A00F03EF8314832491A
:10022000324A00F039F832483249334A00F034F8A3
:1002300032483349334A00F02FF833483349344ABF
:1002400000F02AF833483449344A00F025F834489D
:100250003449002200F02BF833483449002200F0E2
:1002600026F833483349091A082903DB00220260C3
:10027000043001601F482049884205D002680430DC
:1002800003B4904703BCF7E700208646EC46002005
:100290000021294A9047FEE7884207D0521A05D02C
:1002A000037801300B700131013AF9D1704788426F
:1002B00002D002700130FAE77047000000400020D1
:1002C000003E002000400020004000209034000844
:1002D00000000020C0000020B0030008B0030008A8
:1002E000F62F0008903400080000002000000020D5
:1002F000F82F0008F82F000804300008F82F000835
:10030000F82F0008F82F0008043000080430000817
:100310009034000850350008C0000020C0000020C4
:10032000C0000020EC330020EC330020EC33002030
:10033000EC330020EC33002069080008044805492C
:10034000884385460448804704480549016049E7D9
:100350000040002007000000C100000808ED00E098
:1003600000000008FEE7FEE7FEE7FEE7FEE7FEE727
:10037000FEE7FEE7FEE7FEE7FEE7FEE7FEE7FEE755
:10038000FEE7FEE7FEE7FEE7FEE7FEE7FEE7FEE745
:10039000FEE7FEE7FEE7FEE7FEE7FEE7FEE7FEE735
:1003A000FEE7FEE7FEE7FEE7FEE7FEE7FEE7FEE725
:1003B000F0B5DE4657464E464546E0B593B0824618
:1003C000837C002B00D11FE1C37C5A1E93415B420A
:1003D00001229343543308A90B700368984604AB79
:1003E000B34A91461D00170045CF45C5AB46386856
:1003F00028604246100F185C487018004E4634CEF4
:1004000034C038685A4610604246100E06000F226B
:1004100016409E5D8E701E00484634C834C638684B
:100420005C4620604046000D06000F221640985D95
:10043000C87018004E4634CE34C038685C46206020
:100440004046000C06000F221640985D0871180007
:100450004E4634CE34C038685C4620604046000BBF
:1004600006000F221640985D487118004E4634CEA3
:1004700034C038685C4620604046000A06000F22FF
:100480001640985D887118004E4634CE34C03868E6
:100490005C4620604046000906000F221640985D29
:1004A000C87118004A4670CA70C03A680260404677
:1004B0000F2210401B5C0B72092153465C680394A9
:1004C0004D1C029504AA7A4B1000E0CBE0C01B68DB
:1004D00003600F232340D25C08AB5A545346DB7CA5
:1004E000002B33D1231E31D0544608A8029DAC46C0
:1004F00060449946D14404AB0F229046D446227AF8
:1005000092461D006A4F46CF46C5AB4601973E68EE
:100510002E6051460E119E5D06701E006449A4C9EE
:10052000A4C6019A11685A461160414652460A40D3
:10053000995C4170013402304C45E0D1E246039BA6
:100540005B00029A94469C446346029300F0A2FC2E
:10055000002848D053461B8A9C4604AB544A924616
:100560001E00150013CD13C6AB46296831606246E4
:100570001113595C08AA029D019251551900504669
:1005800094C894C159460968316061460C120F2124
:100590000C401C5DA94601988046C1444846447001
:1005A0000295EC1C03941800574634CF34C05D46C6
:1005B0002F68376065462F11380008401F5CB84629
:1005C0004F464046B8701F00524631CA31C75D469B
:1005D0002A683260654629405B5C039C019A13558A
:1005E0000298031D02930299481C08AB0D225A542D
:1005F000002851D02F4B304A9F58043A9E58002172
:1006000000221D0008AC3FE0C37C5A1E93415B42B0
:1006100001229343743308A8037053461C6804AB4B
:10062000234A90461D00170046CF46C5A9463968A3
:1006300029600194210A0F2293460E0016409E5D08
:1006400046701E00414634C934C639684A461160B6
:10065000019C21090E005A461640995D81701900CF
:10066000424670CA70C13A680A605946019C2140EE
:100670005B5CC370042120E7A15CE9541E000121EA
:100680000132D2B2824205D2731C1B051B0DBB4244
:10069000F2D1F5E7002906D113B03CBC904699464B
:1006A000A246AB46F0BD034A80235B01D650F3E778
:1006B000F43000083012002004100000F0B50C4A9D
:1006C0000C4BD75802004118094E802040013400DD
:1006D00000E001328A4209D0335801331B051B0D5B
:1006E000BB42F6D01578E5542350F2E70020F0BD68
:1006F0002802002004100000F0B5D6464F464646BA
:10070000C0B586B00023019354286BD00300523B40
:100710005A42534101AA13740123722869D064E03C
:10072000019B1B019A46200002F050FC00280AD1D0
:100730002300613B052B0DD92300413B052B0CD831
:10074000373CE4B201E0303CE4B253461C43019430
:10075000013561E0573CE4B2F7E7FF24F5E7303CB0
:10076000E4B201AB02945B7C002BF1D001A800F055
:1007700097FB06B01CBC90469946A246F0BD573C7C
:10078000E4B2EEE7FF24ECE74B465B089A4601AB88
:1007900053441A7A12011A72200002F017FC002842
:1007A0000AD12300613B052B15D92300413B052BC2
:1007B00014D8373CE4B201E0303CE4B201AB53441E
:1007C0001A7A14431C7201239C46E144029B5B008D
:1007D0004B45CBD9BCE7573CE4B2EFE7FF24EDE74C
:1007E0000120C6E701AB01221A7452384342584136
:1007F000C3B201AC63740822002103A802F0EBFB32
:10080000257C6B1E9D416D4204239D4305350023CD
:100810009946134E134FB04680235B01F258F359AB
:100820009A42FDD001331B051B0D4246D45CD351C7
:100830000D2CD5D0072D00D872E7082DA4D82000A4
:1008400002F0C4FB002800D089E72300613B052BA0
:1008500095D92300413B052B94D8373CE4B280E77F
:100860002802002004100000F0B5DE4657464E4630
:100870004546E0B583B0CD4A51698023DB020B4386
:100880005361CB4B1A68CB490A401A601968802221
:1008900052030A431A6000F0D5F9C74800F03CFB48
:1008A000C64BC74AC749C84801F0CFFFC74E80258D
:1008B0006D01C74CB34633E0C64F380002F094FBDD
:1008C0000100380002F076F8C34F1CE0C34F380037
:1008D00002F08AFB0100380002F06CF8F4E7C04F28
:1008E000380002F081FB0100380002F063F8EBE70A
:1008F000BC4B00221A515A51002000F045FA002842
:1009000000D133E1B84F380002F06EFB010038002F
:1009100002F050F8B34A13595259934200D027E1DC
:10092000715933598B42F5D001331B051B0DA74A72
:10093000D05C13510200433AD7B2332FEAD8BA0041
:10094000AA4FBA589746012000F01EFAD7E70220B6
:1009500000F01AFAD3E700F07BFAD0E79942FDD015
:1009600001331B051B0D994AD05C13513038431ECF
:100970009841C0B200F088FAC1E79942FDD0013336
:100980001B051B0D9149CA5C0B511300303BDAB2B9
:10099000072A13D89300964AD3589F46954800E0FB
:1009A000954800F0EDF9AAE79448FAE79448F8E78B
:1009B0009448F6E79448F4E79448F2E79448F0E75F
:1009C0009448EEE7002204239846804B99460CE0B9
:1009D0003A00303AD2B253461A430D2F2AD043463A
:1009E000013BDBB29846002B24D04B461B594946AD
:1009F00049599942F9D001331B051B0D7349CF5C4E
:100A00000B5113019A46380002F0E0FA0028DFD1BA
:100A10003B00613B052B07D93B00413B052B07D829
:100A20003A00373AD2B2D6E73A00573AD2B2D2E7D2
:100A3000FF22D0E7D005C00DD201FE23DB031A4010
:100A4000104300F06DF95AE7FFF756FE002801D079
:100A5000654F58E7704F380002F0C6FA01003800C1
:100A600001F0A8FF30E7FFF747FE0028F0D16B4FF9
:100A7000380002F0B9FA0100380001F09BFF23E7CB
:100A8000002008239846514B99460CE03800303836
:100A9000C0B2534618430D2F2AD04346013BDBB268
:100AA0009846002B24D04B461B594A4652599A422D
:100AB000F9D001331B051B0D444AD75C13510301C8
:100AC0009A46380002F082FA0028DFD13B00613BF1
:100AD000052B07D93B00413B052B07D83800373899
:100AE000C0B2D6E738005738C0B2D2E7FF20D0E70F
:100AF00000F004F903E700200827344B98460BE088
:100B000048463038C0B2534618434B460D2B2AD0C6
:100B1000013FFFB2002F26D043461B59424652598F
:100B20009A42F9D001331B051B0D5A46D25C9146FF
:100B30005A46135103019A46484602F047FA0028E4
:100B4000DED14B46613B052B07D94B46413B052B7C
:100B500007D848463738C0B2D5E748465738C0B2FC
:100B6000D1E7FF20CFE700F0B5F8C8E61A4FCAE694
:100B70001C4F6A46D01D01331B051B0DFB5C037027
:100B8000012101F017FF012800D0C9E6154B5A5981
:100B90001B599A4204D001331B051B0D11490B51FF
:100BA000104B1B59934200D1BAE6E2E70010024015
:100BB00000040048FFFFCFFFB103000898000020A9
:100BC000040000207C000020C0000020280200203B
:100BD000041000000C310008043100081431000832
:100BE0001C310008301200200831000804300008D1
:100BF000D4300008950067003B0067001D006700C7
:100C0000170067000B00670005006700040045003F
:100C1000020067002B016700203100082431000822
:100C200005498020400100230B50044A8B500449A1
:100C30000B508B507047C046280200200410000063
:100C40003012002010B51E4A51698023DB020B438D
:100C500053611C4B19681C48014019601868A02199
:100C6000090301431960596AFF2081435962596A97
:100C7000BB3801435962D16980239B040B43D36184
:100C8000124B46221A60BB32FF32985801210843AA
:100C9000985000208124A4001851083419510834B8
:100CA00018510834195124341851043418519858E3
:100CB00088439850064802F04BF8002010BDC0460B
:100CC0000010024000040048FFFFF0FF00640040F5
:100CD0004422002010B5084B80229200995801242C
:100CE00021439950C0439121890058509958A143FC
:100CF0009950002010BDC0460064004010B5074B5D
:100D00008022920099580124214399509021890012
:100D100058509958A1439950002010BD00640040DC
:100D2000124A134B11680B401249084018431060D7
:100D3000114B1B78002B16D0104A136801210B436E
:100D40001360110001224B681A42FCD0074B1A684D
:100D50000A4BDA611A6801218A431A6019000122DC
:100D60004B681A42FCD100207047C04600000020AA
:100D700000FC80FCFF037F03402200200064004051
:100D800010B5FFF7CDFF10BD10B52B4A11688023B9
:100D90001B020B4313601100802212020B681342E6
:100DA000FCD1254A136801210B4313601100012275
:100DB0004B681A42FCD0214B1B689B009B08012802
:100DC0002ED0022832D01D4A13601C4B1A681A4BD1
:100DD000DA611A6801218A431A60190001224B68FE
:100DE0001A42FCD1144B19680220814319605A69D8
:100DF00002435A61124BC72080001A581149114012
:100E00008022D2030A431A508022D2051A600E4B68
:100E100001221A7001210D4802F006F8002010BDD1
:100E20008022D2051343054A1360CEE780221206C2
:100E30001343024A1360C8E700640040000000202A
:100E400000E100E0FFFF00FF4022002044220020DC
:100E500010B5094A136802210B431360074A802327
:100E60008021C905D150064B00221A700021054887
:100E700001F0DAFF002010BD0064004000E100E056
:100E80004022002044220020014B187000207047AF
:100E900038220020014B18787047C04638220020C5
:100EA00010B51B4B9968E0225205012311422DD049
:100EB000174B9B689B019B0F1B01154A9918C22277
:100EC000520044688C500B000A008932FF3284685B
:100ED00014608D33FF33C2681A600368027C002AF5
:100EE00002D15A05002301E0DA0004231343427CB7
:100EF000501E82415200012003431343C02252007E
:100F00008B500521034801F07BFF0023180010BD22
:100F10000064004044220020002803D0024B1860E7
:100F2000002070470120FCE73C22002030B587B04C
:100F3000204BDB689B073AD01F4B1B685B6A01A8FC
:100F400003821C49D82252008C58042323401C00E1
:100F5000651EAC4184748A58634211218B4315335A
:100F60000100DA400192134BD82252009A5892079E
:100F7000D20FC274DA2252009858A63AFF3A0240C1
:100F80004A60DC2252009A588A60DE2252009A5847
:100F9000CA60DA6820210A43DA601B39064801F08A
:100FA0001BFF064B1B68002B01D001A8984707B018
:100FB00030BDC04600640040442200203C22002096
:100FC000034B044A1A60044A9A80044A9A607047A4
:100FD000442200200040014080BBFFFF60EA000087
:100FE000F0B5C64600B582B001AB00221A80DE4ED5
:100FF00010239846B0445DE1DC4A1368DC490B409D
:101000001360D94C207E00F0A5FB2063A36A9C46A8
:101010006044A062D74B1B685B68002120009847A2
:1010200048E1B823F05C00F0A7FB0200D023F050A9
:10103000143BF15A404600F089FCCC4A1368CE4973
:101040000B401360CB4B1B689B683000984731E125
:10105000C54C143BE15AC8250200605900F076FCEB
:10106000D023E358625994466344635153E15108D5
:1010700089B2D20701D5013189B28902198067E1AD
:10108000A500BA4B9C4665442B689BB201AA13800D
:1010900013881BB2002B2EDB01AB1B881B0600D470
:1010A00008E12B68B24A13402B60A3001B19DB0038
:1010B000AD4A9446634422331B78002B00D0BAE03B
:1010C000A3001B19DB00D518287E00F043FB286322
:1010D000002800D1CFE0A44AA3001B19DB00D318DD
:1010E000998B651CAB005B19DB009B580200180054
:1010F00000F016FCBFE02B689F4A13402B60A30052
:101100001B19DA00984B9B18C2331B78002B16D1A1
:10111000954B9B18B833187800F02EFB071E2ED085
:10112000A3001B19DA00904B9B181A00BC321188DF
:10113000C8331B680200180000F008FC1FE0A30081
:101140001B19DA00884B9B18B833187800F0FCF9AB
:10115000430442D5A3001B19DA00834B9B18B83314
:10116000187800F097FB071E28D1A3001B19DA009E
:101170007D4B9B18B8331878002100F0AFFB390085
:10118000A3001B19DA00784B9B181800D0300268B6
:10119000D219026008380268D2190260CC331B6889
:1011A000002B34D17048A3001B19DB00C318B833DF
:1011B0001978704B1B681B6898476DE7A3001B19D3
:1011C000DA00694B9B181A00BE321188C8331B68BD
:1011D0000200180000F0BAFBC7E7A3001B19DA00F1
:1011E000614B9B18B833187800F066FB071EBCD023
:1011F000A3001B19DA005C4B9B181A00C03211883F
:10120000C8331B680200180000F0A0FBADE7A00087
:101210000019C7005448C019C43000688142C1D3C6
:101220009BB25148A1000919C9004118B831097889
:1012300000F0C4FC30E7A3001B19DB004A4AD318B6
:10124000187E00F081F9430600D4B3E0A3001B1917
:10125000DB00454DED18287E00F01CFB28630028BC
:1012600000D097E0A3001B19DB003F4AD318187E7B
:10127000012100F033FB3C4FA5002D19ED007D1935
:10128000287E00F067FA2863611C8B005D18ED0072
:10129000EA591018E8517B195B68002B00D0A5E0D3
:1012A0003148A3001C19E4000419217E314B1B684E
:1012B0005B689847314B1B6899B26A46D1801B0422
:1012C00000D49EE06B46DC880F231C4000D0D7E69C
:1012D0006B4606331B88DB0600D48DE6234B1B6868
:1012E0009BB201AA138013881B0500D599E601ABB8
:1012F0001B881BB2002BDDDA1C4A13681E490B4009
:101300001360194CB823E05C00F036FAD023E050AB
:10131000002800D09CE6144C164B1B681B6800216B
:1013200020009847164B1B681B041B0C154A94465B
:101330006344C422A2583E2A00D898E6510989B2D3
:10134000D20601D1013989B289020F4A11431980AD
:1013500006490B680D4A1A40C0239B0153400C4AB2
:1013600013430B60A6E7C046C0000020005C0040AD
:101370000F8F0000480000208F0F0000445C0040E9
:10138000505C0040066000400080FFFF8FBF0000FF
:10139000808000001D4AA3001B19DB00D318D98BE5
:1013A000651CAB005B19DB009B580200180000F0C5
:1013B000B7FA57E7A3001B19DB00144DED18287E80
:1013C00000F07AFA2863002800D14BE70F4AA30007
:1013D0001B19DB00D318198C651CAB005B19DB00F3
:1013E0009B580200180000F09BFA3BE7074DA20053
:1013F0001419E4002C19217E0200280000F034FCAE
:1014000058E702B004BC9046F0BDC046C0000020C2
:1014100010B582B06B460022DA80374A126892B269
:10142000DA80DA88354B1B68802109020B401A42AA
:1014300058D16B46DA88314B1B6813405B050CD5DD
:101440002D4B2F4A1A602F4C2F4B1B681B69200015
:1014500098470021200000F0CDFC6B46DA88274B2E
:101460001B6813409B0402D5234B284A1A606B4625
:10147000DA88224B1B681340DB040AD51E4B244A32
:101480001A60214B1B689B691E489847002001F099
:101490006FFB6B46DA88194B1B6813401B0509D597
:1014A000154B1C4A1A60184B1B685B691548984716
:1014B00001F042FB6B46DA88104B1B6813409B051A
:1014C00007D50D4B144A1A600F4B1B68DB680D489B
:1014D00098476B46DA88094B1B681340DB0504D438
:1014E00002B010BDFFF77CFDA3E7034B0B4A1A6067
:1014F000072001F03DFBF3E7445C00405022002050
:10150000FFFB0000C000002048000020FFDF0000BB
:10151000FFEF0000FFF70000FFFD0000FFFE0000EE
:10152000014B18607047C046405C0040014B18609A
:101530007047C046445C004007239843014B186045
:101540007047C046505C00408000034B9C4660449E
:10155000006880B27047C046005C00400A0080000E
:10156000044B9C466044036803491940114389B207
:1015700001607047005C00408F89FFFF8000094BCD
:101580009C4660440368084A1340CA0601D51022ED
:1015900053408A0601D520225340044A1343036076
:1015A0007047C046005C0040BF8F00008080000094
:1015B00080000A4B9C4660440368094A1340CA04F1
:1015C00002D58022520153408A0402D58022920122
:1015D0005340044A134303607047C046005C004018
:1015E0008FBF0000808000008000064B9C46604456
:1015F000026880235B001343034A1340034A1343EA
:1016000003607047005C00400F0F00008080000006
:101610008000054B9C4660440368044A1A40044B12
:10162000134303607047C046005C00400F0F00008A
:1016300080C000008000054B9C4660440368044A5B
:101640001A40044B134303607047C046005C0040DF
:101650000F0F0000C08000008000064B9C466044D5
:1016600003685B0405D50368034A1A40034B134320
:1016700003607047005C00400F0F000080C0000056
:101680008000064B9C46604403685B0605D50368F2
:10169000034A1A40034B134303607047005C004049
:1016A0000F0F0000C0800000064B1B681B041B0CC2
:1016B000C000C018044B9C466044490849000180A2
:1016C0007047C046505C004000600040064B1B68FD
:1016D0001B041B0CC000C018044B9C466044490806
:1016E000490001807047C046505C004004600040E3
:1016F000054B1B681B041B0CC000C018034B9C4609
:10170000604401807047C046505C00400260004069
:101710000D4B1B681B041B0CC00018180B4B9C4680
:1017200060443E2909D94B09CA0601D1013B9BB24D
:101730009B02074A1343038070474B08CA0700D532
:1017400001339B020380F7E7505C004006600040D5
:101750000080FFFF064B1B681B041B0CC000C01859
:10176000044B9C46604400888005800D7047C0464D
:10177000505C004002600040064B1B681B041B0CC1
:10178000C000C018044B9C46604400888005800D52
:101790007047C046505C00400660004030B50B4CBE
:1017A0002368C0001B041B0CC318094DAC466344DE
:1017B00049084900198023681B041B0CC018054BFD
:1017C0009C46604452085200028030BD505C00408C
:1017D000006000400460004010B500293BD1294B57
:1017E0001B68C0001B041B0C1B1827498C46634454
:1017F0003E2A1AD95109D40601D1013989B2890288
:10180000224C214319801F4B1B681B041B0C18180A
:101810001F4B9C4660445309D20601D1013B9BB249
:101820009B021A4A1343038017E05108D40700D5DE
:10183000013189021980134B1B681B041B0C1818FB
:10184000134B9C4660445308D20701D501339BB229
:101850009B02038001E0012900D010BD09490B68FB
:10186000C0001B041B0CC318074CA44663441A8019
:101870000B681B041B0CC018054B9C46604402807F
:10188000EBE7C046505C0040026000400080FFFF74
:1018900006600040064B1B681B041B0CC000C018F0
:1018A000044B9C46604400888005800D7047C0460C
:1018B000505C004002600040064B1B681B041B0C80
:1018C000C000C018044B9C46604400888005800D11
:1018D0007047C046505C00400660004000290CD0B4
:1018E000012914D180000A4B9C4660440368094AD0
:1018F0001A40094B1343036009E08000044B9C46E7
:1019000060440368034A1A40044B13430360704762
:10191000005C00400F0F000080C00000C08000008D
:1019200010B501325210084B9C466144002A09D080
:1019300044782402037823430B800230013A0231B9
:10194000002AF5D110BDC04600600040013252109F
:10195000064B9C466144002A06D00B880380023067
:10196000013A0231002AF8D17047C04600600040B9
:1019700010B501238370002202718260C3600120D0
:10198000FFF7CEFD0020FFF7CBFD0020FFF7CEFDD7
:101990000020FFF7D1FDBF200002024B1860FFF7C7
:1019A000BFFD10BD5022002010B50C060FD57F24BE
:1019B0000C40A1000919C90018314018002A0ED0A6
:1019C00001228272C3801B0C0381002010BD7F2482
:1019D0000C40A1000919C900B8314018EEE7827225
:1019E0008380F2E770B50C0635D57F260E40B50032
:1019F000AC19E40018340419AD19ED0040190125A3
:101A00004576E260E3707F200840207003D1002219
:101A10006262E2612262002222616261A261A270BE
:101A2000012B34D0002B24D0022B27D0032B29D01C
:101A3000A37A002B41D16378002B2DD0A188207888
:101A4000FFF732FE2078FFF71BFE20782021FFF7FA
:101A500095FD002070BD7F260E40B500AC19E40056
:101A6000B8340419AD19ED004519B93500202870B6
:101A7000C7E780218900FFF771FDD9E70021FFF753
:101A80006DFDD5E7C021C900FFF768FDD0E78021D3
:101A9000C900FFF763FDCBE7A1882078FFF716FEAA
:101AA000A1892078FFF734FE2078FFF7D5FDC0210B
:101AB00020788901FFF77CFDCBE72078FFF794FDC4
:101AC0002289E1882078FFF769FE6378002B11D026
:101AD0002078FFF7C1FD2078FFF7D2FD2078FFF7CF
:101AE00097FD20780021FFF749FD20780021FFF7BE
:101AF0005FFDAEE72078FFF7AFFD2078FFF7C0FD70
:101B00002078FFF797FDC02120788901FFF750FD6D
:101B100020780021FFF732FD9BE710B54BB2002B78
:101B200014DB7F2421408C006418E400B8340419CD
:101B3000A37A002B1AD16378002B0FD02078FFF7FF
:101B40009FFD20780021FFF719FD23E07F240C4042
:101B5000A1000919C90018314418E9E72078FFF7F6
:101B60007BFD20780021FFF723FD13E06378002B35
:101B700012D02078FFF770FD2078FFF781FD2078E4
:101B8000FFF746FD20780021FFF7F8FC20780021C0
:101B9000FFF70EFD002010BD2078FFF75DFD2078D7
:101BA000FFF76EFD2078FFF745FD20780021FFF755
:101BB000FFFC20780021FFF7E1FCEBE770B582B075
:101BC0000500002601967F240C40A0000019C000EB
:101BD00028180100C8310A600200CC3213600432B8
:101BE0001660C430026893422AD901920199A2007A
:101BF0001219D200AA18CC325B1A1360A3001B1969
:101C0000DB00EB18C2331B78002B22D0019A92B272
:101C1000A3001B19DB00EB181900B9310978B833A0
:101C20001878FFF7D9FDC021A3001C19E4002D1975
:101C3000B83528788901FFF7BBFC002002B070BDE1
:101C40000193A3001B19DB00EB18CC3300221A60B0
:101C5000D4E7019989B2A3001B19DB00EB18B83354
:101C60001878FFF755FDDEE7F0B583B006000020D9
:101C700001907F240C40A5002919C90071180C7629
:101C80000D008A62CB6208634A6A934233D901929B
:101C9000019A9B1ACB62A3001B19DB00F3182233B5
:101CA0001B78002B2BD0019A92B2A7003F19FF009E
:101CB000F719797E387EFFF78FFD387EFFF744FCF9
:101CC00043062CD5398C019A92B2A86AFFF728FEF8
:101CD000A3001B19DB00F318597E187EFFF7FEFDE9
:101CE000A1000C19E4003619307E3021FFF746FCC4
:101CF000002003B0F0BD01930023CB62CBE7019A33
:101D000092B2A7003F19FF00F719B98BA86AFFF735
:101D100007FE019989B2387EFFF7EAFCE0E7A300ED
:101D20001B19DB00F318D98BCDE7000010B54BB2BF
:101D3000002B11DB8B005918C900B8314118087805
:101D4000002811D04B78002B1BD101238B708021F0
:101D50004901FFF72DFC12E07F230B409900C918C1
:101D6000C90018314118EAE709480368094A1A40CE
:101D7000094B5340094A1343036001238B70002031
:101D800010BD01238B701021FFF7F8FBF7E7C04669
:101D9000005C0040BFBF0000101000008080000009
:101DA00010B54BB2002B13DB8C006118C900B831A1
:101DB00044186378002B13D12078FFF74DFCC02125
:101DC00020788901FFF7F4FB0023A370002010BDE9
:101DD0007F240C40A1000919C90018314418E8E714
:101DE0002078FFF74DFC20783021FFF7C7FB002358
:101DF000A370EBE710B501710E4C20680E4B184034
:101E00000E4A024322600E4C206818400D4A0243DD
:101E100022600D4C206818400C4A024322600C4896
:101E200002681A400B4B13430360802319430A4B8B
:101E3000196010BD005C00400F0F000080800000A2
:101E4000045C004081800000085C0040828000004B
:101E50000C5C0040838000004C5C0040044A116828
:101E600080231B020B431360012383707047C0461D
:101E7000585C004010B5074B1868FF2808D0064B87
:101E80001A68064B9B6806499847024BFF221A6066
:101E9000002010BD28000020B43200204C0000209B
:101EA0006432002043230B8000487047283100082B
:101EB00010B50400C02300228121FFF775FD8023A7
:101EC0005B00002282212000FFF76EFD88235B006B
:101ED000002203212000FFF767FD02234022812119
:101EE0002000FFF77FFD0223402203212000FFF79F
:101EF00079FD0323082282212000FFF773FD054BA3
:101F00001B6898474023044A03212000FFF756FE30
:101F1000002010BD4C0000207032002070B504007D
:101F20000B008900C918C9004118D0310988064D35
:101F3000064B1B692800984740232A0003212000F4
:101F4000FFF73CFE002070BD703200204C000020E6
:101F500010B504008121FFF7E0FD03212000FFF709
:101F6000DCFD82212000FFF7D8FD024B5B6898471B
:101F7000002010BD4C00002070B505000C00097851
:101F800060230B402BD0202B24D1E288002A07D1DC
:101F900060782B4B9B6800220021984700201DE0B1
:101FA00049B200290CDA274E6078254B9B68310036
:101FB0009847E2883100280000F07BFC00200DE00B
:101FC0006178214B1960214B1A601E4900F085FC95
:101FD000002003E0210000F01DFB022070BD6378AB
:101FE0000A2B1AD00B2B1ED00020062BF6D16388AB
:101FF0001B0A212B07D0164909313A22280000F08C
:1020000058FC0020EAE7E3881A1C9BB23A2B00D95F
:102010003A2292B20E491231F0E701220D4900F046
:1020200048FC0020DAE7A378002B04D1094B0022FA
:102030001A600020D2E7210000F0ECFA0020CDE782
:102040004C0000206432002028000020B432002020
:1020500028310008B832002070B5254B1B78002BC2
:1020600031D0244B1B68002B0FD1234B1B78002B46
:1020700003D11F4B00221A7025E01F4B00221A705B
:1020800000238121FFF7F0FD1DE01C4B1A68194B5E
:102090001B68402B1ED817490D682B041B0C174ECC
:1020A0003468E41834600C68E41A0C60096800298C
:1020B00002D1ADB2402D09D01204120C10495218B1
:1020C0008121FFF7D1FD002070BD40230A49012482
:1020D0000C70F1E709490B6840330B60054B196838
:1020E000403919601B68002BEFD04023E4E7C0465D
:1020F000B03200205C3200206032002058320020D4
:102100005422002070B5374B1B685A1C012B03D09A
:10211000344B1A60002070BD324B00221A60324BE3
:102120001B78002BF6D1314B1A6880235B019A4251
:1021300034D02E4B1A682E4B1B689A4232D02B4B50
:102140001A682B4B1B689A4232D9284B1A68802395
:102150005B019B1A274A1360244B1A68254B1B68A6
:10216000402B32D823490D682B041B0C1F4E3468BA
:10217000E41834600C68E41A0C600968002902D184
:10218000ADB2402D1DD0184901240C701204120C60
:10219000194952188121FFF767FDBBE7134B002255
:1021A0001A60C6E70023114A1360114A1360B1E7B1
:1021B0000F4B1B680D4A12689B1A0E4A1360CBE73F
:1021C00040230E4901240C70DDE708490B684033B9
:1021D0000B60084B1968403919601B68002BEFD061
:1021E0004023D0E76C320020B0320020583200206B
:1021F000543200205C320020542200206032002043
:1022000030B583B005000C004B78092B00D938E1BC
:102210009B009F4AD3589F464A88130A99B20729C0
:1022200072D89B009B49CB589F46007BB0235B0034
:10223000EB581B6801A99847E388402B17D11A0077
:10224000383B191C934200D9111C8AB201AB19808A
:102250000100280000F02DFB17E1007BAC235B00A0
:10226000EB581B6A01A99847B2235B00E85001AB09
:102270001B88002B00D108E1E288002A00D104E18C
:10228000DFE7D3B2052B33D89A00834B9B589F4688
:10229000007BB0235B00EB585B6801A99847E6E739
:1022A000007BB0235B00EB589B6801A99847DEE7F1
:1022B000007BB0235B00EB58DB6801A99847D6E7A9
:1022C000007BB0235B00EB581B6901A99847CEE760
:1022D000007BB0235B00EB585B6901A99847C6E718
:1022E000007BB0235B00EB589B6901A99847BEE7D0
:1022F0000021FFF71BFDC8E00021FFF717FDC4E038
:102300000021FFF713FDC0E000212800FFF70EFDBC
:10231000BBE08B88002B19D1CB88002B16D183789A
:10232000032B0CD04B887F241C4004715B4B1C603A
:1023300000F0E9FA002C06D00223AB70A5E00021E2
:10234000FFF7F4FCA1E00123AB709EE00021280020
:10235000FFF7ECFC99E08B78514A1370012B08D8F9
:102360008278022A09D0032A16D00021FFF7DEFC6A
:102370008BE00021FFF7DAFC87E0002B09D0037027
:1023800003228270190000F07EFA280000F0BBFAE8
:102390007BE000F0B8FA78E0002B0ED001788B4299
:1023A00016D000F07EFA3E4B19782970280000F014
:1023B0006AFA280000F0A7FA67E00233837000236E
:1023C0000370002100F06DFA280000F09CFA5CE038
:1023D00000F099FA59E000230193CB88012B08D132
:1023E0008378022B09D0032B0CD00021FFF79EFC31
:1023F0004BE00021FFF79AFC47E0012201A900F021
:1024000058FA42E00122010000F053FA3DE00023B7
:1024100001938378023B012B0CD80123019383683D
:10242000002B01D003230193022201A9280000F010
:1024300040FA2AE00021FFF779FC26E04B88012BC7
:1024400023D183605833FF33C3589B6898472800D3
:1024500000F059FA19E08378023B012B0DD84B8824
:10246000012B12D1002383605933FF33C3589B687B
:102470009847280000F047FA07E00021FFF756FCD4
:1024800003E000212800FFF751FC002003B030BD1D
:102490006C31000894310008B4310008BC320020CF
:1024A000BF33002070B504000E008378032B16D1D3
:1024B0000B79012B0ED8AC235B00C3589B6898475F
:1024C0000500F388002B0ED100280CD1200000F06D
:1024D0001AFA08E00021FFF729FC002503E000219B
:1024E000FFF724FC0025280070BD30B583B005003F
:1024F0000C00002301938A88D1B26378012B25D088
:10250000002B43D0032B1ED18378022B05D0032B45
:1025100008D00021FFF70AFC15E04B0613D0FFF7A7
:1025200005FC10E06388002B03D14B0601D0FFF7B8
:10253000FDFBAC235B00EB589B682100280098470B
:10254000280000F0E0F9002003B030BD8378022BB2
:1025500005D0032B08D00021FFF7E8FBF3E74B067B
:10256000F1D0FFF7E3FBEEE76388002B03D14B06C6
:1025700001D0FFF715FCAC235B00EB589B682100F2
:1025800028009847280000F0BEF9DCE78378022B8A
:1025900005D0032B08D00021FFF7C8FBD3E74B067B
:1025A000D1D0FFF7C3FBCEE713060FD48B00591829
:1025B000C9004118BA310B78002B01D001230193D7
:1025C000022201A9280000F074F9BCE77F230B4028
:1025D0009900C918C90041188B7E002BF0D0012347
:1025E0000193EDE7037C0B70437C4B70C27C1202BD
:1025F000837C9B184B80427D1202037D9B188B804D
:10260000C27D1202837D9B189BB2CB80C3630123E2
:102610004370704710B50021FFF788FB10BD30B53F
:1026200000281FD00378002B07D0040000230133BB
:10263000DBB201342578002DF9D15B000233138021
:102640000B7003234B700478002C0BD0013B00254A
:1026500001305A1CD2B2CC540233DBB28D54047810
:10266000002CF5D130BD10B50400AE235B00C3587B
:102670001B699847E378A370002010BD10B58378DC
:10268000C370042383705933FF33C358DB68984702
:10269000002010BD10B5AC235B00C358DB69002BD4
:1026A00000D09847002010BD10B504004023002240
:1026B0000021FFF779F98023002280212000FFF715
:1026C00073F90023402200212000FFF78BF900233B
:1026D000402280212000FFF785F90123A370207B91
:1026E0005C33FF33E3585B689847002010BD10B59A
:1026F00082B004006946FFF775FF6B4619781F2307
:102700000B40012B10D0002B07D0022B11D07F23C0
:1027100099432000FFF70AFB03E069462000FFF71A
:102720006FFD002002B010BD69462000FFF7BAFE21
:10273000F7E769462000FFF7D8FEF2E770B504001E
:1027400000293CD14378022B0CD0042B41D1224BE1
:10275000196800293DD0C9B2FFF74CFB1E4B00227F
:102760001A6036E0426B456AAA421AD8866B290085
:10277000300000F0B3FB002904D1B54202D8E36B6E
:102780009E4215D3AC235B00E358DB68002B04D0DA
:10279000A278032A01D120009847200000F0BDF85C
:1027A00017E0521B426392B2816A00F08EF810E08B
:1027B0000022200000F089F80023E36309E0AC2345
:1027C0005B00C3585B69002B03D08278032A00D1D9
:1027D0009847002070BDC046BC32002010B50400F0
:1027E000002927D14378032B01D0002010BD02001F
:1027F000B832D369D26893420DD8AC235B00C3587A
:102800001B69002B03D08278032A00D1984720004F
:1028100000F079F8E9E79B1A0100B831CB619A42E0
:1028200000D91A0092B22300B8331969200000F0D1
:1028300062F8DAE7AC235B00C3589B69002BD4D065
:102840008278032AD1D19847CFE7F8B504000E006B
:1028500015001F0000F070F8AC235B00E550AE25BA
:102860006D0067510833E65000F046F92000FFF78D
:102870007FF863591B689847200000F085F8200016
:10288000FFF7ECFAF8BD10B50400AC235B00C358A9
:102890001B689847AE235B00E3589B68984700206D
:1028A00010BD10B5AC235B00C3585B68984700208F
:1028B00010BD10B5130082634263022242700A0009
:1028C0000021FFF7D1F9002010BD10B513000A0058
:1028D0000021FFF7C9F9002010BD10B51300D82260
:1028E0008350043A8350D13A42700A000021FFF726
:1028F00065F9002010BD10B513000A000021FFF794
:102900005DF9002010BD10B50423437000230022A0
:102910000021FFF7A9F9002010BD10B50523437071
:10292000002300220021FFF749F9002010BD10B557
:10293000FEF76EFD10BD0000104BD9698022120415
:102940000A43DA611A6B80218A431A63D9698022AB
:1029500012050A43DA610A4B5A680A490A405A606A
:102960005968802292050A435A601A6840210A4336
:102970001A601A6820390A431A6070470010024032
:10298000006C0040FFFFFFCF064AC72080001358AD
:102990001B021B0A8021C9050B43135080231B0611
:1029A0001360704700E100E000207047002070478E
:1029B00000207047F0B5DE4657464E464546E0B526
:1029C0008146002926D0144B1B689846002000261B
:1029D000124B9C46124F0025124B9B46E246634623
:1029E0001C68631C2A009F426A415242134098456A
:1029F0000AD0013080B24A46925D5E463255524658
:102A0000136006008842EAD33CBC90469946A24631
:102A1000AB46F0BD0020F7E75832002054320020CA
:102A2000FF0F00005422002010B5FDF747FE10BD37
:102A300012230B8000487047CC31000804230B8020
:102A400000487047E03100081A230B8000487047A7
:102A50006000002010B5002A14D00B00013AD2B259
:102A6000520002315118002406E037321A7000017A
:102A70005C7002338B4205D0020F092AF5D8303240
:102A80001A70F4E710BD000010B50A00034C2100D5
:102A90000348FFF7C4FD200010BDC046C03200202F
:102AA0001432000810B50A00034C21000348FFF758
:102AB000B6FD200010BDC046C03200200032000824
:102AC00010B50A00034C21000348FFF7A8FD2000C1
:102AD00010BDC046C0320020E431000810B50A0025
:102AE000034C21000348FFF79AFD200010BDC046AB
:102AF000C0320020F031000870B50B4B18680B4B4A
:102B00001B68C018002800D170BD094B1D68094C16
:102B1000A11C0822FFF79EFF210012310422280089
:102B2000FFF798FFF0E7C046ACF7FF1FB4F7FF1FB1
:102B3000B0F7FF1F60000020054A13689BB2082110
:102B40000B43136013689BB204210B43136070475F
:102B5000405C0040044B1A6804490A401A60BF22D6
:102B600012021A607047C046405C0040FBFF000044
:102B700010B5072801D02C4B18702B4B1B78DBB2FB
:102B8000052B4CD89B00294AD3589F46284B1B68DD
:102B9000002B03D0244B05221A700DE0FFF7DAFF5B
:102BA000214B06221A7007E0FFF7D4FF1E4B0422C8
:102BB0001A701F4B033A1A6010BD1B4B02225A7049
:102BC00001321A70F8E7184A5378013BDBB25370B0
:102BD0005378002BF0D1130004221A70ECE7154A49
:102BE00013689BB210210B4313600F4B05221A7020
:102BF00005325A70E0E70C4A5378013BDBB2537060
:102C00005378002BD8D10B4A13680B490B40136043
:102C1000054B06221A70064B00221A60CCE7024BC5
:102C200006221A70C8E7C046C033002038320008B8
:102C3000C4330020405C0040EFFF00007047704745
:102C4000704770477047000003688022D2059342A6
:102C50001ED0364A93423AD0354A93423DD0354A47
:102C6000934240D0344A934243D0344A934247D0AF
:102C7000334A93424BD0334A93424FD0324A934225
:102C80000BD1324A91698023DB020B43936104E04C
:102C90002E4AD36901210B43D3618388013B9BB248
:102CA0000268138502688368013BD36203680022CF
:102CB0005A6201230268938202680121138A0B423F
:102CC000FCD000231382036801221A8070471F4A38
:102CD000D36902210B43D361DFE71C4AD36910217A
:102CE0000B43D361D9E7194AD36920210B43D36140
:102CF000D3E7164AD16980235B000B43D361CCE74D
:102D0000124A916980231B010B439361C5E70F4A67
:102D1000916980235B020B439361BEE70B4A916983
:102D200080239B020B439361B7E7C0460004004039
:102D3000001000400014004000200040002C014022
:102D400000400140004401400048014000100240A2
:102D500010B50400FFF778FF002322681383226870
:102D60001384104AC52189005358FF2083437F38BC
:102D70000343535080235B0313600B4A5169802344
:102D8000DB020B435361094B1A6809490A401A6078
:102D90001968084A0A431A609A8A07490A409A82BF
:102DA00010BDC04600E100E00010024000040048F1
:102DB000CFFF0FFF10005000FBF3FFFF8368013BC4
:102DC000994200D919000268506A1B1A40188B42B8
:102DD00000D37047C81AFCE770B504000568FFF718
:102DE000EDFF68632268938902210B439381034BB3
:102DF0001A68596801238B40936170BDD433002059
:102E000070B504000568FFF7D9FFA86322689389AD
:102E100004210B439381034B1A68596801238B40AB
:102E2000936170BDE0330020002907D1074B1A6879
:102E3000596880235B028B4093617047034B1A688B
:102E4000596801238B409361F7E7C046C8330020DF
:102E5000124B1B8A9BB29A070ED5104A118A022088
:102E6000814311829189814391810D4A1168506893
:102E70008022520282408A615B070ED5074B1A8A74
:102E800004218A431A829A898A439A81054B1A68D7
:102E9000596880235B028B4093617047004001407A
:102EA000D4330020E0330020084B094919600B227D
:102EB0005A600A3A9A60074B19600A2058609A6073
:102EC000054B1960022159609A607047C833002091
:102ED00000040048D4330020E03300200A0010D062
:102EE0000300400800E052008242FCD9002000E0CC
:102EF0005208934200D39B1A40418A42F8D11900EC
:102F00007047002070470000030000207F2B04D88A
:102F1000024AD35C024A505C1840704750320008A5
:102F2000D03200080200613A0300192A00D8203B81
:102F3000180070470200413A0300192A00D82033D4
:102F400018007047030000207F2B04D8024AD35C8E
:102F5000024A505C1840704750320008D0320008D6
:102F60000200613A0300192A00D8203B180070477C
:102F70000200413A0300192A00D820331800704794
:102F80007F2902D80170012070472F204042FBE7C3
:102F900010B50024002A0AD00C787F2C09D800280C
:102FA00000D0048000221A605A60601E8441200014
:102FB00010BD2F246442FAE710B5034B5B689B6891
:102FC0001B68984710BDC046AC00002010B5042116
:102FD000FFF7F2FF10BD8446002A03D001700130D4
:102FE000013AFBD160467047411C02780130002A4B
:062FF000FBD1401A7047FE
:0C2FF800210C0008C10F0008A92E0008E1
:10300400560900081409000814090008DE0800081D
:103014001409000814090008140900081409000818
:10302400140900084E090008800A00081409000861
:10303400F00800081409000814090008660A0008CA
:103044007A090008660A000814090008CC08000878
:103054001409000814090008140900085C09000890
:1030640014090008140900081409000814090008C8
:1030740014090008140900081409000814090008B8
:1030840014090008140900081409000814090008A8
:103094001409000814090008140900081409000898
:1030A4001409000846090008F60A00081409000873
:1030B400140900081409000814090008480A000843
:1030C400C4090008480A000814090008B8080008E0
:1030D400C00900089C090008A0090008A809000804
:1030E400AC090008B0090008B4090008B8090008D0
:1030F400303132333435363738394142434445462A
:103104000D000000070000007653544D33320000D8
:103114005630313032000000463030007A00000072
:103124005A00000009024300020100C032090400F1
:103134000001020201000524001001052401000120
:10314400042402020524060001070582030800FF87
:1031540009040100020A0000000705030240000000
:1031640007058102400000000E24000856240008D0
:10317400822400083C24000882240008122300084A
:103184001822000882240008D623000856230008C9
:10319400082300082A2200085A2200088222000874
:1031A4000823000808230008F82200080023000868
:1031B40090220008A0220008B0220008C0220008C3
:1031C400D0220008E02200081201000200000040A2
:1031D40083044057000201020301000004030904B0
:1031E40056435020436F6E66696700005643502073
:1031F400496E7465726661636500000053544D69DD
:1032040063726F656C656374726F6E6963730000DB
:1032140053544D3332205669727475616C20436F78
:103224006D506F727420696E204653204D6F646533
:10323400000000008C2B0008A82B0008BA2B000803
:10324400C62B0008DE2B0008F62B000820202020C7
:103254002020202020682828282820202020202002
:103264002020202020202020202020204810101062
:10327400101010101010101010101010848484847A
:10328400848484848484101010101010108181812F
:10329400818181010101010101010101010101019A
:1032A400010101010101011010101010108282822D
:1032B400828282020202020202020202020202026A
:1032C4000202020202020210101010200007032062
:1032D40004170201085710408000000084340008DD
:1032E400483300085C34000853756E004D6F6E005F
:1032F400547565005765640054687500467269002A
:1033040053617400000000004A616E00466562006B
:103314004D617200417072004D6179004A756E0012
:103324004A756C0041756700536570004F63740003
:103334004E6F76004465630000000000414D00506C
:103344004D000000803400087C3400087C34000800
:103354007C3400087C3400087C3400087C34000889
:103364007C3400087C3400087C340008FFFFFFFF35
:10337400FFFFFFFFFFFFFFFFFFFF0000BC3300085C
:10338400EC320008F83300080C330008403300081E
:10339400A033000850340008AC330008256D2F25F5
:1033A400642F257900000000256120256220256511
:1033B400202554202559000053756E646179004D11
:1033C4006F6E646179005475657364617900576543
:1033D400646E6573646179005468757273646179AD
:1033E400004672696461790053617475726461792D
:1033F400000000004A616E75617279004665627270
:1034040075617279004D6172636800417072696C14
:10341400004D6179004A756E65004A756C7900410A
:1034240075677573740053657074656D62657200B9
:103434004F63746F626572004E6F76656D6265727C
:1034440000446563656D62657200000025483A2595
:103454004D3A255300000000092F0008252F0008CD
:10346400352F0008452F0008612F0008712F000830
:10347400812F0008912F0008000000002E0000009A
:0C34840043000000504F53495800000066
:1034900002006700B11E0008511F0008791F0008D4
:1034A00000000000751E0008592000081D1F0008BC
:1034B00005210008A51E0008FF000000DD27000808
:1034C0003D270008EF26000895260008A9260008D9
:1034D0007D260008672600082C000020A929000886
:1034E000AD290008B1290008B5290008292A0008DB
:1034F0001A030000000000000000000000000000AF
:10350000000000000000000000000000312A000858
:103510003D2A0008A52A0008892A0008492A00082F
:10352000C12A0008DD2A00083D2C00083F2C0008B5
:10353000412C0008432C0008452C0008E03200080C
:10354000E0320008E0320008E0320008E032000813
:040000050800033DAF
:00000001FF
