:020000040800F2
:10000000004000203D03000861030008630300086E
:1000100000000000000000000000000000000000E0
:100020000000000000000000000000006503000860
:1000300000000000000000006703000869030008DA
:100040006D0300086F0300087103000873030008C4
:100050007503000877030008790300087B03000894
:100060007D0300087F030008810300088303000864
:100070008503000887030008890300088B03000834
:100080008D0300088F030008910300089303000804
:10009000292C000897030008990300089B03000817
:1000A0009D0300089F030008A1030008A3030008A4
:1000B000A5030008A70300089D0D000831270008CC
:1000C00082B0404B1A6801210A431A6058683E4AC0
:1000D00002405A6018683D4A02401A6018683C4A5B
:1000E00002401A6058683B4A02405A60DA6A0F20A0
:1000F0008243DA62186B384A02401A635A6B8A43A9
:100100005A6300229A60009201921A688021490283
:100110000A431A60190080229202A020C0010B68D5
:1001200013400193009B01330093019B002B02D1EC
:10013000009B8342F3D1234B1B689B0302D5012311
:10014000019301E0002301931122244B1A601D4BFF
:100150005A685A605A685A60019B012B0AD1194BA0
:1001600059681F4A0A405A605A68982149030A434D
:100170005A6009E0134B5968194A0A405A605A6894
:10018000A02189030A435A600E4A1368802149045A
:100190000B4313601100802292040B681342FCD0C1
:1001A000084B5A6803218A435A60596802220A435D
:1001B0005A6019000C224B681340082BFBD102B087
:1001C0007047C046001002400CB8FF08FFFFF6FE63
:1001D000FFFFFBFFFFFFC0FFACFEFFFF0020024060
:1001E000FF7FC0FF354936480A1A02D007229143E3
:1001F0008D46344934480A1A06D00722914381F3C8
:100200000988022282F3148830483149314A00F0CB
:1002100043F831483149324A00F03EF8314832491A
:10022000324A00F039F832483249334A00F034F8A3
:1002300032483349334A00F02FF833483349344ABF
:1002400000F02AF833483449344A00F025F834489D
:100250003449002200F02BF833483449002200F0E2
:1002600026F833483349091A082903DB00220260C3
:10027000043001601F482049884205D002680430DC
:1002800003B4904703BCF7E700208646EC46002005
:100290000021294A9047FEE7884207D0521A05D02C
:1002A000037801300B700131013AF9D1704788426F
:1002B00002D002700130FAE77047000000400020D1
:1002C000003E002000400020004000205433000881
:1002D00000000020C0000020AC030008AC030008B0
:1002E000F42D000854330008000000200000002016
:1002F000F42D0008F42D0008002E0008F42D00084D
:10030000F42D0008F42D0008002E0008002E00082F
:100310005433000814340008C0000020C00000203E
:10032000C0000020F0330020F0330020F033002024
:10033000F0330020F033002095070008044807211F
:10034000884385460348804703480449016049E7DC
:1003500000400020C100000808ED00E00000000897
:10036000FEE7FEE7FEE7FEE7FEE7FEE7FEE7FEE765
:10037000FEE7FEE7FEE7FEE7FEE7FEE7FEE7FEE755
:10038000FEE7FEE7FEE7FEE7FEE7FEE7FEE7FEE745
:10039000FEE7FEE7FEE7FEE7FEE7FEE7FEE7FEE735
:0C03A000FEE7FEE7FEE7FEE7FEE7FEE7F3
:1003AC00F0B54F464646C0B489B00400837C002BA0
:1003BC0058D0C27C5223002A00D102336A461370F3
:1003CC0023681A0F11005731092A01D83032110055
:1003DC006A4651701A01120F11005731092A01D8BF
:1003EC00303211006A4691701A02120F1100573107
:1003FC00092A01D8303211006A46D1701A03120F43
:10040C0011005731092A01D8303211006A46117196
:10041C001A04120F11005731092A01D83032110079
:10042C006A4651711A05120F11005731092A01D869
:10043C00303211006A4691711A06120F11005731B1
:10044C00092A01D8303211006A46D1710F221340AB
:10045C001A005732092B01D830331A006B461A7226
:10046C00092226E0C27C7223002A00D102336A469C
:10047C00137023681A05120F11005731092A01D87D
:10048C00303211006A4651701A06120F11005731A2
:10049C00092A01D8303211006A4691700F2213409C
:1004AC001A005732092B01D830331A006B46DA7018
:1004BC000422531C9946636898460F2341460B400F
:1004CC0019005731092B01D8303319006B46995458
:1004DC00E37C002B1BD14346002B18D0200049464F
:1004EC006944A446C4440F27037A1A113A401600F3
:1004FC005736092A01D8303216000D000E703B40D9
:10050C001A005732092B5DD830331A005AE000F02C
:10051C00F3FB002830D04B46581C238A1A0B1100D1
:10052C005731092A01D8303211006A464C46115510
:10053C0002341A05120F11005731092A01D8303232
:10054C0011006A4611544A46D01C1A06120F1100AB
:10055C005731092A01D8303211006A46115504224C
:10056C009446E1440B3213401A005732092B01D840
:10057C0030331A006B461A544B465E1C0D236A46E8
:10058C0049465354002E26D0154B164A9D58043A12
:10059C009958002400221F0001204B1C1B051B0D29
:1005AC00AB4204D06946895CF9541900040001324D
:1005BC00D2B29642F1D8002C0DD080235B01084AB0
:1005CC00D15008E06A700130023160458CD143464D
:1005DC005B0099449BE709B00CBC90469946F0BD72
:1005EC00C000002004100000F0B50C4B0C4AD7588A
:1005FC00020041180A4880246401050000E0013221
:10060C008A4209D0035901331B051B0DBB42F6D09E
:10061C001678EE542B51F2E70020F0BD04100000C8
:10062C0030120020F0B557464E464546E0B486B031
:10063C0000230193542800D197E00300523B5A4207
:10064C00534101AA13740123722803D05238434238
:10065C004341DBB201AC63740822002103A802F011
:10066C00B1FB237C0024002B00D1053400239846D9
:10067C00434B9946434E1D0080235B014A46D2589A
:10068C004B469B599A42FDD001331B051B0DEF5C69
:10069C00AB510D2F67D0072C1BD8019B1B019A4621
:1006AC00380002F079FB002803D03B00303BDBB272
:1006BC000BE0380002F076FBFF23002805D0380051
:1006CC0002F076FB0300573BDBB252461343019317
:1006DC0043E0082C19D8380002F05EFB002803D048
:1006EC003B00303BDBB20AE0380002F05BFBFF233F
:1006FC00002804D0380002F05BFB5738C3B201AAC3
:10070C000293137C002B28D029E043465B089A46C1
:10071C0001AB53441A7A12011A72380002F03CFBF6
:10072C00002803D03A00303AD1B20AE0380002F087
:10073C0039FBFF21002804D0380002F039FB573870
:10074C00C1B201AB53441A7A0A431A7201239C4674
:10075C00E044029B5B00984501D201348CE701A870
:10076C0000F0D0FA05E0012003E0012201AB1A747D
:10077C006CE706B01CBC90469946A246F0BDC0463C
:10078C003012002004100000F0B55F4656464D466E
:10079C004446F0B483B0A34A53698021C9020B4389
:1007AC005361A14B1968A14A0A401A601A6880214A
:1007BC0049030A431A6000F081F99D4800F0DEFA03
:1007CC009C4B9D4A9D499E4801F03AFF9D4B984693
:1007DC0080277F019C4D4346D9595B598B4200D1F0
:1007EC0000E101331B051B0D964AD05C53510200EE
:1007FC00433AD4B2332C00D9EAE0A200934CA2586D
:10080C009746934C200002F0E7FA0100200001F01B
:10081C00CBFF02E18F4C200002F0DEFA0100200039
:10082C0001F0C2FFF9E08C4C200002F0D5FA010077
:10083C00200001F0B9FFF0E0002000F0E3F9C3E084
:10084C00012000F0DFF9BFE0022000F0DBF9BBE093
:10085C0000F030FAB8E09942FDD001331B051B0DB6
:10086C00784AD05C53513038431E9841C0B200F0E6
:10087C003DFAA9E09942FDD001331B051B0D7149CE
:10088C00CA5C4B511300303BDAB2072A11D89300E3
:10089C00724AD3589F4672480EE072480CE0724878
:1008AC000AE0724808E0724806E0724804E07248B8
:1008BC0002E0724800E0724800F0A0F984E0FFF713
:1008CC00B1FE002800D0AAE06E4C200002F084FAA1
:1008DC000100200001F068FF9FE0FFF7A3FE002855
:1008EC0000D09CE0684C200002F076FA0100200059
:1008FC0001F05AFF91E0002408239946514EB2466C
:10090C007359F2599A42FBD001331B051B0D524609
:10091C00D25C934652465351584602F03DFA002899
:10092C0003D05B46303BDBB20BE0584602F03AFAA0
:10093C00FF23002805D0584602F03AFA0300573B33
:10094C00DBB224011C435B460D2B05D04B46013B0F
:10095C00DBB29946002BD3D1200000F00DF933E027
:10096C00002408239946374EB2467359F2599A42DD
:10097C00FBD001331B051B0D5246D25C93465246ED
:10098C005351584602F008FA002803D05B46303B1E
:10099C00DBB20BE0584602F005FAFF23002805D025
:1009AC00584602F005FA0300573BDBB224011C4306
:1009BC005B460D2B05D04B46013BDBB29946002B19
:1009CC00D3D1200000F0C4F8002803D02F4C02E053
:1009DC002F4C00E02E4C200002F0FEF9010020000C
:1009EC0001F0E2FE2B4BDA595B599A4200D1F2E648
:1009FC006946CC1D274E9A4205D001331B051B0DB1
:100A0C00F25C227073510121200001F0CDFE214BCC
:100A1C00DA595B599A42EED1DDE61D4CDBE71B4CF3
:100A2C00D9E7C0460010024000040048FFFFCFFF8A
:100A3C00AD03000898000020080000206000002092
:100A4C00C81000203012002004100000002E0008F6
:100A5C00F82E0008002F0008082F0008D02E0008E0
:100A6C00950067003B0067001D00670017006700DA
:100A7C000B006700050067000400450002006700DA
:100A8C002B0167000C2F0008102F0008F42E000813
:100A9C00F02E0008C00000200549802040010023F2
:100AAC000B50044A8B5004490B508B507047C04676
:100ABC003012002004100000C000002010B51F4AA6
:100ACC0053698021C9020B4353611D4B18681D49A2
:100ADC00014019601968A020000301431960596A8C
:100AEC00FF2081435962586A442101435962D369FA
:100AFC00802189040B43D361134B196842220A43AA
:100B0C001A608022920098580121084398500020C6
:100B1C008124A40018510834195108341851083490
:100B2C00195124341851043418519858884398504A
:100B3C00064801F0F3FF002010BDC0460010024033
:100B4C0000040048FFFFF0FF006400404422002036
:100B5C0010B5084B802292009958012421439950DA
:100B6C00C0439121890058509958A14399500020B5
:100B7C0010BDC0460064004010B5074B80229200A7
:100B8C009958012421439950902189005850995823
:100B9C00A1439950002010BD006400401249134A33
:100BAC000B681A40124B184010430860114B1B780D
:100BBC00002B16D0104A116801230B43136011004F
:100BCC0001224B681A42FCD0074B1A680A4BDA61B7
:100BDC001A6801218A431A60190001224B681A42D3
:100BEC00FCD100207047C0460000002000FC80FCB7
:100BFC00FF037F03402200200064004010B5FFF784
:100C0C00CDFF10BD10B5254A116801230B431360AD
:100C1C00110001224B681A42FCD0214B1B689B002F
:100C2C009B08012804D0022808D01D4A13600AE052
:100C3C008022D20513431A4A136004E08022120664
:100C4C001343174A1360164B1A68144BDA611A686F
:100C5C0001218A431A60190001224B681A42FCD107
:100C6C000E4B196802229143196059690A435A6163
:100C7C000C4AC721890050580B4B03408020C003FD
:100C8C00034353508023DB0513600122074B1A707A
:100C9C000121074801F0AEFF002010BD00640040A8
:100CAC000000002000E100E0FFFF00FF40220020D8
:100CBC004422002010B5094A116802230B4313602B
:100CCC008021C9058023064AD1500022054B1A7099
:100CDC000021054801F08EFF002010BD006400408B
:100CEC0000E100E04022002044220020014B18705B
:100CFC000020704738220020014B18787047C046FE
:100D0C003822002010B51B4B9B689B019B0F032BBB
:100D1C0026D01B01174A9918C222520044688C50E5
:100D2C000B000A008932FF32846814608D33FF3364
:100D3C00C2681A600368027C002A13D115E01343C1
:100D4C00427C501E82415200012003431343C022B7
:100D5C0052008B500521084801F038FF002007E0B5
:100D6C00012005E0DB000422E9E75B050022E6E751
:100D7C0010BDC0460064004044220020002803D06F
:100D8C00024B1860002000E0012070473C2200203C
:100D9C0030B587B0224B1B68002B3ED0214BDB6853
:100DAC009B0726D139E0152101ACCA4001921D4B9D
:100DBC00D82252009A589207D20FE274DA225200CB
:100DCC009A580F210A400292DC2252009A58039240
:100DDC00DE2252009A580492D96820220A43DA6023
:100DEC000521114801F0DEFE0D4B1B6820009847D1
:100DFC0013E00D4B1B685B6A01A803820949D822DA
:100E0C0052008B58042423401C00651EAC41847492
:100E1C008A580321002BC7D1C5E707B030BDC046A7
:100E2C003C2200200064004044220020034B044A72
:100E3C001A60044A9A80044A9A607047442200203F
:100E4C000040014080BBFFFF60EA0000F0B5474660
:100E5C0080B482B0002201AB1A80CA4D1023984690
:100E6C00A844EFE16B46DC880F231C4000D08AE0DD
:100E7C006B4606331B88DB0614D4C34A1168C34B7C
:100E8C000B401360BF4C207E00F092FB2063A36AE2
:100E9C009C466044A062BE4B1B685B68002120002E
:100EAC009847CFE1B84B1B689BB201AA13801388FB
:100EBC001B0516D5B823E85C00F08CFB0200D02390
:100ECC00E850143BE95A404600F06EFCAE4A1168FB
:100EDC00B04B0B401360AE4B1B689B6828009847C7
:100EEC00B0E101AB1B881BB2002B00DBAAE1A64AC8
:100EFC001168A84B0B401360A24CB823E05C00F0C7
:100F0C0069FBD023E05000280DD09E4C143BE15AD5
:100F1C00C8260200A05900F047FCD023E358A25980
:100F2C0094466344A351974C994B1B681B68002152
:100F3C0020009847984B1B681B041B0C974A94463F
:100F4C006344C422A1583E290AD94A0992B2C9065F
:100F5C0001D1013A92B2920291490A431A8007E0F8
:100F6C004A0892B2C90701D5013292B292021A8094
:100F7C0085490A688B4B1340C022920153408A4A20
:100F8C0013430B605EE1A3007F4A9E1833689BB24B
:100F9C0001AA138013881BB2002B00DB9FE0326880
:100FAC007C4B13403360A3001B19DB00754AD3182C
:100FBC00C2331B78002B18D1A3001B19DB00D318EC
:100FCC00B833187800F006FB071E56D0A3001B1987
:100FDC00DB006C4AD3181A00BC321188C8331B686A
:100FEC000200180000F0E0FB47E0A3001B19DB0037
:100FFC00644AD318B833187800F0D6F9430419D5DD
:10100C00A3001B19DB005F4AD318B833187800F023
:10101C006FFB071E27D0A3001B19DB00594AD318FE
:10102C001A00BE321188C8331B680200180000F089
:10103C00BBFB18E0A3001B19DB00524AD318B833D2
:10104C00187800F067FB071E0DD0A3001B19DB00FE
:10105C004C4AD3181A00C0321188C8331B680200DE
:10106C00180000F0A1FBA3001B19DB00454AD318A4
:10107C00B8331878002100F05FFB3900A3001B196E
:10108C00DB00404AD3181800D0300268D219026035
:10109C0008380268D2190260CC331B68002B08D0C8
:1010AC00A0000019C000374F3818C43000688142C6
:1010BC000BD23448A3001B19DB00C318B8331978C2
:1010CC00334B1B681B68984709E09BB22D48A10065
:1010DC000919C9004118B831097800F09FFC01AB1F
:1010EC001B881B0600D4ADE03268284B13403360DC
:1010FC00A3001B19DB00234A9446634422331B785C
:10110C00002B19D1A3001B19DB00D618307E00F080
:10111C004FFA306300286CD01A4AA3001B19DB006D
:10112C00D318998B631C9E00F318DB009B580200AC
:10113C00180000F023FB5CE0A3001B19DB00114A34
:10114C00D318187E00F030F943062FD5A3001B19D5
:10115C00DB000C4AD618307E00F0CAFA3063002847
:10116C003ED0084AA3001B19DB00D318D98B631C93
:10117C009E00F318DB009B580200180000F0FEFAEA
:10118C002EE0C046C8100020005C00400F8F00000D
:10119C002C0000208F0F0000505C004006600040C7
:1011AC000080FFFF8FBF000080800000A3001B1990
:1011BC00DB002A4AD618307E00F0ACFA30630028E7
:1011CC000ED0264AA3001B19DB00D318198C631C04
:1011DC009E00F318DB009B580200180000F0CEFABA
:1011EC00A3001B19DB001D4AD318187E012100F047
:1011FC00A3FA1A4EA3001B19DB00F718387E00F077
:10120C00D7F93863631C9900CA18D2009259121886
:10121C00C818C000825133185B68002B0AD10F48E4
:10122C00A3001C19E4000419217E0D4B1B685B689C
:10123C00984707E00948A1000C19E4000419217E25
:10124C0000F042FC074B1B6899B26A46D1801B0424
:10125C0000D507E602B004BC9046F0BDC8100020D3
:10126C002C000020445C004010B582B06B4600227C
:10127C00DA80394A126892B2DA80DA88374B196808
:10128C0080231B020B401A4201D0FFF7DFFD6B4697
:10129C0006331B88314A126813405B050CD5304A63
:1012AC002D4B1A602F4C304B1B681B692000984744
:1012BC000021200000F0CEFC6B4606331B88274A29
:1012CC00126813409B0402D5284A234B1A606B46C4
:1012DC0006331B88214A12681340DB040AD5244AC2
:1012EC001D4B1A60204B1B689B691E4898470020B9
:1012FC0001F020FB6B4606331B88184A126813401A
:10130C001B0509D51B4A144B1A60174B1B685B69EC
:10131C001448984701F0F2FA6B4606331B880F4AC3
:10132C00126813409B0507D5134A0B4B1A600E4BE2
:10133C001B68DB680B4898476B4606331B88074ACB
:10134C0012681340DB0505D50C4A034B1A600720C5
:10135C0001F0F0FA02B010BD445C004050220020B5
:10136C00FFFB0000C81000202C000020FFDF000055
:10137C00FFEF0000FFF70000FFFD0000FFFE000084
:10138C00014B18607047C046405C0040014B186030
:10139C007047C046445C004007239843014B1860DB
:1013AC007047C046505C00408000034B9C46604434
:1013BC00006880B27047C046005C00400B008000A3
:1013CC00044A944660440168034A1140194389B2A7
:1013DC0001607047005C00408F89FFFF8000094B63
:1013EC009C4660440268084B1340CA0601D5102283
:1013FC0053408A0601D520225340044A134303600C
:10140C007047C046005C0040BF8F00008080000029
:10141C0080000A4B9C4660440268094B1340CA0486
:10142C0002D58022520153408A0402D580229201B7
:10143C005340044A134303607047C046005C0040AD
:10144C008FBF0000808000008000054B9C466044EC
:10145C000268044B1340044A134303607047C046B0
:10146C00005C00400F0E0000808100008000054BE6
:10147C009C4660440268044B1340044A13430360C7
:10148C007047C046005C00400F0F000080C0000099
:10149C008000054B9C4660440268044B1340044A90
:1014AC00134303607047C046005C00400F0F000000
:1014BC00C08000008000064B9C46604403685B04BF
:1014CC0005D50268034B1340034A1343036070476E
:1014DC00005C00400F0F000080C000008000064B35
:1014EC009C46604403685B0605D50268034B1340B9
:1014FC00034A134303607047005C00400F0F000069
:10150C00C0800000064B1B681B041B0CC000C018DD
:10151C00044B9C4660440123994301807047C046AC
:10152C00505C004000600040064B1B681B041B0C09
:10153C00C000C018044B9C466044012399430180B1
:10154C007047C046505C004004600040054B1B686F
:10155C001B041B0CC000C018034B9C46604401804C
:10156C007047C046505C0040026000400D4B1B6849
:10157C001B041B0CC00018180B4B9C4660443E29E6
:10158C0009D94B09CA0601D1013B9BB29B02074A00
:10159C001343038005E04B08CA0700D501339B02B7
:1015AC0003807047505C0040066000400080FFFFE5
:1015BC00064B1B681B041B0CC000C018044B9C463C
:1015CC00604400888005800D7047C046505C004028
:1015DC0002600040064B1B681B041B0CC000C018AB
:1015EC00044B9C46604400888005800D7047C046C3
:1015FC00505C00400660004030B50B4D2B68C000BD
:10160C001B041B0CC318094CA44663440124A143BE
:10161C0019802B681B041B0CC018054B9C4660449E
:10162C00A243028030BDC046505C004000600040C8
:10163C000460004010B5002931D1294B1B68C00053
:10164C001B041B0C1B1827498C4663443E2A14D9D7
:10165C005109D40601D1013989B28902224C2143A6
:10166C0019801F4B1B681B041B0C18181F4B9C4626
:10167C0060445309D20627D028E05108D40700D57E
:10168C00013189021980164B1B681B041B0C18189E
:10169C00164B9C4660445308D2071CD41DE001290C
:1016AC001DD10F490B68C0001B041B0CC3180D4C3B
:1016BC00A44663441A800B681B041B0CC0180B4B0C
:1016CC009C46604402800AE0013B9BB29B02064AA6
:1016DC001343038003E001339BB29B02038010BDD4
:1016EC00505C0040026000400080FFFF066000403C
:1016FC00064B1B681B041B0CC000C018044B9C46FB
:10170C00604400888005800D7047C046505C0040E6
:10171C0002600040064B1B681B041B0CC000C01869
:10172C00044B9C46604400888005800D7047C04681
:10173C00505C00400660004000290AD180000B4B31
:10174C009C46604402680A4B13400A4A13430360E8
:10175C000BE0012909D18000044B9C4660440268CF
:10176C00034B1340044A134303607047005C004072
:10177C000F0F0000C080000080C0000010B50132C7
:10178C005210084B9C466144002A09D043781B0236
:10179C00047823430B800230013A0231002AF5D140
:1017AC0010BDC0460060004001325210064B9C46F2
:1017BC006144002A06D00B8803800230013A0231C2
:1017CC00002AF8D17047C0460060004010B50123D4
:1017DC008370002202718260C3600120FFF7D0FD8C
:1017EC000020FFF7CDFD0020FFF7D0FD0020FFF714
:1017FC00D3FDBF200002024B1860FFF7C1FD10BDE6
:10180C005022002010B50C0607D57F2421408C00F7
:10181C006118C9001831411806E07F2421408C0062
:10182C006118C900B8314118002A02D18A728B8024
:10183C0004E001228A72CB801B0C0B81002010BDAE
:10184C0070B50C060CD57F260E40B500AC19E40023
:10185C0018340419AE19F6008019012545760CE0F0
:10186C007F250D40AE007419E400B83404197519C5
:10187C00ED004019B93000250570E260E3707F205F
:10188C000840207003D100226262E26122620022D1
:10189C0022616261A261A270012B14D0002B04D0D2
:1018AC00022B07D0032B09D011E080218900FFF710
:1018BC0085FD0CE00021FFF781FD08E0C021C90087
:1018CC00FFF77CFD03E08021C900FFF777FDA37AC9
:1018DC00002B1FD16378002B0BD0A1882078FFF749
:1018EC0011FE2078FFF7FAFD20782021FFF776FD16
:1018FC003FE0A1882078FFF717FEA1892078FFF739
:10190C0035FE2078FFF7D6FD2078C0218901FFF73E
:10191C007FFD2EE02078FFF797FD2289E188207863
:10192C00FFF76AFE6378002B12D12078FFF7C2FD17
:10193C002078FFF7D3FD2078FFF7AAFD2078C0218F
:10194C008901FFF765FD20780021FFF747FD10E0C6
:10195C002078FFF7AFFD2078FFF7C0FD2078FFF768
:10196C0085FD20780021FFF739FD20780021FFF755
:10197C004FFD002070BDC04610B54BB2002B07DAEE
:10198C007F2421408C006118C9001831441806E0EE
:10199C007F2421408C006118C900B8314418A37A07
:1019AC00002B12D16378002B07D02078FFF796FD1F
:1019BC0020780021FFF712FD2DE02078FFF77AFD4B
:1019CC0020780021FFF724FD25E06378002B11D14E
:1019DC002078FFF76FFD2078FFF780FD2078FFF768
:1019EC0057FD20780021FFF713FD20780021FFF729
:1019FC00F5FC10E02078FFF75DFD2078FFF76EFD19
:101A0C002078FFF733FD20780021FFF7E7FC2078E2
:101A1C000021FFF7FDFC002010BDC04670B582B060
:101A2C000500002001907F240C40A1000919C90079
:101A3C0069180E00C83632600A00CC3213600432CA
:101A4C001060C4310A68934209D901920199A2002D
:101A5C001219D200AA18CC325B1A136007E001935A
:101A6C00A3001B19DB00EB18CC3300221A60A30077
:101A7C001B19DB00EB18C2331B78002B0AD1019920
:101A8C0089B2A3001B19DB00EB18B8331878FFF7E9
:101A9C006DFD0CE0019A92B2A3001B19DB00EB1850
:101AAC001900B9310978B8331878FFF7C3FDA000D5
:101ABC000019C0002818B8300078C0218901FFF740
:101ACC00A7FC002002B070BDF0B583B0060000206A
:101ADC0001907F240C40A5002919C90071180C76BF
:101AEC000D008A62CB6208634A6A934204D9019260
:101AFC00019A9B1ACB6202E001930023CB62A300F4
:101B0C001B19DB00F31822331B78002B0FD1019A21
:101B1C0092B2A7003F19FF00F719B98BA86AFFF71B
:101B2C002DFE019989B2387EFFF710FD22E0019A53
:101B3C0092B2A7003F19FF00F719797E387EFFF7A4
:101B4C0079FD387EFFF730FC430601D5398C04E073
:101B5C00A3001B19DB00F318D98B019A92B2A86A67
:101B6C00FFF70CFEA3001B19DB00F318597E187E3F
:101B7C00FFF7E2FDA1000C19E4003419207E30219E
:101B8C00FFF72CFC002003B0F0BDC04610B54BB2E3
:101B9C00002B07DA7F2319408B005918C900183124
:101BAC00411804E08B005918C900B8314118087865
:101BBC0000280BD10E4A10680E4B03400E484340D0
:101BCC000E480343136001238B700EE04B78002BFF
:101BDC0005D001238B701021FFF700FC05E00123D9
:101BEC008B7080214901FFF713FC002010BDC0460B
:101BFC00005C0040BFBF000010100000808000009F
:101C0C0010B54BB2002B07DA7F2319408B00591803
:101C1C00C9001831441804E08B005918C900B831B8
:101C2C0044186378002B09D02078FFF757FC2078F4
:101C3C003021FFF7D3FB0023A37009E02078FFF7D6
:101C4C0039FC2078C0218901FFF7E2FB0023A37047
:101C5C00002010BDF0B501710024FF270A4E0B4D7A
:101C6C003800204082000A4B9C4662441368304383
:101C7C002B40034313600134042CF1D1802319430E
:101C8C00044B1960F0BDC046808000000F0F0000AF
:101C9C00005C00404C5C0040044A1368802109023F
:101CAC000B431360012383707047C046585C00409F
:101CBC0010B5074B1868FF2808D0064B1A68064B5E
:101CCC009B6806499847FF22014B1A60002010BD03
:101CDC0004000020A02200204C000020B422002090
:101CEC0043230B8000487047142F000810B50400E4
:101CFC00C02300228121FFF785FD80235B00002299
:101D0C0082212000FFF77EFD88235B000022032147
:101D1C002000FFF777FD0223402281212000FFF7EE
:101D2C008FFD0223402203212000FFF789FD0323AE
:101D3C00082282212000FFF783FD054B1B68984782
:101D4C004023044A03212000FFF768FE002010BD49
:101D5C004C0000206022002070B504008B00591844
:101D6C00C9004118D0310988064D074B1B69280062
:101D7C00984740232A0003212000FFF74FFE002044
:101D8C0070BDC046602200204C00002010B504003D
:101D9C008121FFF7F1FD03212000FFF7EDFD8221EA
:101DAC002000FFF7E9FD024B5B689847002010BD4F
:101DBC004C00002070B505000E000B7860241C4010
:101DCC002AD0202C24D1CA88002A19D05BB2002B2F
:101DDC000CDA284C4878284B9B6821009847F288ED
:101DEC002100280000F060FC002440E04978234BDF
:101DFC001960234B1A601F4900F06AFC002436E07E
:101E0C0048781D4B9B6800220021984700242EE047
:101E1C0000F0F8FA02242AE04B780A2B18D00B2B8E
:101E2C001BD0062B23D14B881B0A212B09D1CB8825
:101E3C001A1C9BB23A2B00D93A2292B21149123198
:101E4C0002E0104909313A22280000F02DFC0EE086
:101E5C0001220D4900F028FC09E08B78002B04D1FD
:101E6C000021094A11601C0001E000F0CBFA2000AF
:101E7C0070BDC046B42200204C000020040000209D
:101E8C00A0220020142F00085422002070B51A4BF9
:101E9C001B78012B2ED1194B196800290FD1184B27
:101EAC001B68012B07D10022154B1A6000238131CE
:101EBC00FFF70AFE1EE000220F4B1A701AE04029B1
:101ECC0009D9104C228823684033236040390B4BCE
:101EDC001960402309E00B4C22888BB22568AC4674
:101EEC0061442160002405490C6007498A1881214E
:101EFC00FFF7EAFD002070BD5C220020AC22002020
:101F0C00A4220020A8220020BC22002070B52D4B5A
:101F1C001B685A1C052B02D02A4B1A604FE000227A
:101F2C00284B1A60284B1B78012B48D0274B19687B
:101F3C0080235B01994207D1244B1A60244B1D6806
:101F4C00002D05D000210FE0214B1D68A94203D1C3
:101F5C0000221D4B1A7032E0A94205D980235B0187
:101F6C005B1A1C4A136002E06B1A1A4A1360194B75
:101F7C001C68402C09D98AB24031144B19602100DD
:101F8C004039144B1960402311E08AB2A3B2611896
:101F9C000E4C216000240F490C60402B02D10134FF
:101FAC000D490C60402D02D1002409490C6001241C
:101FBC0005490C7009498A188121FFF785FD00201D
:101FCC0070BDC046B02200205C220020A822002058
:101FDC0058220020AC220020A4220020BC22002089
:101FEC0030B583B005000C004B78092B00D93BE1D0
:101FFC009B00A14AD3589F464A88130A99B20729D5
:10200C005ED89B009D49CB589F46007BB0235B005C
:10201C00EB581B6801A99847E388402B55D11A004F
:10202C00383B5BE0007BAC235B00EB581B6A01A9DF
:10203C009847B2235B00E85047E0D3B2052B33D866
:10204C009A008F4B9B589F46007BB0235B00EB584C
:10205C005B6801A9984738E0007BB0235B00EB5824
:10206C009B6801A9984730E0007BB0235B00EB58DC
:10207C00DB6801A9984728E0007BB0235B00EB5894
:10208C001B6901A9984720E0007BB0235B00EB584B
:10209C005B6901A9984718E0007BB0235B00EB5803
:1020AC009B6901A9984710E00021FFF76FFDDFE065
:1020BC000021FFF76BFDDBE00021FFF767FDD7E0A8
:1020CC0000212800FFF762FDD2E001AB1B88002B3A
:1020DC0000D1CDE0E288002A00D1C9E0111C9A425F
:1020EC0000D9191C8AB201AB19800100280000F03C
:1020FC00DBFABDE08B88002B19D1CB88002B16D1D5
:10210C004B887F241C408378032B03D10021FFF7DD
:10211C003DFDADE004715B4B1C6000F0EFFA002C50
:10212C0002D00223AB70A3E00123AB70A0E000212E
:10213C002800FFF72BFD9BE08B78534A1370012B83
:10214C0003D90021FFF722FD92E08278022A02D007
:10215C00032A0FD02DE0002B09D0037003228270CC
:10216C00190000F08BFA280000F0C8FA80E000F0AB
:10217C00C5FA7DE0002B0AD1023383700023037073
:10218C00002100F089FA280000F0B8FA70E001781C
:10219C008B420BD000F080FA3B4B19782970280049
:1021AC0000F06CFA280000F0A9FA61E000F0A6FA41
:1021BC005EE00021FFF7EAFC5AE000230193CB8894
:1021CC00012B03D00021FFF7E1FC51E08378022BB7
:1021DC0002D0032B05D009E0012201A900F064FA1A
:1021EC0046E00122010000F05FFA41E00021FFF718
:1021FC00CDFC3DE0002301938378023B012B0CD8EE
:10220C00012301938368002B01D003230193022245
:10221C0001A9280000F048FA2AE00021FFF7B6FCDB
:10222C0026E04B88012B23D183605833FF33C358EE
:10223C009B689847280000F061FA19E08378023B0C
:10224C00012B0DD84B88012B12D1002383605933FD
:10225C00FF33C3589B689847280000F04FFA07E0FB
:10226C000021FFF793FC03E000212800FFF78EFC10
:10227C00002003B030BDC046582F0008802F000846
:10228C00A02F0008C0330020BC32002070B5040021
:10229C000E008378032B16D10B79012B0ED8AC23AF
:1022AC005B00C3589B6898470500F388002B0ED140
:1022BC0000280CD1200000F021FA08E00021FFF7E3
:1022CC0065FC002503E00021FFF760FC00252800D9
:1022DC0070BDC04630B583B005000C0000230193DF
:1022EC008A88D1B26378012B24D0002B43D0032BE6
:1022FC006DD18378022B02D0032B05D016E04B0650
:10230C0065D0FFF743FC62E06388002B03D14B06DA
:10231C0001D0FFF73BFCAC235B00EB589B68210022
:10232C0028009847280000F0E9F950E00021FFF759
:10233C002DFC4CE08378022B02D0032B05D016E049
:10234C004B0644D0FFF722FC41E06388002B03D1FD
:10235C004B0601D0FFF754FCAC235B00EB589B6899
:10236C00210028009847280000F0C8F92FE0002130
:10237C00FFF70CFC2BE08378022B02D0032B05D04B
:10238C0022E04B0623D0FFF701FC20E013060BD50F
:10239C007F2319408B005918C90041188B7E002BE4
:1023AC000CD00123019309E08B005918C900411886
:1023BC00BA310B78002B01D001230193022201A921
:1023CC00280000F071F902E00021FFF7DFFB00208C
:1023DC0003B030BD037C0B70437C4B70C37C1B0281
:1023EC00827CD3184B80437D1B02027DD3188B80DB
:1023FC00C37D1B02827DD3189BB2CB80C3630123A8
:10240C004370704710B50021FFF7C0FB10BDC046EC
:10241C0030B5002821D00378002B08D0040000230D
:10242C000133DBB201342578002DF9D100E0002313
:10243C005B00023313800B7003234B700478002C69
:10244C000BD0013B00255A1CD2B20130CC540233C4
:10245C00DBB28D540478002CF5D130BD10B50400DE
:10246C00AE235B00C3581B699847E378A370002028
:10247C0010BDC04610B58378C370042383705933E4
:10248C00FF33C358DB689847002010BD10B5AC2350
:10249C005B00C358DB69002B00D09847002010BDAF
:1024AC0010B50400402300220021FFF7ABF9802374
:1024BC00002280212000FFF7A5F9002340220021F3
:1024CC002000FFF7BDF90023402280212000FFF7F8
:1024DC00B7F90123A370207B5C33FF33E3585B68AF
:1024EC009847002010BDC04610B582B00400694664
:1024FC00FFF770FF6B4619781F230B40012B09D097
:10250C00002B02D0022B0AD00EE069462000FFF708
:10251C0067FD0EE069462000FFF7B8FE09E069464A
:10252C002000FFF7D7FE04E07F2399432000FFF73C
:10253C002DFB002002B010BD70B5040000293CD169
:10254C004378022B2CD1436B456AAB4206D95D1BF9
:10255C004563AAB2816A00F0B3F838E0866B2900B3
:10256C00300000F0A1FB00290BD1B54209D8E36B78
:10257C009E4206D20022200000F0A2F80023E36362
:10258C0025E0AC235B00E358DB68002B04D0A27879
:10259C00032A01D120009847200000F0B9F816E07A
:1025AC00042B14D10B4B1968002910D0C9B2FFF7BA
:1025BC0051FB0022074B1A6009E0AC235B00C358A7
:1025CC005B69002B03D08278032A00D19847002046
:1025DC0070BDC046C033002010B50400002923D1C3
:1025EC004378032B2AD10300B833D969DA689142B6
:1025FC000CD9891AD9618A4200D90A0092B22300F7
:10260C00B8331969200000F071F817E0AC235B00B7
:10261C00C3581B69002B03D08278032A00D198473A
:10262C00200000F06BF809E0AC235B00C3589B69F9
:10263C00002B03D08278032A00D19847002010BDCC
:10264C00F8B504000E0015001F0000F06FF8AC2365
:10265C005B00E550AE256D0067510833E65000F085
:10266C002FF92000FFF7B2F863591B689847200038
:10267C0000F084F82000FFF70FFBF8BD10B5040044
:10268C00AC235B00C3581B689847AE235B00E35830
:10269C009B689847002010BD10B5AC235B00C35855
:1026AC005B689847002010BD10B51300826342632D
:1026BC00022242700A000021FFF706FA002010BD2A
:1026CC0010B513000A000021FFF7FEF9002010BD21
:1026DC0010B51300D8228350043A8350D13A42707B
:1026EC000A000021FFF79AF9002010BD10B5130065
:1026FC000A000021FFF792F9002010BD10B5042349
:10270C004370002300220021FFF7DEF9002010BDEA
:10271C0010B505234370002300220021FFF77EF93A
:10272C00002010BD10B5FEF79FFD10BD104BDA69EF
:10273C00802109040A43DA611A6B80218A431A63E7
:10274C00DA69802109050A43DA610A4B59680A4A99
:10275C000A405A605A68802189050A435A601968F0
:10276C0040220A431A60196820220A431A607047F3
:10277C0000100240006C0040FFFFFFCF064AC7214B
:10278C00890053581B021B0A8020C0050343535079
:10279C0080231B061360704700E100E000207047A7
:1027AC000020704700207047F0B5474680B40029E0
:1027BC0017D0020041180D4E0D4D80204001B0463F
:1027CC0000239C46370033681478EC540133834261
:1027DC0001D03B6002E0434664461C6001328A42F1
:1027EC00F1D1002004BC9046F0BDC0465822002018
:1027FC00BC22002010B5FDF7F7FE10BD12230B8094
:10280C0000487047BC2F000804230B800048704719
:10281C00B82F00081A230B80004870477C0000205A
:10282C0010B5002A13D00B00013AD2B2013252007B
:10283C0089180024020F092A02D830321A7001E0DC
:10284C0037321A7000015C7002338B42F2D110BD2A
:10285C0010B50A00034C21000348FFF7D9FD2000F6
:10286C0010BDC046C0320020D02F000810B50A00A1
:10287C00034C21000348FFF7CBFD200010BDC046E0
:10288C00C0320020F42F000810B50A00034C2100C0
:10289C000348FFF7BDFD200010BDC046C03200202C
:1028AC000830000810B50A00034C21000348FFF75C
:1028BC00AFFD200010BDC046C0320020143000080F
:1028CC0070B50A4B18680A4B1B68C01800280CD04E
:1028DC00084B1D68084CA11C0822FFF7A1FF210022
:1028EC00123104222800FFF79BFF70BDACF7FF1FCD
:1028FC00B4F7FF1FB0F7FF1F7C000020054B1A68D0
:10290C0092B208210A431A601A6892B204390A4337
:10291C001A607047405C0040044B1968044A0A4036
:10292C001A60BF2212021A607047C046405C004019
:10293C00FBFF000010B5072801D02C4B18702B4B57
:10294C001B78DBB2052B4CD89B00294AD3589F46E9
:10295C00284B1B68002B05D1FFF7DEFF0622234B0B
:10296C001A7041E00522214B1A703DE0FFF7D4FFAD
:10297C0004221E4B1A70033A1E4B1A6034E01B4B98
:10298C0002225A7001321A702EE0184A5378013B19
:10299C00DBB253705378002B26D10422134B1A70E0
:1029AC0022E015490B689AB2102313430B600F4BAE
:1029BC0005221A7005325A7016E00C4A5378013B06
:1029CC00DBB253705378002B0ED10B4A11680B4BB2
:1029DC000B4013600622054B1A700022054B1A603F
:1029EC0002E00622014B1A7010BDC046C433002011
:1029FC0024300008C8330020405C0040EFFF00008A
:102A0C007047C0467047C0467047C0467047C046C6
:102A1C007047C04603688022D205934205D1364ADE
:102A2C00D16901230B43D3614BE0344A934205D166
:102A3C00314AD16902230B43D36142E0304A9342BD
:102A4C0005D12D4AD16910230B43D36139E02D4AAE
:102A5C00934205D1284AD16920230B43D36130E03E
:102A6C00294A934206D1244AD369802149000B4359
:102A7C00D36126E0254A934206D11F4A93698021EF
:102A8C0009010B4393611CE0214A934206D11A4A77
:102A9C009369802149020B43936112E01D4A9342D2
:102AAC0006D1154A9369802189020B43936108E092
:102ABC00194A934205D1104A93698021C9020B43EC
:102ACC0093618388013B9BB202681385026883681B
:102ADC00013BD362036800225A620123026893828D
:102AEC0002680121138A0B42FCD000231382036875
:102AFC0001221A807047C0460010024000040040BA
:102B0C00001000400014004000200040002C014048
:102B1C0000400140004401400048014010B5040051
:102B2C00FFF778FF00232268138322681384104B6D
:102B3C00C52080001A58FF218A437F390A431A5056
:102B4C00802252031A600B4A53698021C9020B433D
:102B5C005361094B1968094A0A401A601A680849F6
:102B6C000A431A60998A074A0A409A8210BDC046E5
:102B7C0000E100E00010024000040048CFFF0FFF0E
:102B8C0010005000FBF3FFFF8368013B994200D912
:102B9C0019000268506A1B1A40188B4200D2C81ADE
:102BAC007047C04670B504000568FFF7EDFF686319
:102BBC002268918902230B439381034B1A6859684D
:102BCC0001238B40936170BDCC33002070B50400A1
:102BDC000568FFF7D9FFA8632268918904230B438A
:102BEC009381034B1A68596801238B40936170BD24
:102BFC00E4330020002906D0074B1A6859680123DA
:102C0C008B40936106E0044B1A68596880235B0281
:102C1C008B4093617047C046D8330020124B1B8AFF
:102C2C009BB29A070ED5104A118A02208143118259
:102C3C009189814391810D4A11685068802252021A
:102C4C0082408A615B070ED5074B1A8A04218A439E
:102C5C001A829A898A439A81054B1A68596880238B
:102C6C005B028B409361704700400140CC330020E5
:102C7C00E4330020084B094919600B225A600A3AC8
:102C8C009A60074B19600A2058609A60054B1960CE
:102C9C00022159609A607047D83300200004004824
:102CAC00CC330020E43300200A0010D0030040088D
:102CBC0000E052008242FCD9002000E0520893420E
:102CCC0000D39B1A40418A42F8D11900704700206A
:102CDC007047C046030000207F2B04D8024AD35C07
:102CEC00024A505C18407047D43200086831000822
:102CFC000200613A0300192A00D8203B18007047E3
:102D0C000200413A0300192A00D8203318007047FA
:102D1C00030000207F2B04D8024AD35C024A505C8B
:102D2C0018407047D4320008683100080200613A3C
:102D3C000300192A00D8203B180070470200413AC2
:102D4C000300192A00D82033180070477F2902D8B5
:102D5C000170012001E02F204042704710B5002483
:102D6C00002A0DD00C787F2C08D8002800D00480C5
:102D7C0000221A605A60601E844101E02F246442D4
:102D8C00200010BD10B5034B5B689B681B6898470F
:102D9C0010BDC046AC00002010B50421FFF7F2FFB7
:102DAC0010BDC04610B50C21FFF7ECFF10BDC0469E
:102DBC0010B5034B5B689B689B68984710BDC04679
:102DCC00AC0000208446002A03D001700130013A87
:102DDC00FBD160467047C046411C02780130002A86
:082DEC00FBD1401A7047C046FC
:0C2DF400A50A0008390E0008812C000818
:102E00005C080008DC090008DC090008320800083A
:102E1000DC090008DC090008DC090008DC090008FE
:102E2000DC0900085408000802090008DC09000851
:102E300044080008DC090008DC090008E60800086E
:102E400080080008E6080008DC09000820080008DF
:102E5000DC090008DC090008DC0900086208000839
:102E6000DC090008DC090008DC090008DC090008AE
:102E7000DC090008DC090008DC090008DC0900089E
:102E8000DC090008DC090008DC090008DC0900088E
:102E9000DC090008DC090008DC090008DC0900087E
:102EA000DC0900084C0800086C090008DC0900086F
:102EB000DC090008DC090008DC090008CA08000871
:102EC000DC090008CA080008DC0900080E08000830
:102ED000C2080008A2080008A6080008AA080008FE
:102EE000AE080008B2080008B6080008BA080008D2
:102EF0000D000000070000007653544D33320000EF
:102F00005630313032000000463030007A00000088
:102F10005A00000009024300020100C03209040007
:102F20000001020201000524001001052401000136
:102F3000042402020524060001070582030800FF9D
:102F400009040100020A0000000705030240000016
:102F50000705810240000000002200084822000806
:102F6000742200082E2200087422000800210008A4
:102F70000420000874220008C6210008442100082B
:102F8000CC20000816200008302000084620000849
:102F9000CC200008CC200008BC200008C420000879
:102FA00054200008642000087420000884200008D1
:102FB00094200008A4200008040309041201000260
:102FC000000000408304405700020102030100009A
:102FD00053544D3332205669727475616C20436FBF
:102FE0006D506F727420696E204653204D6F64657A
:102FF0000000000053544D6963726F656C65637423
:10300000726F6E696373000056435020436F6E66A3
:103010006967000056435020496E746572666163AB
:10302000650000005C290008782900088A2900084A
:1030300096290008AE290008C62900084A616E00DA
:10304000466562004D617200417072004D61790009
:103050004A756E004A756C004175670053657000D3
:103060004F6374004E6F76004465630000000000FB
:103070002E0000007375636365737300646F6D6188
:10308000696E206572726F7200000000696C6C6579
:1030900067616C2073657175656E6365206572721A
:1030A0006F72000072616E6765206572726F7200E8
:1030B000636F727275707420686561700000000043
:1030C0006E6F206D656D6F7279000000696E7661BC
:1030D0006C696420617267756D656E740000000034
:1030E000756E6B6E6F776E206572726F7200000086
:1030F0003B00000043000000504F534958000000BF
:1031000025412C202542202523642C2025592C20C4
:1031100025483A254D3A255300000000256D2F25FE
:10312000642F25790000000025592D256D2D25647B
:103130000000000025493A254D3A257320257000EE
:1031400025483A254D00000025412C202542202508
:1031500023642C202559000000000000F4300008F2
:10316000DC31000834320008000703200417020194
:10317000085710408000000053756E646179004D5F
:103180006F6E646179005475657364617900576589
:10319000646E6573646179005468757273646179F3
:1031A0000046726964617900536174757264617973
:1031B0000000000053756E004D6F6E005475650081
:1031C0005765640054687500467269005361740065
:1031D00000000000414D00504D000000703000081C
:1031E000583100085831000858310008583100089B
:1031F000583100085831000858310008583100088B
:1032000058310008FFFFFFFFFFFFFFFFFFFFFFFF39
:10321000FFFF000078310008B43100085432000884
:103220003C300008D4310008C8320008BC32000825
:10323000AC320008E12C0008FD2C00080D2D000820
:103240001D2D0008392D0008492D0008592D0008B2
:10325000692D00084A616E75617279004665627277
:1032600075617279004D6172636800417072696CBA
:10327000004D6179004A756E65004A756C790041B0
:1032800075677573740053657074656D626572005F
:103290004F63746F626572004E6F76656D62657222
:1032A00000446563656D626572000000256120253C
:1032B00062202565202554202559000025483A25FF
:1032C0004D3A255300000000256D2F25642F2579E8
:1032D0000000000020202020202020202068282816
:1032E00028282020202020202020202020202020CE
:1032F0002020202048101010101010101010101056
:103300001010101084848484848484848484101035
:103310001010101010818181818181010101010152
:10332000010101010101010101010101010101107E
:103330001010101010828282828282020202020227
:10334000020202020202020202020202020202104F
:043350001010102029
:1033540002006700FF000000F91C0008991D000826
:10336400C11D000800000000BD1C0008991E0008D3
:10337400651D0008191F0008ED1C0008300000201E
:10338400E525000845250008F524000899240008CF
:10339400AD2400088124000869240008A927000836
:1033A400AD270008B1270008B52700080128000848
:1033B4000928000815280008792800085D28000855
:1033C4002128000895280008B12800081A030000E5
:1033D40000000000000000000000000000000000E9
:1033E40000000000000000000D2A0008112A000857
:1033F400152A0008192A00081D2A00085C31000853
:103404005C3100085C3100085C3100085C31000864
:040000050800033DAF
:00000001FF
