:020000040800F2
:100000000040002039030008610300086303000872
:1000100000000000000000000000000000000000E0
:100020000000000000000000000000006503000860
:1000300000000000000000006703000869030008DA
:100040006D0300086F0300087103000873030008C4
:100050007503000877030008790300087B03000894
:100060007D0300087F030008810300088303000864
:100070008503000887030008890300088B03000834
:100080008D0300088F030008910300089303000804
:10009000692E000897030008990300089B030008D5
:1000A0009D0300089F030008A1030008A3030008A4
:1000B000A5030008A7030008450F0008352900081C
:1000C00082B03F4B1A6801210A431A605A683D48C2
:1000D00002405A601A683C4802401A601A683B485D
:1000E00002401A605A683A4802405A60DA6A0F20A1
:1000F0008243DA621A6B374802401A635A6B8A43AA
:100100005A6300229A60009201921968802252027A
:100110000A431A60180080218902A022D2010368D4
:100120000B400193009B01330093019B002B02D1F4
:10013000009B9342F3D1224B1B689B0332D50123D2
:100140000193254B11221A601D4B5A685A605A6858
:100150005A60019B012B28D0194B5A681F490A404D
:100160005A605968A02292030A435A60144A1168DF
:1001700080235B040B43136080239B0411681942A6
:10018000FCD00F4B5A6803218A435A605A680139E0
:100190000A435A6019000C224B681340082BFBD10C
:1001A00002B0704700230193CBE7054B5A680B4917
:1001B0000A405A605968982252030A435A60D5E7A8
:1001C000001002400CB8FF08FFFFF6FEFFFFFBFF28
:1001D000FFFFC0FFACFEFFFF00200240FF7FC0FF1B
:1001E000354936480A1A02D0072291438D463449D0
:1001F00034480A1A06D00722914381F30988022263
:1002000082F3148830483149314A00F043F83148CC
:100210003149324A00F03EF831483249324A00F062
:1002200039F832483249334A00F034F83248334919
:10023000334A00F02FF833483349344A00F02AF8A3
:1002400033483449344A00F025F834483449002210
:1002500000F02BF833483449002200F026F83348E8
:100260003349091A082903DB0022026004300160C7
:100270001F482049884205D00268043003B49047E3
:1002800003BCF7E700208646EC4600200021294AFF
:100290009047FEE7884207D0521A05D00378013014
:1002A0000B700131013AF9D17047884202D00270D7
:1002B0000130FAE77047000000400020003E0020B7
:1002C000004000200040002098340008000000207A
:1002D000C0000020AC030008AC030008FE2F00089B
:1002E00098340008000000200000002000300008C2
:1002F000003000080C300008003000080030000812
:10030000003000080C3000080C3000089834000859
:1003100058350008C0000020C0000020C0000020A8
:10032000EC330020EC330020EC330020EC330020D1
:10033000EC330020750800080448054988438546C9
:100340000448804704480549016049E7004000200F
:1003500007000000C100000808ED00E000000008F0
:10036000FEE7FEE7FEE7FEE7FEE7FEE7FEE7FEE765
:10037000FEE7FEE7FEE7FEE7FEE7FEE7FEE7FEE755
:10038000FEE7FEE7FEE7FEE7FEE7FEE7FEE7FEE745
:10039000FEE7FEE7FEE7FEE7FEE7FEE7FEE7FEE735
:0C03A000FEE7FEE7FEE7FEE7FEE7FEE7F3
:1003AC00F0B5DE4657464E464546E0B593B082461C
:1003BC00837C002B00D11FE1C37C5A1E93415B420E
:1003CC0001229343543308A90B700368984604AB7D
:1003DC00B34A91461D00170045CF45C5AB4638685A
:1003EC0028604246100F185C487018004E4634CEF8
:1003FC0034C038685A4610604246100E06000F2270
:10040C0016409E5D8E701E00484634C834C638684F
:10041C005C4620604046000D06000F221640985D99
:10042C00C87018004E4634CE34C038685C46206024
:10043C004046000C06000F221640985D087118000B
:10044C004E4634CE34C038685C4620604046000BC3
:10045C0006000F221640985D487118004E4634CEA7
:10046C0034C038685C4620604046000A06000F2203
:10047C001640985D887118004E4634CE34C03868EA
:10048C005C4620604046000906000F221640985D2D
:10049C00C87118004A4670CA70C03A68026040467B
:1004AC000F2210401B5C0B72092153465C680394AD
:1004BC004D1C029504AA7A4B1000E0CBE0C01B68DF
:1004CC0003600F232340D25C08AB5A545346DB7CA9
:1004DC00002B33D1231E31D0544608A8029DAC46C4
:1004EC0060449946D14404AB0F229046D446227AFC
:1004FC0092461D006A4F46CF46C5AB4601973E68F3
:10050C002E6051460E119E5D06701E006449A4C9F2
:10051C00A4C6019A11685A461160414652460A40D7
:10052C00995C4170013402304C45E0D1E246039BAA
:10053C005B00029A94469C446346029300F0B0FC24
:10054C00002848D053461B8A9C4604AB544A92461A
:10055C001E00150013CD13C6AB46296831606246E8
:10056C001113595C08AA029D01925155190050466D
:10057C0094C894C159460968316061460C120F2128
:10058C000C401C5DA94601988046C1444846447005
:10059C000295EC1C03941800574634CF34C05D46CA
:1005AC002F68376065462F11380008401F5CB8462D
:1005BC004F464046B8701F00524631CA31C75D469F
:1005CC002A683260654629405B5C039C019A13558E
:1005DC000298031D02930299481C08AB0D225A5431
:1005EC00002855D02F4B304A9F58043A9E58002172
:1005FC0000221D0008AC3BE0C37C5A1E93415B42B9
:10060C0001229343743308A8037053461C6804AB4F
:10061C00234A90461D00170046CF46C5A9463968A7
:10062C0029600194210A0F2293460E0016409E5D0C
:10063C0046701E00414634C934C639684A461160BA
:10064C00019C21090E005A461640995D81701900D3
:10065C00424670CA70C13A680A605946019C2140F2
:10066C005B5CC370042120E70132D2B2824209D212
:10067C00731C1B051B0DBB42F6D0A15CE9541E007C
:10068C000121F1E7002903D0064A80235B01D650F3
:10069C0013B03CBC90469946A246AB46F0BDC04652
:1006AC00FC3000083012002004100000F0B50C4A99
:1006BC000C4BD65802004118094D802464012800C7
:1006CC0000E001328A4209D02B5901331B051B0D66
:1006DC00B342F6D01778C7540351F2E70020F0BDAF
:1006EC002802002004100000F0B5D6464F464646BE
:1006FC00C0B586B000230193542800D194E00300C8
:10070C00523B5A42534101AA13740123722800D15F
:10071C0091E08CE0019B1B019A46200002F054FCF6
:10072C00002826D0303CE4B253461C4301940135DA
:10073C0080235B01F258F3599A42FDD001331B051B
:10074C001B0D4246D45CD3510D2C69D0072DE1D939
:10075C00082D31D8200002F037FC002819D0303C8D
:10076C00E4B201AB02945B7C002B40D1002C3ED058
:10077C00DDE72300613B052B02D8573CE4B2D3E7FD
:10078C002300413B052B02D8373CE4B2CCE7FF24D5
:10079C00CAE72300613B052B07D8573CE4B201ABF9
:1007AC0002945B7C002BC2D021E02300413B052B43
:1007BC0038D8373CE4B2F2E74B465B089A4601ABBB
:1007CC0053441A7A12011A72200002F0FDFB002821
:1007DC0016D0303CE4B201AB53441A7A14431C7269
:1007EC0001239C46E144029B5B004B459FD801A82A
:1007FC0000F05CFB06B01CBC90469946A246F0BDCE
:10080C002300613B052B02D8573CE4B2E3E72300FD
:10081C00413B052B02D8373CE4B2DCE7FF24DAE796
:10082C000120E7E7FF24BAE701AB01221A74523822
:10083C0043425841C3B201AC63740822002103A89F
:10084C0002F0C7FB257C6B1E9D416D4204239D432A
:10085C00053500239946024E024FB04668E7C04664
:10086C002802002004100000F0B5DE4657464E4624
:10087C004546E0B583B0CE4A51698023DB020B4379
:10088C005361CC4B1A68CC490A401A601968802213
:10089C0052030A431A6000F0DBF9C84800F042FB2F
:1008AC00C74BC84AC849C94801F0CCFFC84F80257E
:1008BC006D01C84CBA4631E0C74E300002F092FBD5
:1008CC000100300002F072F8C44E300002F08AFBD6
:1008DC000100300002F06AF8C14A13595259934290
:1008EC001CD0BF4A904616006A46D01D01331B052A
:1008FC001B0D4246D35C0370012102F057F801280E
:10090C000CD1725933599A4204D001331B051B0D7B
:10091C00B3490B51B24B1B599342E5D179593B5911
:10092C008B42D9D001331B051B0DA94AD05C135146
:10093C000200433AD6B2332ECED8B200A94EB258EA
:10094C009746A94E300002F04DFB0100300002F03A
:10095C002DF8B9E7A54E300002F044FB0100300041
:10096C0002F024F8B0E79E4B00221A515A51002095
:10097C0000F010FA002800D154E19D4EA5E70120AB
:10098C0000F008FAF6E7022000F004FAF2E700F0B3
:10099C0065FAEFE79942FDD001331B051B0D8C4A1C
:1009AC00D05C13513038431E9841C0B200F072FA3B
:1009BC00E0E79942FDD001331B051B0D8449CA5C4D
:1009CC000B511300303BDAB2072A13D89300894A33
:1009DC00D3589F46884800E0884800F0D7F9C9E70B
:1009EC008748FAE78748F8E78748F6E78748F4E747
:1009FC008748F2E78748F0E78748EEE700220426AD
:100A0C00734B99461BE04346613B052B05D8424688
:100A1C00573AD2B25B461A430DE04346413B052B95
:100A2C0003D84246373AD2B2F4E7FF225B461A4368
:100A3C0043460D2B1CD0013EF6B2002E18D04B466F
:100A4C001B59494649599942F9D001331B051B0DD5
:100A5C005F49C95C88465E490B5113019B46404671
:100A6C0002F0B2FA0028CED04246303AD2B2DDE7DC
:100A7C00D005C00DD201FE23DB031A40104300F059
:100A8C0055F977E7FFF730FE002801D0584E1CE7E8
:100A9C00624E300002F0A6FA0100300001F086FF31
:100AAC0012E7FFF721FE0028F0D15D4E300002F076
:100ABC0099FA0100300001F079FF05E700200826C3
:100ACC00434B99461BE04346613B052B05D84046FA
:100ADC005738C0B25B4618430DE04346413B052BEB
:100AEC0003D840463738C0B2F4E7FF205B461843C2
:100AFC0043460D2B1CD0013EF6B2002E18D04B46AF
:100B0C001B594A4652599A42F9D001331B051B0D09
:100B1C002F4AD25C90462E4A135103019B46404605
:100B2C0002F052FA0028CED040463038C0B2DDE791
:100B3C0000F0EAF81EE700200826254B98461BE03B
:100B4C004B46613B052B05D848465738C0B25B462F
:100B5C0018430DE04B46413B052B03D8484637382C
:100B6C00C0B2F4E7FF205B4618434B460D2B1CD05C
:100B7C00013EF6B2002E18D043461B59424652593C
:100B8C009A42F9D001331B051B0D5246D25C91469B
:100B9C005246135103019B46484602F015FA0028B1
:100BAC00CED048463038C0B2DDE700F099F8E1E627
:100BBC000010024000040048FFFFCFFFAD03000807
:100BCC0098000020040000207C000020C0000020C1
:100BDC002802002004100000143100081031000815
:100BEC00301200200C3000081C31000824310008A1
:100BFC000C310008DC300008950067003B006700F2
:100C0C001D006700170067000B00670005006700F8
:100C1C0004004500020067002B0167002831000822
:100C2C002C310008004E50E6103100080549802098
:100C3C00400100230B50044A8B5004490B508B503D
:100C4C007047C0462802002004100000301200201B
:100C5C0010B51E4A51698023DB020B4353611C4BB8
:100C6C0019681C48014019601868A0210903014348
:100C7C001960596AFF2081435962596ABB38014394
:100C8C005962D16980239B040B43D361124B4622DA
:100C9C001A60BB32FF32985801210843985000204B
:100CAC008124A400185108341951083418510834FF
:100CBC0019512434185104341851985888439850B9
:100CCC00064802F03DF8002010BDC046001002405E
:100CDC0000040048FFFFF0FF0064004044220020A5
:100CEC0010B5084B80229200995801242143995049
:100CFC00C0439121890058509958A1439950002024
:100D0C0010BDC0460064004010B5074B8022920015
:100D1C009958012421439950902189005850995891
:100D2C00A1439950002010BD00640040124A134B9F
:100D3C0011680B401249084003431360114B1B7898
:100D4C00002B16D0104A136801210B4313601100BD
:100D5C0001224B681A42FCD0074B1A680A4BDA6125
:100D6C001A6801218A431A60190001224B681A4241
:100D7C00FCD100207047C0460000002000FC80FC25
:100D8C00FF037F03402200200064004010B5FFF7F2
:100D9C00CDFF10BD10B52B4A116880231B020B43ED
:100DAC0013601100802212020B681342FCD1254AF9
:100DBC00136801210B431360110001224B681A4286
:100DCC00FCD0214B1B689B009B0801282ED00228CD
:100DDC0032D01D4A13601C4B1A681A4BDA611A6820
:100DEC0001218A431A60190001224B681A42FCD176
:100DFC00144B19680220814319605A6902435A61E5
:100E0C00124BC72080001A58114911408022D2037E
:100E1C000A431A508022D2051A600E4B01221A7016
:100E2C0001210D4802F006F8002010BD8022D205E9
:100E3C001343054A1360CEE7802212061343024A7D
:100E4C001360C8E7006400400000002000E100E0EF
:100E5C00FFFF00FF402200204422002010B5094A69
:100E6C00136802210B431360074A80238021C905B4
:100E7C00D150064B00221A700021054801F0DAFF10
:100E8C00002010BD0064004000E100E04022002082
:100E9C0044220020014B187000207047382200209B
:100EAC00014B18787047C0463822002010B51B4BF8
:100EBC009968E0225205012311422DD0174B9B68F3
:100ECC009B019B0F1B01154A9918C22252004468C2
:100EDC008C500B000A008932FF32846814608D3309
:100EEC00FF33C2681A600268037C002B02D15205E2
:100EFC00002301E0D20004231A43437C581E834193
:100F0C005B001343012213438032FF328B500521C7
:100F1C00034801F075FF0023180010BD0064004069
:100F2C0044220020002803D0024B18600020704798
:100F3C000120FCE73C22002030B587B0204BDB6859
:100F4C009B073AD01F4B1B685B6A01A803821C49A4
:100F5C00D82252008C58042323401C00651EAC413F
:100F6C0084748A58634211218B4315330100DA4093
:100F7C000192134BD82252009A589207D20FC27486
:100F8C00DA2252009858A63AFF3A02404A60DC2214
:100F9C0052009A588A60DE2252009A58CA60DA6867
:100FAC0020210A43DA601B39064801F00FFF064B7B
:100FBC001B68002B01D001A8984707B030BDC04674
:100FCC0000640040442200203C220020034B044AD1
:100FDC001A60044A9A80044A9A607047442200209E
:100FEC000040014080BBFFFF60EA0000F0B5C64640
:100FFC0000B582B001AB00221A80DD4D102398465B
:10100C00A8445BE1DB4A1368DB490B401360D84C06
:10101C00207E00F0A9FB2063A36A9C466044A0627A
:10102C00D64B1B685B6800212000984746E1B8232B
:10103C00E85C00F0ABFB0200D023E850143BE95A0B
:10104C00404600F08FFCCB4A1368CD490B4013602F
:10105C00CA4B1B689B68280098472FE1C44C143B73
:10106C00E15AC8270200E05900F07CFCD023E35879
:10107C00E25994466344E35151E1510889B2D207D5
:10108C0001D5013189B28902198065E1A700B94BFC
:10109C009C4667443B689BB201AA138013881BB221
:1010AC00002B2EDB01AB1B881B0600D406E13B6832
:1010BC00B14A13403B60A3001B19DB00AC4A9446B9
:1010CC00634422331B78002B00D0B8E0A3001B191B
:1010DC00DB00D718387E00F047FB3863002800D1BE
:1010EC00CDE0A34AA3001B19DB00D318998B671C16
:1010FC00BB00DB19DB009B580200180000F01CFC45
:10110C00BDE03B689E4A13403B60A3001B19DA000C
:10111C00974B9B18C2331B78002B16D1944B9B1802
:10112C00B833187800F032FB061E2FD0A3001B1921
:10113C00DA008F4B9B181A00BC321188C8331B681D
:10114C000200180000F00EFC20E0A3001B19DA00CE
:10115C00874B9B18B833187800F000FA43044AD533
:10116C00A3001B19DA00824B9B18B833187800F0D7
:10117C009DFB0200061E31D1A3001B19DA007C4B2B
:10118C009B18B8331878002100F0B4FB3100A30091
:10119C001B19DA00764B9B181800D0300268921994
:1011AC0002600838026892190260CC331E68002E67
:1011BC0008D0A0000019C3006D48C018C4300368E3
:1011CC00994231D26A48A3001B19DB00C318B8330B
:1011DC0019786A4B1B681B68984763E7A3001B19B7
:1011EC00D900634B5B181900BE310988C8331868E5
:1011FC0000F0B8FBC0E7A3001B19DA005C4B9B188E
:10120C00B833187800F064FB0200061EB4D0A300BB
:10121C001B19D900564B5B181900C0310988C8330B
:10122C00186800F09FFBA7E7B3B25148A100091959
:10123C00C9004118B831097800F0CEFC32E7A300A0
:10124C001B19DB004A4AD318187E00F087F94306B5
:10125C0000D4B3E0A3001B19DB00454FFF18387E08
:10126C0000F024FB3863002800D097E0A3001B1982
:10127C00DB003F4AD318187E012100F03BFB3C4EAB
:10128C00A7003F19FF00F719387E00F06DFA38639C
:10129C00611C8B005F18FF00BA591218BA51F31970
:1012AC005B68002B00D0A5E03148A3001C19E400BA
:1012BC000419217E314B1B685B689847314B1B68C6
:1012CC0099B26A46D1801B0400D49CE06B46DC8842
:1012DC000F231C4000D0D9E66B4606331B88DB0677
:1012EC0000D48FE6234B1B689BB201AA1380138892
:1012FC001B0500D59BE601AB1B881BB2002BDDDA6E
:10130C001C4A13681E490B401360194CB823E05C4F
:10131C0000F03CFAD023E050002800D09EE6144C9C
:10132C00164B1B681B68002120009847164B1B6846
:10133C001B041B0C154A94466344C422A2583E2A33
:10134C0000D89AE6510989B2D20601D1013989B285
:10135C0089020F4A1143198006490B680D4A1A403D
:10136C00C0239B0153400C4A13430B60A6E7C046B5
:10137C00C0000020005C00400F8F000048000020DF
:10138C008F0F0000445C0040505C00400660004041
:10139C000080FFFF8FBF0000808000001C4AA3006C
:1013AC001B19DB00D318D98B671CBB00DB19DB00C6
:1013BC009B580200180000F0BFFA57E7A3001B1956
:1013CC00DB00134FFF18387E00F082FA38630028D8
:1013DC0000D14BE70E4AA3001B19DB00D318198C64
:1013EC00671CBB00DB19DB009B580200180000F0E7
:1013FC00A3FA3BE70648A1000C19E4000419217E6E
:10140C0000F040FC5AE702B004BC9046F0BDC04668
:10141C00C000002010B582B06B460022DA803B4A37
:10142C00126892B2DA8006331B88394A126813406C
:10143C008022120213425ED16B4606331B88344A5B
:10144C00126813405B050CD5304B324A1A60324C93
:10145C00324B1B681B69200098470021200000F0CC
:10146C00D7FC6B4606331B88294A126813409B0431
:10147C0002D5264B2A4A1A606B4606331B88244A2F
:10148C0012681340DB040AD5204B264A1A60234B02
:10149C001B689B6920489847002001F061FB6B4654
:1014AC0006331B881A4A126813401B0509D5174BC3
:1014BC001D4A1A60194B1B685B691748984701F065
:1014CC0033FB6B4606331B88114A126813409B058D
:1014DC0007D50E4B154A1A60104B1B68DB680E487B
:1014EC0098476B4606331B88094A12681340DB0584
:1014FC0004D402B010BDFFF779FD9DE7034B0C4AF5
:10150C001A60072001F02CFBF3E7C046445C004056
:10151C0050220020FFFB0000C000002048000020EB
:10152C00FFDF0000FFEF0000FFF70000FFFD0000F1
:10153C00FFFE0000014B18607047C046405C004045
:10154C00014B18607047C046445C00400723984329
:10155C00014B18607047C046505C00408000034B44
:10156C009C466044006880B27047C046005C0040F6
:10157C008000054B9C4660440368044A13400B43AF
:10158C009BB203607047C046005C00408F89FFFF30
:10159C008000094B9C4660440368084A1340CA0605
:1015AC0001D5102253408A0601D520225340044A0B
:1015BC00134303607047C046005C0040BF8F0000BF
:1015CC008080000080000A4B9C4660440368094AF6
:1015DC001340CA0402D58022520153408A0402D51A
:1015EC00802292015340044A134303607047C04663
:1015FC00005C00408FBF0000808000008000064B24
:10160C009C466044026880235B001343034A1340EA
:10161C00034A134303607047005C00400F0F000047
:10162C00808000008000054B9C4660440368044A9F
:10163C001A40044B134303607047C046005C0040E3
:10164C000F0F000080C000008000054B9C466044DA
:10165C000368044A1A40044B134303607047C046A6
:10166C00005C00400F0F0000C08000008000064BA3
:10167C009C46604403685B0405D50368034A1A4022
:10168C00034B134303607047005C00400F0F0000D6
:10169C0080C000008000064B9C46604403685B06DB
:1016AC0005D50368034A1A40034B13430360704784
:1016BC00005C00400F0F0000C0800000064B1B6850
:1016CC001B041B0CC000C018044B9C46604449080A
:1016DC00490001807047C046505C004000600040EB
:1016EC00064B1B681B041B0CC000C018044B9C460B
:1016FC0060444908490001807047C046505C004076
:10170C0004600040054B1B681B041B0CC000C01878
:10171C00034B9C46604401807047C046505C0040BF
:10172C00026000400D4B1B681B041B0CC0001B18F7
:10173C000B4A944663443E2909D94A09C90601D18A
:10174C00013A92B2920207490A431A8070474A083A
:10175C00C90700D5013292021A80F7E7505C0040AD
:10176C00066000400080FFFF064B1B681B041B0C2F
:10177C00C000C018044B9C46604400888005800D56
:10178C007047C046505C004002600040064B1B682E
:10179C001B041B0CC000C018044B9C466044008802
:1017AC008005800D7047C046505C004006600040CC
:1017BC0030B50B4C2368C0001B041B0CC318094D1F
:1017CC00AC46634449084900198023681B041B0C70
:1017DC00C018054B9C46604452085200028030BD34
:1017EC00505C0040006000400460004010B50029CF
:1017FC0037D12A4B1B68C0001B041B0C1B18284933
:10180C008C4663443E2A18D95109D40601D10139BA
:10181C0089B28902234C21431980204B1B681B047D
:10182C001B0C1818204B9C4660445309D2062ED032
:10183C009B021C4A1343038015E05108D40700D5C2
:10184C00013189021980154B1B681B041B0C1818DD
:10185C00154B9C4660445308D2071BD49B02038053
:10186C0001E0012900D010BD0C490B68C0001B041D
:10187C001B0CC3180A4CA44663441A800B681B0447
:10188C001B0CC018084B9C4660440280EBE7013BE4
:10189C009BB2CDE701339BB2E0E7C046505C004001
:1018AC00026000400080FFFF06600040064B1B6892
:1018BC001B041B0CC000C018044B9C4660440088E1
:1018CC008005800D7047C046505C004002600040AF
:1018DC00064B1B681B041B0CC000C018044B9C4619
:1018EC00604400888005800D7047C046505C004005
:1018FC000660004000290AD180000B4B9C466044D6
:10190C0003680A4A1A400A4B1343036070470129C3
:10191C00FCD18000044B9C4660440368034A1A4087
:10192C00044B13430360F1E7005C00400F0F000011
:10193C00C080000080C0000070B5013252100ED083
:10194C000300091A5C180648844664445E78360223
:10195C001D7835432580013A0233002AF2D170BD3F
:10196C000060004010B5013252100BD00300091A70
:10197C005C1805488446644424881C80013A023370
:10198C00002AF5D110BDC0460060004010B50123FF
:10199C008370002202718260C3600120FFF7CAFDD0
:1019AC000020FFF7C7FD0020FFF7CAFD0020FFF75E
:1019BC00CDFDBF200002024B1860FFF7BBFD10BD30
:1019CC005022002010B50C060CD57F240C40A10031
:1019DC000919C90018314018002A0BD18272838072
:1019EC00002010BD7F240C40A1000919C900B8319A
:1019FC004018F1E701228272C3801B0C0381EFE7D0
:101A0C0070B50C0635D57F260E40B500AC19E40038
:101A1C0018340419AD19ED00451901206876E260FF
:101A2C00E3707F200840207003D100226262E261E3
:101A3C002262002222616261A261A270012B34D069
:101A4C00002B24D0022B27D0032B29D0A37A002BD8
:101A5C0041D16378002B2DD0A1882078FFF72EFE82
:101A6C002078FFF717FE20782021FFF791FD00204A
:101A7C0070BD7F260E40B500AC19E400B8340419D3
:101A8C00AD19ED004519B93500202870C7E7802144
:101A9C008900FFF76DFDD9E70021FFF769FDD5E758
:101AAC00C021C900FFF764FDD0E78021C900FFF712
:101ABC005FFDCBE7A1882078FFF712FEA189207883
:101ACC00FFF730FE2078FFF7D1FDC0212078890187
:101ADC00FFF778FDCBE72078FFF790FD2289E188AE
:101AEC002078FFF765FE6378002B12D12078FFF782
:101AFC00BDFD2078FFF7CEFD2078FFF7A5FDC021B6
:101B0C0020788901FFF75EFD20780021FFF740FD6A
:101B1C00ADE72078FFF7AAFD2078FFF7BBFD207812
:101B2C00FFF780FD20780021FFF732FD207800219F
:101B3C00FFF748FD9BE710B54BB2002B15DB7F245C
:101B4C000C40A1000C19E400B8340419A37A002B42
:101B5C001BD16378002B10D02078FFF79BFD2078E9
:101B6C000021FFF715FD002010BD7F240C40A100C3
:101B7C000C19E40018340419E8E72078FFF776FD17
:101B8C0020780021FFF71EFDEDE76378002B11D1C3
:101B9C002078FFF76BFD2078FFF77CFD2078FFF7AE
:101BAC0053FD20780021FFF70DFD20780021FFF771
:101BBC00EFFCD8E72078FFF759FD2078FFF76AFD96
:101BCC002078FFF72FFD20780021FFF7E1FC20782B
:101BDC000021FFF7F7FCC6E770B582B005000026C0
:101BEC0001967F240C40A0000019C00028180100A9
:101BFC00C8310A600200CC32136004321660C43063
:101C0C000268934227D901920199A2001219D200BD
:101C1C00AA18CC325B1A1360A3001B19DB00EB185B
:101C2C00C2331B78002B1FD1019989B2A3001B1959
:101C3C00DB00EB18B8331878FFF774FDC021A30054
:101C4C001C19E4002D19B83528788901FFF7BAFC66
:101C5C00002002B070BD0193A3001B19DB00EB1830
:101C6C00CC3300221A60D7E7019A92B2A3001B1959
:101C7C00DB00EB181900B9310978B8331878FFF785
:101C8C00B5FDDBE7F0B583B00600002001907F24A2
:101C9C000C40A5002919C90071180C760D008A6238
:101CAC00CB6208634A6A934225D90192019A9B1A26
:101CBC00CB62A3001B19DB00F31822331B78002B1B
:101CCC001DD1019A92B2A7003F19FF00F719B98BE9
:101CDC00A86AFFF731FE019989B2387EFFF712FD31
:101CEC00A1000C19E4003619307E3021FFF750FCAE
:101CFC00002003B0F0BD01930023CB62D9E7019A19
:101D0C0092B2A7003F19FF00F719797E387EFFF7D2
:101D1C006DFD387EFFF722FC43060ED5398C019AF7
:101D2C0092B2A86AFFF708FEA3001B19DB00F31898
:101D3C00597E187EFFF7DEFDD2E7A3001B19DB00EE
:101D4C00F318D98BEBE7000010B54BB2002B10DB6E
:101D5C008B005918C900B83141180878002810D0E8
:101D6C004B78002B1AD001238B701021FFF710FC3D
:101D7C0012E07F230B409900C918C9001831411893
:101D8C00EBE70A4803680A4A1A400A4B53400A4ACE
:101D9C001343036001238B70002010BD01238B7053
:101DAC0080214901FFF70EFCF6E7C046005C0040BD
:101DBC00BFBF0000101000008080000010B54BB2B7
:101DCC00002B12DB8B005B18DB00B833C418637874
:101DDC00002B12D02078FFF75DFC20783021FFF724
:101DEC00D7FB0023A370002010BD7F2319408B006C
:101DFC005B18DB001833C418E9E72078FFF736FCD2
:101E0C00C02120788901FFF7DDFB0023A370EAE7EE
:101E1C0030B501710022094D094C9000094B9C46CC
:101E2C00604403682B401343234303600132042AAC
:101E3C00F3D180231943044B196030BD0F0F000000
:101E4C0080800000005C00404C5C0040044A11683B
:101E5C0080231B020B431360012383707047C04621
:101E6C00585C004010B5074B1868FF2808D0064B8B
:101E7C001A68064B9B6806499847024BFF221A606A
:101E8C00002010BD28000020B43200204C0000209F
:101E9C006432002043230B80004870473031000827
:101EAC0010B50400C02300228121FFF78BFD802395
:101EBC005B00002282212000FFF784FD88235B0059
:101ECC00002203212000FFF77DFD02234022812107
:101EDC002000FFF795FD0223402203212000FFF78D
:101EEC008FFD0323082282212000FFF789FD054B7B
:101EFC001B6898474023044A03212000FFF76CFE1F
:101F0C00002010BD4C0000207032002070B5040081
:101F1C008B005B18DB00C318D0331988064D074BB8
:101F2C001B692800984740232A0003212000FFF753
:101F3C0053FE002070BDC046703200204C000020C3
:101F4C0010B504008121FFF7F6FD03212000FFF7F7
:101F5C00F2FD82212000FFF7EEFD024B5B689847F3
:101F6C00002010BD4C00002070B505000C00097855
:101F7C0060230B402BD0202B24D1E288002A19D0CF
:101F8C0049B200290CDA2A4E60782A4B9B68310042
:101F9C009847E2883100280000F088FC002015E00A
:101FAC006178254B1960254B1A60214900F092FC91
:101FBC0000200BE060781F4B9B68002200219847A3
:101FCC00002003E0210000F01DFB022070BD6378AF
:101FDC000A2B1AD00B2B1ED00020062BF6D16388AF
:101FEC001B0A212B07D0164909313A22280000F090
:101FFC005DFC0020EAE7E3881A1C9BB23A2B00D95F
:10200C003A2292B20E491231F0E701220D4900F04A
:10201C004DFC0020DAE7A378002B04D1094B0022F9
:10202C001A600020D2E7210000F0ECFA0020CDE786
:10203C00643200204C00002028000020B432002024
:10204C0030310008B832002070B5254B1B78002BBE
:10205C0031D0244B1B68002B0FD1234B1B78002B4A
:10206C0003D11F4B00221A7025E01F4B00221A705F
:10207C0000238121FFF706FE1DE01C4B1A68194B4B
:10208C001B68402B1ED817490D682B041B0C174ED0
:10209C003468E41834600C68E41A0C600968002990
:1020AC0002D1ADB2402D09D01204120C10495218B5
:1020BC008121FFF7E7FD002070BD40230A49012470
:1020CC000C70F1E709490B6840330B60054B19683C
:1020DC00403919601B68002BEFD04023E4E7C04661
:1020EC00B03200205C3200206032002058320020D8
:1020FC005422002070B5374B1B685A1C012B03D09F
:10210C00344B1A60002070BD324B00221A60324BE7
:10211C001B78002BF6D1314B1A6880235B019A4255
:10212C0034D02E4B1A682E4B1B689A4232D02B4B54
:10213C001A682B4B1B689A4232D9284B1A68802399
:10214C005B019B1A274A1360244B1A68254B1B68AA
:10215C00402B32D823490D682B041B0C1F4E3468BE
:10216C00E41834600C68E41A0C600968002902D188
:10217C00ADB2402D1DD0184901240C701204120C64
:10218C00194952188121FFF77DFDBBE7134B002243
:10219C001A60C6E70023114A1360114A1360B1E7B5
:1021AC000F4B1B680D4A12689B1A0E4A1360CBE743
:1021BC0040230E4901240C70DDE708490B684033BD
:1021CC000B60084B1968403919601B68002BEFD065
:1021DC004023D0E76C320020B0320020583200206F
:1021EC00543200205C320020542200206032002047
:1021FC0030B583B005000C004B78092B00D937E1C2
:10220C009B009F4AD3589F464A88130A99B20729C4
:10221C0072D89B009B49CB589F46007BB0235B0038
:10222C00EB581B6801A99847E388402B17D11A007B
:10223C00383B191C934200D9111C8AB201AB19808E
:10224C000100280000F032FB16E1007BAC235B00A0
:10225C00EB581B6A01A99847B2235B00E85001AB0D
:10226C001B88002B00D107E1E288002A00D103E192
:10227C00DFE7D3B2052B33D89A00834B9B589F468C
:10228C00007BB0235B00EB585B6801A99847E6E73D
:10229C00007BB0235B00EB589B6801A99847DEE7F5
:1022AC00007BB0235B00EB58DB6801A99847D6E7AD
:1022BC00007BB0235B00EB581B6901A99847CEE764
:1022CC00007BB0235B00EB585B6901A99847C6E71C
:1022DC00007BB0235B00EB589B6901A99847BEE7D4
:1022EC000021FFF731FDC7E00021FFF72DFDC3E012
:1022FC000021FFF729FDBFE000212800FFF724FD96
:10230C00BAE08B88002B19D1CB88002B16D183789F
:10231C00032B0CD04B887F241C4004715B4B1C603E
:10232C0000F0EEFA002C06D00223AB70A4E00021E2
:10233C00FFF70AFDA0E00123AB709DE0002128000F
:10234C00FFF702FD98E08978514B1970012908D8E4
:10235C008378022B09D0032B15D00021FFF7F4FC56
:10236C008AE00021FFF7F0FC86E0002908D001701C
:10237C000323837000F084FA280000F0C1FA7BE09C
:10238C0000F0BEFA78E000290FD00378994216D0FD
:10239C00190000F083FA3E4B19782970280000F0E0
:1023AC006FFA280000F0ACFA66E002238370002379
:1023BC00037000F073FA280000F0A2FA5CE000F061
:1023CC009FFA59E000230193CB88012B08D1837825
:1023DC00022B09D0032B0CD00021FFF7B5FC4BE0EE
:1023EC000021FFF7B1FC47E0012201A900F05EFAE1
:1023FC0042E00122010000F059FA3DE00023019374
:10240C008378023B012B0CD8012301938368002BAA
:10241C0001D003230193022201A9280000F046FAFF
:10242C002AE00021FFF790FC26E04B88012B23D1FA
:10243C0083605833FF33C3589B689847280000F0DB
:10244C005FFA19E08378023B012B0DD84B88012BE6
:10245C0012D1002383605933FF33C3589B689847CC
:10246C00280000F04DFA07E00021FFF76DFC03E0B7
:10247C0000212800FFF768FC002003B030BDC046E7
:10248C00743100089C310008BC310008BC320020BB
:10249C00BF33002070B504000E008378032B16D1D7
:1024AC000B79012B0ED8AC235B00C3589B68984763
:1024BC000500F388002B0ED100280CD1200000F071
:1024CC001FFA08E00021FFF73FFC002503E0002184
:1024DC00FFF73AFC0025280070BD30B583B005002D
:1024EC000C00002301938A88D1B26378012B25D08C
:1024FC00002B43D0032B1ED18378022B05D0032B4A
:10250C0008D00021FFF720FC15E04B0613D0FFF795
:10251C001BFC10E06388002B03D14B0601D0FFF7A6
:10252C0013FCAC235B00EB589B68210028009847F8
:10253C00280000F0E5F9002003B030BD8378022BB1
:10254C0005D0032B08D00021FFF7FEFBF3E74B0669
:10255C00F1D0FFF7F9FBEEE76388002B03D14B06B4
:10256C0001D0FFF72BFCAC235B00EB589B682100E0
:10257C0028009847280000F0C3F9DCE78378022B89
:10258C0005D0032B08D00021FFF7DEFBD3E74B0669
:10259C00D1D0FFF7D9FBCEE713060FD48B005B1815
:1025AC00DB00C318BA331B78002B01D00123019335
:1025BC00022201A9280000F079F9BCE77F230B4027
:1025CC009900C918C90041188B7E002BF0D001234B
:1025DC000193EDE7037C0B70437C4B70C27C1202C1
:1025EC00837C9B184B80427D1202037D9B188B8051
:1025FC00C27D1202837D9B189BB2CB80C3630123E7
:10260C004370704710B50021FFF79EFB10BD70B5ED
:10261C00002820D00478002C08D003000126361A9C
:10262C009C19E4B201331D78002DF9D164000234F9
:10263C0014800C7003234B700478002C0BD0013BDE
:10264C00002501305A1CD2B2CC540233DBB28D546B
:10265C000478002CF5D170BD10B50400AE235B00DE
:10266C00C3581B699847E378A370002010BD10B5C0
:10267C008378C370042383705933FF33C358DB68EA
:10268C009847002010BD10B5AC235B00C358DB6924
:10269C00002B00D09847002010BD10B5040040233B
:1026AC0000220021FFF78EF98023002280212000D8
:1026BC00FFF788F90023402200212000FFF7A0F942
:1026CC000023402280212000FFF79AF90123A370F8
:1026DC00207B5C33FF33E3585B689847002010BDC8
:1026EC0010B582B004006946FFF774FF6B46197889
:1026FC001F230B40012B10D0002B07D0022B11D025
:10270C007F2399432000FFF71FFB03E0694620005D
:10271C00FFF76EFD002002B010BD69462000FFF7E8
:10272C00B9FEF7E769462000FFF7D7FEF2E7000095
:10273C0070B5040000293DD14378022B0CD0042B3A
:10274C0041D1234B196800293DD0C9B2FFF760FB7A
:10275C001F4B00221A6036E0426B456AAA4218D819
:10276C00866B2900300000F0BFFB002904D1B54274
:10277C0002D8E36B9E4213D3AC235B00E358DB68B7
:10278C00002B02D0A278032A11D0200000F0C2F84E
:10279C0019E0521B426392B2816A00F093F812E086
:1027AC000022200000F08EF80023E3630BE02000F1
:1027BC009847EAE7AC235B00C3585B69002B02D057
:1027CC008278032A01D0002070BD9847FBE7C046F1
:1027DC00BC32002010B50400002928D14378032B0B
:1027EC0001D0002010BD0200B832D369D2689342E8
:1027FC000CD8AC235B00C3581B69002B02D0827829
:10280C00032A12D0200000F07BF8EAE79B1A0100A3
:10281C00B831CB619A4200D91A0092B22300B83376
:10282C001969200000F064F8DBE79847EAE7AC236D
:10283C005B00C3589B69002BD3D08278032AD0D17C
:10284C009847CEE7F8B504000E0015001F0000F005
:10285C006FF8AC235B00E550AE256D006751083373
:10286C00E65000F041F92000FFF790F863591B681F
:10287C009847200000F084F82000FFF7E7FAF8BD35
:10288C0010B50400AC235B00C3581B689847AE23FB
:10289C005B00E3589B689847002010BD10B5AC2333
:1028AC005B00C3585B689847002010BD10B513003F
:1028BC0082634263022242700A000021FFF7E2F9B0
:1028CC00002010BD10B513000A000021FFF7DAF943
:1028DC00002010BD10B51300D8228350043A835049
:1028EC00D13A42700A000021FFF776F9002010BDA2
:1028FC0010B513000A000021FFF76EF9002010BD7F
:10290C0010B504234370002300220021FFF7BAF90D
:10291C00002010BD10B505234370002300220021B8
:10292C00FFF75AF9002010BD10B5FEF773FD10BD6E
:10293C00104BD969802212040A43DA611A6B802188
:10294C008A431A63D969802212050A43DA610A4B59
:10295C005A680A490A405A605968802292050A430B
:10296C005A601A6840210A431A601A6820390A43CF
:10297C001A60704700100240006C0040FFFFFFCF50
:10298C00064AC720800013581B021B0A8021C90568
:10299C000B43135080231B061360704700E100E0CB
:1029AC00002070470020704700207047F0B5DE46CD
:1029BC0057464E464546E0B58146002926D0144B75
:1029CC001B68984600200026124B9C46124F00258F
:1029DC00124B9B46E24663461C68631C2A009F42CE
:1029EC006A415242134098450AD0013080B24A469F
:1029FC00925D5E4632555246136006008842EAD319
:102A0C003CBC90469946A246AB46F0BD0020F7E789
:102A1C005832002054320020FF0F000054220020B6
:102A2C0010B5FDF743FE10BD12230B800048704714
:102A3C00D431000804230B8000487047E8310008AB
:102A4C001A230B80004870476000002030B5002A24
:102A5C0011D00023002508E037340C7000014D70B4
:102A6C000133DBB202319A4205D0040F092CF3D8A2
:102A7C0030340C70F2E730BD10B50A00034C210065
:102A8C000348FFF7C4FD200010BDC046C032002033
:102A9C001C32000810B50A00034C21000348FFF754
:102AAC00B6FD200010BDC046C03200200832000820
:102ABC0010B50A00034C21000348FFF7A8FD2000C5
:102ACC0010BDC046C0320020EC31000810B50A0021
:102ADC00034C21000348FFF79AFD200010BDC046AF
:102AEC00C0320020F831000870B50B4B18680B4B46
:102AFC001B68C018002800D170BD094B1D68094C1B
:102B0C00A11C0822FFF7A2FF210012310422280089
:102B1C00FFF79CFFF0E7C046ACF7FF1FB4F7FF1FB1
:102B2C00B0F7FF1F60000020054A13689BB2082114
:102B3C000B43136013689BB204210B431360704763
:102B4C00405C0040044B1A6804490A401A60BF22DA
:102B5C0012021A607047C046405C0040FBFF000048
:102B6C0010B5072801D02C4B18702B4B1B78DBB2FF
:102B7C00052B4CD89B00294AD3589F46284B1B68E1
:102B8C00002B03D0244B05221A700DE0FFF7DAFF5F
:102B9C00214B06221A7007E0FFF7D4FF1E4B0422CC
:102BAC001A701F4B033A1A6010BD1B4B02225A704D
:102BBC0001321A70F8E7184A5378013BDBB25370B4
:102BCC005378002BF0D1130004221A70ECE7154A4D
:102BDC0013689BB210210B4313600F4B05221A7024
:102BEC0005325A70E0E70C4A5378013BDBB2537064
:102BFC005378002BD8D10B4A13680B490B40136048
:102C0C00054B06221A70064B00221A60CCE7024BC9
:102C1C0006221A70C8E7C046C033002040320008B4
:102C2C00C4330020405C0040EFFF00007047704749
:102C3C00704770477047000003688022D2059342AA
:102C4C001ED0364A93423AD0354A93423DD0354A4B
:102C5C00934240D0344A934243D0344A934247D0B3
:102C6C00334A93424BD0334A93424FD0324A934229
:102C7C000BD1324A91698023DB020B43936104E050
:102C8C002E4AD36901210B43D3618388013B9BB24C
:102C9C000268138502688368013BD36203680022D3
:102CAC005A6201230268938202680121138A0B4243
:102CBC00FCD000231382036801221A8070471F4A3C
:102CCC00D36902210B43D361DFE71C4AD36910217E
:102CDC000B43D361D9E7194AD36920210B43D36144
:102CEC00D3E7164AD16980235B000B43D361CCE751
:102CFC00124A916980231B010B439361C5E70F4A6C
:102D0C00916980235B020B439361BEE70B4A916987
:102D1C0080239B020B439361B7E7C046000400403D
:102D2C00001000400014004000200040002C014026
:102D3C0000400140004401400048014000100240A6
:102D4C0010B50400FFF778FF002322681383226874
:102D5C001384104AC52189005358FF2083437F38C0
:102D6C000343535080235B0313600B4A5169802348
:102D7C00DB020B435361094B1A6809490A401A607C
:102D8C001968084A0A431A609A8A07490A409A82C3
:102D9C0010BDC04600E100E00010024000040048F5
:102DAC00CFFF0FFF10005000FBF3FFFF8368013BC8
:102DBC00994206D90268506A1818984200D9C01A6C
:102DCC0070470268506A0818F7E7000070B50400F5
:102DDC000A4B1A68586801238340936125682000C8
:102DEC00FFF7E4FF686303235B42226813822268C7
:102DFC00938902210B43938170BDC046D4330020CC
:102E0C0070B504000A4B1A6858680123834093611B
:102E1C0025682000FFF7CAFFA86305235B422268E0
:102E2C0013822268938904210B43938170BDC046A1
:102E3C00E0330020002906D0074B1A68596801239B
:102E4C008B4093617047044B1A68596880235B026E
:102E5C008B409361F6E7C046C8330020124B1B8AA7
:102E6C009BB29A070ED5104A0321494211829189CF
:102E7C000220814391810D4A1168506880225202D0
:102E8C0082408A615B070ED5074B052252421A829B
:102E9C009A8904218A439A81054B1A6859688023C0
:102EAC005B028B409361704700400140D43300209B
:102EBC00E0330020084B094919600B225A600A3A8A
:102ECC009A60074B19600A2058609A60054B19608C
:102EDC00022159609A607047C833002000040048F2
:102EEC00D4330020E03300200A0010D00300400847
:102EFC0000E052008242FCD9002000E052089342CC
:102F0C0000D39B1A40418A42F8D119007047002027
:102F1C0070470000030000207F2B04D8024AD35CCA
:102F2C00024A505C1840704758320008D8320008EA
:102F3C000300613B192B00D8203870470300413B3C
:102F4C00192B00D820307047030000207F2B04D8A9
:102F5C00024AD35C024A505C184070475832000851
:102F6C00D83200080300613B192B00D82038704779
:102F7C000300413B192B00D8203070477F2902D821
:102F8C000170012070472F204042FBE7002A0CD033
:102F9C000A787F2A0BD8002800D002800021196003
:102FAC0059601000421E904170470020FCE72F2012
:102FBC004042F9E710B5034B5B689B681B68984768
:102FCC0010BDC046AC00002010B50421FFF7F2FF85
:102FDC0010BD8446002A03D001700130013AFBD1A8
:102FEC0060467047411C02780130002AFBD1401A20
:022FFC0070471C
:0C300000390C0008D90F0008C12E000890
:10300C009A090008E4080008E408000860090008B0
:10301C00E4080008E4080008E4080008E4080008D4
:10302C00E408000892090008C80A0008E40800082F
:10303C0072090008E4080008E4080008AE0A000859
:10304C00BE090008AE0A0008E40800084E09000892
:10305C00E4080008E4080008E4080008A0090008D7
:10306C00E4080008E4080008E4080008E408000884
:10307C00E4080008E4080008E4080008E408000874
:10308C00E4080008E4080008E4080008E408000864
:10309C00E4080008E4080008E4080008E408000854
:1030AC00E40800088A090008420B0008E40800083C
:1030BC00E4080008E4080008E4080008900A000886
:1030CC00080A0008900A0008E4080008C408000870
:1030DC00040A0008E0090008E4090008EC090008EB
:1030EC00F0090008F4090008F8090008FC090008B8
:1030FC003031323334353637383941424344454622
:10310C00070000000D0000007653544D33320000D0
:10311C005630313032000000463030007A0000006A
:10312C005A00000009024300020100C032090400E9
:10313C000001020201000524001001052401000118
:10314C00042402020524060001070582030800FF7F
:10315C0009040100020A00000007050302400000F8
:10316C0007058102400000000824000850240008D4
:10317C007C240008362400087C2400080E23000858
:10318C00142200087C240008D023000852230008D5
:10319C000423000826220008562200087E2200087C
:1031AC000423000804230008F4220008FC22000871
:1031BC008C2200089C220008AC220008BC220008CB
:1031CC00CC220008DC2200081201000200000040A2
:1031DC0083044057000201020301000004030904A8
:1031EC0056435020436F6E6669670000564350206B
:1031FC00496E7465726661636500000053544D69D5
:10320C0063726F656C656374726F6E6963730000D3
:10321C0053544D3332205669727475616C20436F70
:10322C006D506F727420696E204653204D6F64652B
:10323C0000000000882B0008A42B0008B62B000807
:10324C00C22B0008DA2B0008F22B000820202020CB
:10325C0020202020206828282828202020202020FA
:10326C00202020202020202020202020481010105A
:10327C001010101010101010101010108484848472
:10328C008484848484841010101010101081818127
:10329C008181810101010101010101010101010192
:1032AC000101010101010110101010101082828225
:1032BC008282820202020202020202020202020262
:1032CC00020202020202021010101020000703205A
:1032DC000417020108571040800000008C340008CD
:1032EC00503300086434000853756E004D6F6E0047
:1032FC005475650057656400546875004672690022
:10330C0053617400000000004A616E004665620063
:10331C004D617200417072004D6179004A756E000A
:10332C004A756C0041756700536570004F637400FB
:10333C004E6F76004465630000000000414D005064
:10334C004D000000883400088434000884340008E0
:10335C008434000884340008843400088434000861
:10336C00843400088434000884340008FFFFFFFF15
:10337C00FFFFFFFFFFFFFFFFFFFF0000C43300084C
:10338C00F4320008003400081433000848330008F5
:10339C00A833000858340008B4330008256D2F25D5
:1033AC00642F257900000000256120256220256509
:1033BC00202554202559000053756E646179004D09
:1033CC006F6E64617900547565736461790057653B
:1033DC00646E6573646179005468757273646179A5
:1033EC000046726964617900536174757264617925
:1033FC00000000004A616E75617279004665627268
:10340C0075617279004D6172636800417072696C0C
:10341C00004D6179004A756E65004A756C79004102
:10342C0075677573740053657074656D62657200B1
:10343C004F63746F626572004E6F76656D62657274
:10344C0000446563656D62657200000025483A258D
:10345C004D3A255300000000212F00083D2F000895
:10346C00492F0008552F0008712F00087D2F0008E8
:10347C00892F0008992F0008000000002E00000082
:0C348C0043000000504F5349580000005E
:1034980002006700AD1E00084D1F0008751F0008D8
:1034A80000000000711E000855200008191F0008C0
:1034B80001210008A11E0008FF000000E127000804
:1034C8003D270008ED26000893260008A7260008D7
:1034D8007B260008652600082C000020AD2900087E
:1034E800B1290008B5290008B92900082D2A0008C3
:1034F8001A030000000000000000000000000000A7
:10350800000000000000000000000000352A00084C
:10351800412A0008A12A0008852A00084D2A000827
:10352800BD2A0008D92A0008392C00083B2C0008BD
:103538003D2C00083F2C0008412C0008E832000808
:10354800E8320008E8320008E8320008E8320008EB
:0400000508000339B3
:00000001FF
