:020000040800F2
:10000000004000203D03000861030008630300086E
:1000100000000000000000000000000000000000E0
:100020000000000000000000000000006503000860
:1000300000000000000000006703000869030008DA
:100040006D0300086F0300087103000873030008C4
:100050007503000877030008790300087B03000894
:100060007D0300087F030008810300088303000864
:100070008503000887030008890300088B03000834
:100080008D0300088F030008910300089303000804
:10009000012E000897030008990300089B0300083D
:1000A0009D0300089F030008A1030008A3030008A4
:1000B000A5030008A70300081D0F0008ED2800088D
:1000C00082B0404B1A6801210A431A605A683E48C0
:1000D00002405A601A683D4802401A601A683C485B
:1000E00002401A605A683B4802405A60DA6A0F20A0
:1000F0008243DA621A6B384802401A635A6B8A43A9
:100100005A6300229A60009201921968802252027A
:100110000A431A60190080229202A020C0010B68D5
:1001200013400193009B01330093019B002B02D1EC
:10013000009B8342F3D1234B1B689B0333D50123E0
:1001400001931122254B1A601E4B5A685A605A6857
:100150005A60019B012B29D01A4B5A6820490A404A
:100160005A605968A02292030A435A60154A1168DE
:1001700080235B040B4313601100802292040B6800
:100180001342FCD00F4B5A6803218A435A605A68C5
:1001900001390A435A6019000C224B681340082B9E
:1001A000FBD102B0704700230193CAE7054B5A68A0
:1001B0000B490A405A605968982252030A435A6010
:1001C000D4E7C046001002400CB8FF08FFFFF6FE5F
:1001D000FFFFFBFFFFFFC0FFACFEFFFF0020024060
:1001E000FF7FC0FF354936480A1A02D007229143E3
:1001F0008D46344934480A1A06D00722914381F3C8
:100200000988022282F3148830483149314A00F0CB
:1002100043F831483149324A00F03EF8314832491A
:10022000324A00F039F832483249334A00F034F8A3
:1002300032483349334A00F02FF833483349344ABF
:1002400000F02AF833483449344A00F025F834489D
:100250003449002200F02BF833483449002200F0E2
:1002600026F833483349091A082903DB00220260C3
:10027000043001601F482049884205D002680430DC
:1002800003B4904703BCF7E700208646EC46002005
:100290000021294A9047FEE7884207D0521A05D02C
:1002A000037801300B700131013AF9D1704788426F
:1002B00002D002700130FAE77047000000400020D1
:1002C000003E002000400020004000204434000890
:1002D00000000020C0000020AC030008AC030008B0
:1002E000AC2F00084434000800000020000000206B
:1002F000AC2F0008AC2F0008B82F0008AC2F000866
:10030000AC2F0008AC2F0008B82F0008B82F000849
:100310004434000804350008C0000020C00000205C
:10032000C0000020EC330020EC330020EC33002030
:10033000EC330020EC33002071080008044807214A
:10034000884385460348804703480449016049E7DC
:1003500000400020C100000808ED00E00000000897
:10036000FEE7FEE7FEE7FEE7FEE7FEE7FEE7FEE765
:10037000FEE7FEE7FEE7FEE7FEE7FEE7FEE7FEE755
:10038000FEE7FEE7FEE7FEE7FEE7FEE7FEE7FEE745
:10039000FEE7FEE7FEE7FEE7FEE7FEE7FEE7FEE735
:0C03A000FEE7FEE7FEE7FEE7FEE7FEE7F3
:1003AC00F0B5DE4657464E464546E0B593B0029052
:1003BC00837C002B00D124E1C27C5223002A00D183
:1003CC00023308A90B70029B1B68984604ABB74A12
:1003DC0091461D00170045CF45C5AA4638682860D0
:1003EC000F2293464246160F9E5D4E701E004846E5
:1003FC0034C834C63868524610604246100E0600A7
:10040C005A461640985D887018004E4634CE34C05B
:10041C003868524610604246100D06005A46164087
:10042C00985DC87018004E4634CE34C038685246B9
:10043C0010604246100C06005A461640985D087132
:10044C0018004E4634CE34C03868524610604246CE
:10045C00100B06005A461640985D487118004E461F
:10046C0034CE34C03868524610604246100A06003A
:10047C005A461640985D887118004E4634CE34C0EA
:10048C003868524610604246100906005A4616401B
:10049C00985DC87118004A4670CA70C03A6802600C
:1004AC005846424610401B5C0B7209214B1C0193B1
:1004BC00029D6B681C00039304AB9C467B4B60460F
:1004CC00C4CBC4C01B6803600F2323406246D25CBC
:1004DC0008AB5A54EB7C002B35D1231E33D02C00A7
:1004EC0008A801998C4660442A009C4662449146B7
:1004FC0004AB6E4A9346227A90461E005D4686CD2A
:10050C0086C6AC46B2462D683560424615110F22A0
:10051C0015405D5D05701D005F4646CF46C56546BE
:10052C002D685246156041460F221140595C4170AE
:10053C00013402304C45DED1039B5B00019A94469A
:10054C009C446346019300F097FC002848D0029B22
:10055C001B8A9C4604AB554A92461E001100B0C93A
:10056C00B0C68B460C6834606246140B1C5D08AA3E
:10057C00019F0192D4551C00554607CD07C458461F
:10058C0004683460604604120F2004401C5DB946B8
:10059C0001998846C1444D466C70F81C02901D00B0
:1005AC00514615C915C558460168316060460111A0
:1005BC000D000F200540595D8846494645468D7013
:1005CC001900524631CA31C15846026832600F21B7
:1005DC00604601405B5C029C019A13553B1D0193E4
:1005EC0001994E1C0D2208AB5A54002E52D0304BA0
:1005FC00304A9F58043A9D5800210022180008AC3C
:10060C0040E0029BDA7C7223002A00D1023308A856
:10061C000370029B1A68140004AB244A90461D0018
:10062C00170046CF46C5A946396829600194210AAE
:10063C008C460F218A4666460E409E5D46701E0013
:10064C00414634C934C639684D462960019A1109AE
:10065C000E0051460E40995D81701900424670CAD9
:10066C0070C13A680A605146019A11405B5CC370D4
:10067C0004211BE7A15CC1541D0001210132D2B23F
:10068C00964205D96B1C1B051B0DBB42F2D1F5E73D
:10069C00002906D113B03CBC90469946A246AB4605
:1006AC00F0BD80235B01024AD550F3E7A830000867
:1006BC003012002004100000F0B50C4B0C4AD75837
:1006CC00020041180A4E80246401350000E001321A
:1006DC008A4209D0335901331B051B0DBB42F6D09E
:1006EC001078E8542B51F2E70020F0BD0410000004
:1006FC0028020020F0B5D6464F464646C0B586B017
:10070C0000230193542800D1A4E00300523B5A4229
:10071C00534101AA13740123722803D05238434267
:10072C005841C3B201AC63740822002103A802F043
:10073C0025FC237C0024002B00D105340023984693
:10074C00464B9946464E1D0026E0019B1B019A46DE
:10075C00380002F00DFC00280BD13B00613B052B4F
:10076C000ED9FF233A00413A052A05D8373FFBB290
:10077C0002E03B00303BDBB25246134301930AE0EC
:10078C00573FFBB2F8E73B00303BDBB201AA0293C8
:10079C00137C002B50D1013480235B014A46D25884
:1007AC004B469B599A42FDD001331B051B0DEF5C48
:1007BC00AB510D2F4CD0072CC7D9082C13D83800AF
:1007CC0002F0D6FB0028DED13B00613B052B07D99C
:1007DC00FF233A00413A052AD8D8373FFBB2D5E778
:1007EC00573FFBB2D2E743465B089A4601AB5344F2
:1007FC001A7A12011A72380002F0BAFB00280CD1D6
:10080C003B00613B052B20D9FF213B00413B052BD5
:10081C0006D839003739C9B202E039003039C9B2CB
:10082C0001AA5244137A0B43137201239C46E044F1
:10083C00029B5B009845AED301A800F023FB06B0E9
:10084C001CBC90469946A246F0BD573FF9B2E7E76B
:10085C000120F4E7012201AB1A745FE728020020A3
:10086C0004100000F0B5DE4657464E464546E0B54E
:10087C0085B0C74A51698023DB020B435361C54BDA
:10088C001A68C5490A401A601968802252030A4343
:10089C001A6000F0C9F9C14800F030FBC04BC14AE6
:1008AC00C149C24801F0AAFFC14B994680256D0190
:1008BC00C04C9B464B4659591B598B4256D0013361
:1008CC001B051B0DBA4AD05C13510200433AD6B239
:1008DC00332E4BD8B200B84EB2589746B74E3000B4
:1008EC0002F056FB0100300002F03CF8B44E36E04A
:1008FC00B44E300002F04CFB0100300002F032F834
:10090C00F4E7B14E300002F043FB0100300002F07E
:10091C0029F8EBE7AD4B00221A515A51002000F098
:10092C0025FA18E0012000F021FA14E0022000F072
:10093C001DFA10E000F07EFA0DE09942FDD0013373
:10094C001B051B0D9A4AD05C13513038431E98413D
:10095C00C0B200F08BFA002800D116E19C4E30009A
:10096C0002F016FB0100300001F0FCFF974EB04680
:10097C003700335972599A429CD002AAD01D0133C8
:10098C001B051B0D4246D35C0370012101F0EAFFED
:10099C0001288FD13B597A599A42EAD001331B0571
:1009AC001B0D8A4A1351E4E79942FDD001331B0514
:1009BC001B0D7F49CA5C0B511300303BDAB2072A7E
:1009CC0011D89300834AD3589F4683480EE083483E
:1009DC000CE083480AE0834808E0834806E083483B
:1009EC0004E0834802E0834800E0834800F0BAF951
:1009FC00B1E70027042301936D4B98469A460CE00F
:100A0C003300303BDBB23F011F430D2E26D0019B40
:100A1C00013BDBB20193002B20D043461B594246CD
:100A2C0052599A42F9D001331B051B0D5246D65C24
:100A3C001351300002F09CFA0028E1D13300613BE5
:100A4C00052B08D9FF233200413A052ADBD83300A5
:100A5C00373BDBB2D7E70A33DBB2D4E7F805C00D7E
:100A6C00FF01FE23DB031F40384300F04BF972E714
:100A7C00FFF740FE002801D0554E70E75F4E300066
:100A8C0002F086FA0100300001F06CFF2EE7FFF750
:100A9C0031FE0028F0D15A4E300002F079FA0100F4
:100AAC00300001F05FFF21E70023019308339846E3
:100ABC003F4FBA460EE03300303BDBB2019A1201D5
:100ACC00134301930D2E24D04346013BDBB29846D1
:100ADC00002B1ED03B597A599A42FBD001331B058F
:100AEC001B0D5246D65C1351300002F041FA00281F
:100AFC00E1D13300613B052B08D9FF233200413A89
:100B0C00052ADBD83300373BDBB2D7E70A33DBB23D
:100B1C00D4E7019800F0E4F81DE700260823984676
:100B2C00234F0DE05346303BDBB236011E43534698
:100B3C000D2B26D04346013BDBB29846002B20D030
:100B4C003B597A599A42FBD001331B051B0D5A466F
:100B5C00D25C92465A461351504602F009FA0028CC
:100B6C00E0D15346613B052B08D9FF235246413A4D
:100B7C00052ADAD85346373BDBB2D6E70A33DBB269
:100B8C00D3E7300000F098F8E5E60D4EE7E6C046F6
:100B9C000010024000040048FFFFCFFFAD03000827
:100BAC0098000020040000207C000020C0000020E1
:100BBC002802002004100000B82F0008C0300008E4
:100BCC00B8300008C8300008D030000830120020BF
:100BDC00BC30000888300008950067003B006700B7
:100BEC001D006700170067000B0067000500670019
:100BFC0004004500020067002B016700D430000898
:100C0C00D830000805498020400100230B50044ACD
:100C1C008B5004490B508B507047C0462802002063
:100C2C00041000003012002010B51E4A51698023B8
:100C3C00DB020B4353611C4B19681C4801401960C3
:100C4C001868A021090301431960596AFF208143E8
:100C5C005962596ABB3801435962D16980239B049C
:100C6C000B43D361124B46221A60BB32FF329858A9
:100C7C0001210843985000208124A4001851083405
:100C8C0019510834185108341951243418510434AA
:100C9C001851985888439850064802F02BF80020B9
:100CAC0010BDC0460010024000040048FFFFF0FFDA
:100CBC00006400404422002010B5084B80229200B2
:100CCC009958012421439950C043912189005850CF
:100CDC009958A1439950002010BDC04600640040B3
:100CEC0010B5074B8022920099580124214399504A
:100CFC009021890058509958A1439950002010BD5B
:100D0C0000640040124A134B11680B401249084012
:100D1C0018431060114B1B78002B16D0104A136827
:100D2C0001210B431360110001224B681A42FCD0C5
:100D3C00074B1A680A4BDA611A6801218A431A6058
:100D4C00190001224B681A42FCD100207047C046A2
:100D5C000000002000FC80FCFF037F0340220020E9
:100D6C000064004010B5FFF7CDFF10BD10B52B4A45
:100D7C00116880231B020B431360110080221202A6
:100D8C000B681342FCD1254A136801210B431360F5
:100D9C00110001224B681A42FCD0214B1B689B00AE
:100DAC009B0801282ED0022832D01D4A13601C4B00
:100DBC001A681A4BDA611A6801218A431A60190001
:100DCC0001224B681A42FCD1144B19680220814352
:100DDC0019605A6902435A61124BC72080001A5895
:100DEC00114911408022D2030A431A508022D205A5
:100DFC001A6001220D4B1A7001210D4801F0E6FF1B
:100E0C00002010BD8022D2051343054A1360CEE7A3
:100E1C00802212061343024A1360C8E700640040A4
:100E2C000000002000E100E0FFFF00FF4022002056
:100E3C004422002010B5094A136802210B431360A9
:100E4C008021C9058023064AD1500022054B1A7017
:100E5C000021054801F0BAFF002010BD00640040DD
:100E6C0000E100E04022002044220020014B1870D9
:100E7C000020704738220020014B18787047C0467C
:100E8C003822002010B51B4B9968E0225205012333
:100E9C0011422DD0174B9B689B019B0F1B01154AD0
:100EAC009918C222520044688C500B000A008932F7
:100EBC00FF32846814608D33FF33C2681A60036894
:100ECC00027C002A02D15A05002301E0DA00042337
:100EDC001343427C501E82415200012003431343B2
:100EEC00C02252008B500521034801F05BFF002308
:100EFC00180010BD0064004044220020002803D0DC
:100F0C00024B1860002070470120FCE73C220020B7
:100F1C0030B587B0204BDB689B073AD01F4B1B6862
:100F2C005B6A01A803821C49D82252008C58042306
:100F3C0023401C00651EAC4184748A580320002B8E
:100F4C0000D1123001A9C2400192134BD822520099
:100F5C009A589207D20FCA74DA2252009858A63ABD
:100F6C00FF3A02400292DC2252009A580392DE228F
:100F7C0052009A580492DA6820210A43DA601B392D
:100F8C00064801F0FBFE064B1B68002B01D001A8A4
:100F9C00984707B030BDC046006400404422002092
:100FAC003C220020034B044A1A60044A9A80044AEB
:100FBC009A607047442200200040014080BBFFFF34
:100FCC0060EA0000F0B5C64600B582B0002201AB65
:100FDC001A80DA4D10239846A84413E0D84A1368B7
:100FEC00D8490B401360D54C207E00F09DFB20634C
:100FFC00A36A9C466044A062D34B1B685B680021CB
:10100C0020009847D14B1B6899B26A46D1801B04CB
:10101C0000D4DDE16B46DC880F231C4075D16B4698
:10102C0006331B88DB06D9D5C54B1B689BB201AABE
:10103C00138013881B0539D401AB1B881BB2002B02
:10104C00E0DABF4A1368C2490B401360BB4CB823AB
:10105C00E05C00F07BFBD023E05000283DD1B74C86
:10106C00B94B1B681B68002120009847B94B1B68C3
:10107C001B041B0CB84A94466344C422A2583E2A53
:10108C003AD9510989B2D20601D1013989B2890202
:10109C00B24A11431980AA490B68B14A1A40C023BD
:1010AC009B015340AF4A13430B60ABE7B823E85C9A
:1010BC0000F04CFB0200D023E850143BE95A4046A8
:1010CC0000F02EFC9E4A1368A1490B4013609E4B06
:1010DC001B689B682800984794E7984C143BE15A8E
:1010EC00C8270200E05900F01BFCD023E358E2595A
:1010FC0094466344E351B2E7510889B2D20701D553
:10110C00013189B289021980C5E7A7008C4B9C4636
:10111C0067443B689BB201AA138013881BB2002B57
:10112C002EDB01AB1B881B0600D46BE73B68854AA2
:10113C0013403B60A3001B19DB00804A94466344B8
:10114C0022331B78002B00D0BAE0A3001B19DB0064
:10115C00D718387E00F0E8FA3863002800D1CDE0CB
:10116C00764AA3001B19DB00D318998B671CBB00B4
:10117C00DB19DB009B580200180000F0BBFBBDE044
:10118C003B68734A13403B60A3001B19DA006B4B9E
:10119C009B18C2331B78002B16D1684B9B18B833A5
:1011AC00187800F0D3FA061E2ED0A3001B19DA0013
:1011BC00624B9B181A00BC321188C8331B680200A2
:1011CC00180000F0ADFB1FE0A3001B19DA005B4B0D
:1011DC009B18B833187800F0A1F943044BD5A30041
:1011EC001B19DA00554B9B18B833187800F03CFBF0
:1011FC00061E31D1A3001B19DA00504B9B18B833D3
:10120C001878002100F054FB3100A3001B19DA0000
:10121C004A4B9B181800D0300268921902600838AB
:10122C00026892190260CC331E68002E08D0A00010
:10123C000019C3004148C018C4300368994234D225
:10124C003E48A3001B19DB00C318B83319783E4B7A
:10125C001B681B68984764E7A3001B19DA00374B1F
:10126C009B181A00BE321188C8331B680200180084
:10127C0000F056FBBEE7A3001B19DA002F4B9B189E
:10128C00B833187800F002FB061EB3D0A3001B196C
:10129C00DA002A4B9B181A00C0321188C8331B681D
:1012AC000200180000F03CFBA4E7B3B22348A100F5
:1012BC000919C9004118B831097800F069FC30E708
:1012CC00A3001B19DB001D4AD318187E00F026F969
:1012DC00430659D5A3001B19DB00184FFF18387EA5
:1012EC0000F0C2FA386300283ED1A3001B19DB00C2
:1012FC00124AD318187E012100F0DAFA0F4EA7001B
:10130C003F19FF00F719387E00F00EFA3863611CA4
:10131C008B005F18FF00BA591218BA51F3195B68A9
:10132C00002B4CD10548A3001C19E4000419217EA4
:10133C00054B1B685B68984764E6C046C0000020FC
:10134C00005C00400F8F000048000020445C00400F
:10135C008F0F0000505C0040066000400080FFFFD3
:10136C008FBF0000808000001B4AA3001B19DB000C
:10137C00D318D98B671CBB00DB19DB009B58020010
:10138C00180000F0B7FAB0E7A3001B19DB00124FEE
:10139C00FF18387E00F07AFA38630028A5D00E4A80
:1013AC00A3001B19DB00D318198C671CBB00DB19BD
:1013BC00DB009B580200180000F09CFA95E70648E9
:1013CC00A1000C19E4000419217E00F037FC19E689
:1013DC0002B004BC9046F0BDC000002010B582B035
:1013EC006B460022DA80394A126892B2DA80DA88C7
:1013FC00374B1B68802109020B401A422ED16B46D9
:10140C00DA88334B1B6813405B052AD46B46DA88A9
:10141C002F4B1B6813409B0402D52E4A2B4B1A6092
:10142C006B46DA882A4B1B681340DB0427D46B46C7
:10143C00DA88274B1B6813401B052CD46B46DA88C3
:10144C00234B1B6813409B0530D46B46DA88204B2A
:10145C001B681340DB0532D402B010BDFFF7B2FDA0
:10146C00CDE71D4A194B1A601C4C1D4B1B681B69A0
:10147C00200098470021200000F0A6FCC6E7194A7E
:10148C00124B1A60164B1B689B6914489847002036
:10149C0001F040FBCBE7144A0C4B1A60104B1B6855
:1014AC005B690E48984701F019FBC7E70F4A074BD9
:1014BC001A600B4B1B68DB6808489847C5E70C4A59
:1014CC00024B1A60072001F025FBC5E7445C004085
:1014DC0050220020FFDF0000FFFB0000C0000020B6
:1014EC0048000020FFEF0000FFF70000FFFD0000A8
:1014FC00FFFE0000014B18607047C046405C004086
:10150C00014B18607047C046445C00400723984369
:10151C00014B18607047C046505C00408000034B84
:10152C009C466044006880B27047C046005C004036
:10153C000A008000044B9C46604403680349194030
:10154C00114389B201607047005C00408F89FFFF36
:10155C008000094B9C4660440368084A1340CA0645
:10156C0001D5102253408A0601D520225340044A4B
:10157C00134303607047C046005C0040BF8F0000FF
:10158C008080000080000A4B9C4660440368094A36
:10159C001340CA0402D58022520153408A0402D55A
:1015AC00802292015340044A134303607047C046A3
:1015BC00005C00408FBF0000808000008000064B64
:1015CC009C466044026880235B001343034A13402B
:1015DC00034A134303607047005C00400F0F000088
:1015EC00808000008000054B9C4660440368044AE0
:1015FC001A40044B134303607047C046005C004024
:10160C000F0F000080C000008000054B9C4660441A
:10161C000368044A1A40044B134303607047C046E6
:10162C00005C00400F0F0000C08000008000064BE3
:10163C009C46604403685B0405D50368034A1A4062
:10164C00034B134303607047005C00400F0F000016
:10165C0080C000008000064B9C46604403685B061B
:10166C0005D50368034A1A40034B134303607047C4
:10167C00005C00400F0F0000C0800000064B1B6890
:10168C001B041B0CC000C018044B9C466044012377
:10169C00994301807047C046505C00400060004098
:1016AC00064B1B681B041B0CC000C018044B9C464B
:1016BC0060440123994301807047C046505C004050
:1016CC0004600040054B1B681B041B0CC000C018B9
:1016DC00034B9C46604401807047C046505C004000
:1016EC00026000400D4B1B681B041B0CC00018183B
:1016FC000B4B9C4660443E2909D94B09CA0601D1C3
:10170C00013B9BB29B02074A1343038070474B0873
:10171C00CA0700D501339B020380F7E7505C0040F9
:10172C00066000400080FFFF064B1B681B041B0C6F
:10173C00C000C018044B9C46604400888005800D96
:10174C007047C046505C004002600040064B1B686E
:10175C001B041B0CC000C018044B9C466044008842
:10176C008005800D7047C046505C0040066000400C
:10177C0030B50B4D2B68C0001B041B0CC318094C57
:10178C00A44663440124A14319802B681B041B0C41
:10179C00C018054B9C466044A243028030BDC04635
:1017AC00505C0040006000400460004010B500290F
:1017BC003BD1294B1B68C0001B041B0C1B18274971
:1017CC008C4663443E2A1AD95109D40601D10139F9
:1017DC0089B28902224C214319801F4B1B681B04C0
:1017EC001B0C18181F4B9C4660445309D20601D1A0
:1017FC00013B9BB29B021A4A1343038017E051082A
:10180C00D40700D5013189021980134B1B681B04C6
:10181C001B0C1818134B9C4660445308D20701D577
:10182C0001339BB29B02038001E0012900D010BD63
:10183C0009490B68C0001B041B0CC318074CA446B9
:10184C0063441A800B681B041B0CC018054B9C4688
:10185C0060440280EBE7C046505C004002600040F0
:10186C000080FFFF06600040064B1B681B041B0C2E
:10187C00C000C018044B9C46604400888005800D55
:10188C007047C046505C004002600040064B1B682D
:10189C001B041B0CC000C018044B9C466044008801
:1018AC008005800D7047C046505C004006600040CB
:1018BC0000290CD0012914D180000A4B9C466044AD
:1018CC000368094A1A40094B1343036009E080007E
:1018DC00044B9C4660440368034A1A40044B134370
:1018EC0003607047005C00400F0F000080C00000D8
:1018FC00C080000010B501325210084B9C46614468
:10190C00002A09D044782402037823430B80023048
:10191C00013A0231002AF5D110BDC04600600040EA
:10192C0001325210064B9C466144002A06D00B88AB
:10193C0003800230013A0231002AF8D17047C046C8
:10194C000060004010B50123837000220271826098
:10195C00C3600120FFF7CEFD0020FFF7CBFD002078
:10196C00FFF7CEFD0020FFF7D1FDBF200002024B98
:10197C001860FFF7BFFD10BD5022002010B50C06FB
:10198C000FD57F240C40A1000919C900183140184B
:10199C00002A0ED001228272C3801B0C038100200E
:1019AC0010BD7F240C40A1000919C900B8314018A2
:1019BC00EEE782728380F2E770B50C0635D57F2690
:1019CC000E40B500AC19E40018340419AD19ED0043
:1019DC00401901254576E260E3707F2008402070B5
:1019EC0003D100226262E261226200222261626102
:1019FC00A261A270012B34D0002B24D0022B27D053
:101A0C00032B29D0A37A002B41D16378002B2DD046
:101A1C00A1882078FFF732FE2078FFF71BFE207894
:101A2C002021FFF795FD002070BD7F260E40B500EC
:101A3C00AC19E400B8340419AD19ED004519B935E9
:101A4C0000202870C7E780218900FFF771FDD9E7D6
:101A5C000021FFF76DFDD5E7C021C900FFF768FD38
:101A6C00D0E78021C900FFF763FDCBE7A188207880
:101A7C00FFF716FEA1892078FFF734FE2078FFF7D8
:101A8C00D5FD2078C0218901FFF77CFDCBE72078BC
:101A9C00FFF794FD2289E1882078FFF769FE6378CF
:101AAC00002B11D02078FFF7C1FD2078FFF7D2FD75
:101ABC002078FFF797FD20780021FFF749FD20786B
:101ACC000021FFF75FFDAEE72078FFF7AFFD207830
:101ADC00FFF7C0FD2078FFF797FD2078C021890122
:101AEC00FFF750FD20780021FFF732FD9BE710B582
:101AFC004BB2002B14DB7F2421408C006418E400D3
:101B0C00B8340419A37A002B1AD16378002B0FD0A8
:101B1C002078FFF79FFD20780021FFF719FD23E0C7
:101B2C007F240C40A1000919C90018314418E9E7B9
:101B3C002078FFF77BFD20780021FFF723FD13E0D1
:101B4C006378002B12D02078FFF770FD2078FFF718
:101B5C0081FD2078FFF746FD20780021FFF7F8FC87
:101B6C0020780021FFF70EFD002010BD2078FFF734
:101B7C005DFD2078FFF76EFD2078FFF745FD20789E
:101B8C000021FFF7FFFC20780021FFF7E1FCEBE7D9
:101B9C0070B582B00500002601967F240C40A00091
:101BAC000019C00028180100C8310A600200CC32AC
:101BBC00136004321660C430026893422AD9019231
:101BCC000199A2001219D200AA18CC325B1A136028
:101BDC00A3001B19DB00EB18C2331B78002B22D09F
:101BEC00019A92B2A3001B19DB00EB181900B93152
:101BFC000978B8331878FFF7D9FDA1000C19E40067
:101C0C002D19B8352878C0218901FFF7BBFC0020BD
:101C1C0002B070BD0193A3001B19DB00EB18CC3391
:101C2C0000221A60D4E7019989B2A3001B19DB00CA
:101C3C00EB18B8331878FFF755FDDEE7F0B583B035
:101C4C000600002001907F240C40A5002919C90032
:101C5C0071180C760D008A62CB6208634A6A934253
:101C6C0033D90192019A9B1ACB62A3001B19DB009A
:101C7C00F31822331B78002B2BD0019A92B2A700B9
:101C8C003F19FF00F719797E387EFFF78FFD387EFC
:101C9C00FFF744FC43062CD5398C019A92B2A86A02
:101CAC00FFF728FEA3001B19DB00F318597E187EE2
:101CBC00FFF7FEFDA1000C19E4003619307E30212F
:101CCC00FFF746FC002003B0F0BD01930023CB626C
:101CDC00CBE7019A92B2A7003F19FF00F719B98B15
:101CEC00A86AFFF707FE019989B2387EFFF7EAFC74
:101CFC00E0E7A3001B19DB00F318D98BCDE700003C
:101D0C0010B54BB2002B11DB8B005918C900B83140
:101D1C0041180878002811D04B78002B1BD10123D7
:101D2C008B7080214901FFF72DFC12E07F230B40C3
:101D3C009900C918C90018314118EAE70948036825
:101D4C00094A1A40094B5340094A134303600123C3
:101D5C008B70002010BD01238B701021FFF7F8FB56
:101D6C00F7E7C046005C0040BFBF00001010000049
:101D7C008080000010B54BB2002B13DB8C00641874
:101D8C00E400B83404196378002B13D12078FFF7E2
:101D9C004DFC2078C0218901FFF7F4FB0023A370D0
:101DAC00002010BD7F2421408C006418E4001834FE
:101DBC000419E8E72078FFF74DFC20783021FFF775
:101DCC00C7FB0023A370EBE7F0B501710024FF27DC
:101DDC000A4E0B4D3800204082000A4B9C46624450
:101DEC00136833402843034313600134042CF1D1AE
:101DFC0080231943044B1960F0BDC0460F0F00003F
:101E0C0080800000005C00404C5C0040044A11687B
:101E1C0080231B020B431360012383707047C04661
:101E2C00585C004010B5074B1868FF2808D0064BCB
:101E3C001A68064B9B6806499847FF22014B1A60AB
:101E4C00002010BD28000020B43200204C000020DF
:101E5C006432002043230B8000487047DC300008BC
:101E6C0010B50400C02300228121FFF787FD8023D9
:101E7C005B00002282212000FFF780FD88235B009D
:101E8C00002203212000FFF779FD0223402281214B
:101E9C002000FFF791FD0223402203212000FFF7D1
:101EAC008BFD0323082282212000FFF785FD054BC3
:101EBC001B6898474023044A03212000FFF768FE63
:101ECC00002010BD4C0000207032002070B50400C2
:101EDC000B008900C918C9004118D0310988064D7A
:101EEC00064B1B692800984740232A000321200039
:101EFC00FFF74EFE002070BD703200204C00002019
:101F0C0010B504008121FFF7F2FD03212000FFF73B
:101F1C00EEFD82212000FFF7EAFD024B5B6898473B
:101F2C00002010BD4C00002070B505000C00097895
:101F3C0060230B402BD0202B24D1E288002A19D00F
:101F4C0049B2002909DB6178294B1960294B1A60C9
:101F5C00294900F09BFC002018E0274E6078274BA5
:101F6C009B6831009847E2883100280000F07AFC29
:101F7C0000200BE06078214B9B68002200219847E1
:101F8C00002003E0210000F01DFB022070BD6378EF
:101F9C000A2B1AD00B2B1ED00020062BF6D16388EF
:101FAC001B0A212B07D0164909313A22280000F0D0
:101FBC0059FC0020EAE7E3881A1C9BB23A2B00D9A3
:101FCC003A2292B20E491231F0E701220D4900F08B
:101FDC0049FC0020DAE7A378002B04D10022094B3E
:101FEC001A600020D2E7210000F0ECFA0020CDE7C7
:101FFC0028000020B4320020643200204C00002065
:10200C00DC300008B832002070B5254B1B78002B53
:10201C0031D0244B1B68002B0FD1234B1B78002B8A
:10202C0003D100221E4B1A7025E000221E4B1A70A1
:10203C0000238121FFF702FE1DE01C4B1A68194B8F
:10204C001B68402B1ED817490C6823041B0C174E19
:10205C003568ED1835600D68ED1A0D6009680029BA
:10206C0002D1A4B2402C09D01204110C104A5218FF
:10207C008121FFF7E3FD002070BD402301240A49B4
:10208C000C70F1E709490B6840330B60054B19687C
:10209C00403919601B68002BEFD04023E4E7C046A1
:1020AC00B03200205C320020603200205832002018
:1020BC005422002070B5374B1B685A1C012B03D0DF
:1020CC00344B1A60002070BD0022324B1A60324B28
:1020DC001B78002BF6D1314B1A6880235B019A4296
:1020EC0034D02E4B1A682E4B1B689A4232D02B4B95
:1020FC001A682B4B1B689A4232D9284B1A688023DA
:10210C005B019B1A274A1360244B1A68254B1B68EA
:10211C00402B32D823490C6823041B0C1F4E356806
:10212C00ED1835600D68ED1A0D600968002902D1B3
:10213C00A4B2402C1DD0012417490C701204110CB0
:10214C00194A52188121FFF779FDBBE70022134B86
:10215C001A60C6E70023114A1360114A1360B1E7F5
:10216C000F4B1B680D4A12689B1A0E4A1360CBE783
:10217C00402301240D490C70DDE708490B684033FE
:10218C000B60084B1968403919601B68002BEFD0A5
:10219C004023D0E76C320020B032002058320020AF
:1021AC00543200205C320020542200206032002087
:1021BC0030B583B005000C004B78092B00D938E101
:1021CC009B009F4AD3589F464A88130A99B2072905
:1021DC0072D89B009B49CB589F46007BB0235B0079
:1021EC00EB581B6801A99847E388402B0CD11A00C7
:1021FC00383B12E0007BAC235B00EB581B6A01A957
:10220C009847B2235B00E85001AB1B88002B00D130
:10221C0013E1E288002A00D10FE1191C934200D986
:10222C00111C8AB201AB19800100280000F01AFBC6
:10223C0003E1D3B2052B33D89A00834B9B589F46AE
:10224C00007BB0235B00EB585B6801A99847DBE788
:10225C00007BB0235B00EB589B6801A99847D3E740
:10226C00007BB0235B00EB58DB6801A99847CBE7F8
:10227C00007BB0235B00EB581B6901A99847C3E7AF
:10228C00007BB0235B00EB585B6901A99847BBE767
:10229C00007BB0235B00EB589B6901A99847B3E71F
:1022AC000021FFF72DFDC8E00021FFF729FDC4E058
:1022BC000021FFF725FDC0E000212800FFF720FDDD
:1022CC00BBE08B88002B19D1CB88002B16D14B8807
:1022DC007F241C408378032B09D004715B4B1C605A
:1022EC0000F0EAFA002C06D00223AB70A5E0002126
:1022FC00FFF706FDA1E00123AB709EE00021280052
:10230C00FFF7FEFC99E08B78514A1370012B08D82B
:10231C008278022A09D0032A16D00021FFF7F0FC9C
:10232C008BE00021FFF7ECFC87E0002B09D0037059
:10233C0003228270190000F07FFA280000F0BCFA2A
:10234C007BE000F0B9FA78E0002B0ED001788B42DC
:10235C0016D000F07FFA3E4B19782970280000F057
:10236C006BFA280000F0A8FA67E0023383700023B0
:10237C000370002100F06EFA280000F09DFA5CE07A
:10238C0000F09AFA59E000230193CB88012B08D175
:10239C008378022B09D0032B0CD00021FFF7B0FC63
:1023AC004BE00021FFF7ACFC47E0012201A900F053
:1023BC0059FA42E00122010000F054FA3DE00023FA
:1023CC0001938378023B012B0CD801230193836882
:1023DC00002B01D003230193022201A9280000F055
:1023EC0041FA2AE00021FFF78BFC26E04B88012BF9
:1023FC0023D183605833FF33C3589B689847280018
:10240C0000F05AFA19E08378023B012B0DD84B8867
:10241C00012B12D1002383605933FF33C3589B68BF
:10242C009847280000F048FA07E00021FFF768FC05
:10243C0003E000212800FFF763FC002003B030BD4F
:10244C00203100084831000868310008BC320020F7
:10245C00BF33002070B504000E008378032B17D116
:10246C000B79012B05D90021FFF74AFC0025280028
:10247C0070BDAC235B00C3589B6898470500F3887C
:10248C00002BF4D10028F2D1200000F015FAEEE771
:10249C000021FFF735FC0025E9E730B583B00500D6
:1024AC000C00002301938A88D1B26378012B25D0CC
:1024BC00002B43D0032B1ED18378022B05D0032B8A
:1024CC0008D00021FFF71CFC15E04B0613D0FFF7DA
:1024DC0017FC10E06388002B03D14B0601D0FFF7EB
:1024EC000FFCAC235B00EB589B682100280098473D
:1024FC00280000F0E1F9002003B030BD8378022BF6
:10250C0005D0032B08D00021FFF7FAFBF3E74B06AD
:10251C00F1D0FFF7F5FBEEE76388002B03D14B06F8
:10252C0001D0FFF727FCAC235B00EB589B68210024
:10253C0028009847280000F0BFF9DCE78378022BCD
:10254C0005D0032B08D00021FFF7DAFBD3E74B06AD
:10255C00D1D0FFF7D5FBCEE713060FD48B0059185B
:10256C00C9004118BA310B78002B01D0012301931B
:10257C00022201A9280000F075F9BCE77F230B406B
:10258C009900C918C90041188B7E002BF0D001238B
:10259C000193EDE7037C0B70437C4B70C27C120201
:1025AC00837C9B184B80427D1202037D9B188B8091
:1025BC00C27D1202837D9B189BB2CB80C363012327
:1025CC004370704710B50021FFF79AFB10BD30B572
:1025DC0000281FD00378002B07D004000023013300
:1025EC00DBB201342578002DF9D15B000233138066
:1025FC000B7003234B700478002C0BD0013B00258F
:10260C005A1CD2B20130CC540233DBB28D54047854
:10261C00002CF5D130BD10B50400AE235B00C358BF
:10262C001B699847E378A370002010BD10B5837820
:10263C00C370042383705933FF33C358DB68984746
:10264C00002010BD10B5AC235B00C358DB69002B18
:10265C0000D09847002010BD10B504004023002284
:10266C000021FFF78BF98023002280212000FFF747
:10267C0085F90023402200212000FFF79DF900235B
:10268C00402280212000FFF797F90123A370207BC3
:10269C005C33FF33E3585B689847002010BD10B5DE
:1026AC0082B004006946FFF775FF6B4619781F234B
:1026BC000B40012B10D0002B07D0022B11D07F2305
:1026CC0099432000FFF71CFB03E069462000FFF74D
:1026DC006FFD002002B010BD69462000FFF7BAFE66
:1026EC00F7E769462000FFF7D8FEF2E770B5040063
:1026FC0000293DD14378022B0CD0042B41D1234B24
:10270C00196800293DD0C9B2FFF75EFB00221F4BB0
:10271C001A6036E0436B456AAB4218D8866B2900C9
:10272C00300000F0ADFB002904D1B54202D8E36BB8
:10273C009E4213D3AC235B00E358DB68002B02D022
:10274C00A278032A11D0200000F0C0F819E05D1B1C
:10275C004563AAB2816A00F091F812E000222000D1
:10276C0000F08CF80023E3630BE020009847EAE7C5
:10277C00AC235B00C3585B69002B02D08278032A20
:10278C0001D0002070BD9847FBE7C046BC3200204A
:10279C0010B50400002924D14378032B2AD103005F
:1027AC00B833D969DA6891420CD8AC235B00C358B2
:1027BC001B69002B02D08278032A10D0200000F075
:1027CC007BF817E0891AD9618A4200D90A0092B2C3
:1027DC002300B8331969200000F066F80AE0984726
:1027EC00ECE7AC235B00C3589B69002B02D08278CA
:1027FC00032A01D0002010BD9847FBE7F8B5040070
:10280C000E0015001F0000F06FF8AC235B00E550C4
:10281C00AE256D0067510833E65000F03FF92000FB
:10282C00FFF790F863591B689847200000F084F874
:10283C002000FFF7EBFAF8BD10B50400AC235B00E9
:10284C00C3581B689847AE235B00E3589B689847B6
:10285C00002010BD10B5AC235B00C3585B689847D3
:10286C00002010BD10B51300826342630222427037
:10287C000A000021FFF7E2F9002010BD10B513008B
:10288C000A000021FFF7DAF9002010BD10B5130083
:10289C00D8228350043A8350D13A42700A00002166
:1028AC00FFF776F9002010BD10B513000A000021C7
:1028BC00FFF76EF9002010BD10B504234370002300
:1028CC0000220021FFF7BAF9002010BD10B5052336
:1028DC004370002300220021FFF75AF9002010BD9D
:1028EC0010B5FEF77BFD10BD104BD9698022120488
:1028FC000A43DA611A6B80218A431A63D9698022F0
:10290C0012050A43DA610A4B5A680A490A405A60AE
:10291C005968802292050A435A601A6840210A437A
:10292C001A601A6820390A431A6070470010024076
:10293C00006C0040FFFFFFCF064AC72080001358F1
:10294C001B021B0A8021C9050B43135080231B0655
:10295C001360704700E100E00020704700207047D2
:10296C0000207047F0B5D6464F464646C0B5804667
:10297C0000291DD0114B1B689C4600240020104FD1
:10298C00104D114B9A46B9460CE0634511D00130FD
:10299C0080B24646345D5646B4544A461360040031
:1029AC00884206D23A68531CAB42EED90023ECE7BE
:1029BC0000201CBC90469946A246F0BD583200201F
:1029CC0054320020FF0F00005422002010B5FDF7F8
:1029DC0073FE10BD12230B80004870478031000835
:1029EC0004230B8000487047943100081A230B8095
:1029FC00004870476000002010B5002A14D00B006E
:102A0C00013AD2B2013252008918002406E0373262
:102A1C001A7000015C7002338B4205D0020F092A38
:102A2C00F5D830321A70F4E710BD000010B50A006A
:102A3C00034C21000348FFF7CAFD200010BDC0461F
:102A4C00C0320020C831000810B50A00034C210028
:102A5C000348FFF7BCFD200010BDC046C03200206B
:102A6C00B431000810B50A00034C21000348FFF7ED
:102A7C00AEFD200010BDC046C032002098310008C9
:102A8C0010B50A00034C21000348FFF7A0FD2000FD
:102A9C0010BDC046C0320020A431000870B50B4BED
:102AAC0018680B4B1B68C018002800D170BD094B6F
:102ABC001D68094CA11C0822FFF79EFF2100123152
:102ACC0004222800FFF798FFF0E7C046ACF7FF1F81
:102ADC00B4F7FF1FB0F7FF1F60000020054A136812
:102AEC009BB208210B43136013689BB204390B4350
:102AFC0013607047405C0040044B1A6804490A405C
:102B0C001A60BF2212021A607047C046405C004037
:102B1C00FBFF000010B5072801D02C4B18702B4B75
:102B2C001B78DBB2052B4CD89B00294AD3589F4607
:102B3C00284B1B68002B03D00522244B1A700DE088
:102B4C00FFF7DAFF0622214B1A7007E0FFF7D4FFDC
:102B5C0004221E4B1A70033A1E4B1A6010BD1B4BFD
:102B6C0002225A7001321A70F8E7184A5378013B66
:102B7C00DBB253705378002BF0D10422134B1A7034
:102B8C00ECE7154A13689BB210210B4313600F4BF3
:102B9C0005221A7005325A70E0E70C4A5378013B53
:102BAC00DBB253705378002BD8D10B4A13680B4906
:102BBC000B4013600622054B1A700022054B1A605D
:102BCC00CCE70622014B1A70C8E7C046C033002080
:102BDC00EC310008C4330020405C0040EFFF0000E3
:102BEC007047704770477047704700000368802239
:102BFC00D205934231D0364A934234D0354A93426F
:102C0C0037D0354A93423AD0344A93423DD0344A75
:102C1C00934241D0334A934245D0334A934249D0F0
:102C2C00324A93424DD08388013B9BB20268138594
:102C3C0002688368013BD362036800225A62012355
:102C4C000268938202680121138A0B42FCD0002394
:102C5C001382036801221A807047254AD369012127
:102C6C000B43D361DFE7224AD36902210B43D361C3
:102C7C00D9E71F4AD36910210B43D361D3E71C4A10
:102C8C00D36920210B43D361CDE7194AD169802345
:102C9C005B000B43D361C6E7154A916980231B0186
:102CAC000B439361BFE7124A916980235B020B438C
:102CBC009361B8E70E4A916980239B020B439361A1
:102CCC00B1E70B4A91698023DB020B439361AAE7BE
:102CDC0000040040001000400014004000200040A0
:102CEC00002C0140004001400044014000480140DC
:102CFC000010024010B50400FFF778FF0023226893
:102D0C00138322681384104AC52189005358FF206D
:102D1C0083437F380343535080235B0313600B4A78
:102D2C0051698023DB020B435361094B1A68094933
:102D3C000A401A601968084A0A431A609A8A0749B5
:102D4C000A409A8210BDC04600E100E0001002402B
:102D5C0000040048CFFF0FFF10005000FBF3FFFFF3
:102D6C008368013B994200D919000268506A1B1A0A
:102D7C0040188B4200D37047C81AFCE770B50400AA
:102D8C000568FFF7EDFF68632268938902210B4306
:102D9C009381034B1A68596801238B40936170BD72
:102DAC00D433002070B504000568FFF7D9FFA86381
:102DBC002268938904210B439381034B1A68596849
:102DCC0001238B40936170BDE0330020002907D1B3
:102DDC00074B1A68596880235B028B4093617047DC
:102DEC00034B1A68596801238B409361F7E7C0467F
:102DFC00C8330020124B1B8A9BB29A070ED5104A7F
:102E0C00118A0220814311829189814391810D4A5B
:102E1C00116850688022520282408A615B070ED58D
:102E2C00074B1A8A04218A431A829A898A439A8107
:102E3C00054B1A68596880235B028B40936170477D
:102E4C0000400140D4330020E0330020084B0949F6
:102E5C0019600B225A600A3A9A60074B19600A20D3
:102E6C0058609A60054B1960022159609A6070474E
:102E7C00C833002000040048D4330020E033002085
:102E8C000A0010D00300400800E052008242FCD936
:102E9C00002000E05208934200D39B1A40418A4222
:102EAC00F8D11900704700207047C046030000207D
:102EBC007F2B04D8024AD35C024A505C18407047FE
:102ECC0004320008843200080200613A0300192A17
:102EDC0000D8203B180070470200413A0300192A21
:102EEC0000D8203318007047030000207F2B04D833
:102EFC00024AD35C024A505C184070470432000806
:102F0C00843200080200613A0300192A00D8203BE1
:102F1C00180070470200413A0300192A00D82033E8
:102F2C00180070477F2902D80170012070472F20AC
:102F3C004042FBE710B50024002A0AD00C787F2C05
:102F4C0009D8002800D0048000221A605A60601E44
:102F5C008441200010BD2F246442FAE710B5034BC6
:102F6C005B689B681B68984710BDC046AC0000208E
:102F7C0010B50421FFF7F2FF10BD00008446002AB3
:102F8C0003D001700130013AFBD160467047C04656
:102F9C00411C02780130002AFBD1401A7047C04610
:0C2FAC00110C0008B10F0008592E00089D
:102FB8004009000878090008780900080E09000887
:102FC80078090008780900087809000878090008D5
:102FD8007809000838090008B40A000878090008C8
:102FE8002009000878090008780900089A0A0008EA
:102FF800B40900089A0A000878090008FC080008C3
:1030080078090008780900087809000846090008C6
:103018007809000878090008780900087809000884
:103028007809000878090008780900087809000874
:103038007809000878090008780900087809000864
:103048007809000878090008780900087809000854
:103058007809000830090008260B000878090008DC
:103068007809000878090008780900087C0A00082F
:10307800FE0900087C0A000878090008E80800082A
:10308800F6090008D6090008DA090008DE09000870
:10309800E2090008E6090008EA090008EE09000844
:1030A8003031323334353637383941424344454676
:1030B8000D000000070000007653544D3332000025
:1030C8005630313032000000463030007A000000BF
:1030D8005A00000009024300020100C0320904003E
:1030E800000102020100052400100105240100016D
:1030F800042402020524060001070582030800FFD4
:1031080009040100020A000000070503024000004C
:103118000705810240000000CA23000812240008A5
:103128003E240008F82300083E240008CE220008A8
:10313800D42100083E240008922300081223000826
:10314800C4220008E6210008002200083E220008E8
:10315800C4220008C4220008B4220008BC220008C7
:103168004C2200085C2200086C2200087C2200081F
:103178008C2200089C220008120100020000004076
:1031880083044057000201020301000004030904FC
:1031980056435020436F6E666967000056435020BF
:1031A800496E7465726661636500000053544D6929
:1031B80063726F656C656374726F6E696373000028
:1031C80053544D3332205669727475616C20436FC5
:1031D8006D506F727420696E204653204D6F646580
:1031E800000000003C2B0008582B00086A2B000840
:1031F800762B00088E2B0008A62B00082020202004
:10320800202020202068282828282020202020204E
:1032180020202020202020202020202048101010AE
:1032280010101010101010101010101084848484C6
:10323800848484848484101010101010108181817B
:1032480081818101010101010101010101010101E6
:103258000101010101010110101010101082828279
:1032680082828202020202020202020202020202B6
:1032780002020202020202101010102000070320AE
:103288000417020108571040800000003834000875
:10329800FC3200081034000853756E004D6F6E0044
:1032A8005475650057656400546875004672690076
:1032B80053617400000000004A616E0046656200B8
:1032C8004D617200417072004D6179004A756E005F
:1032D8004A756C0041756700536570004F63740050
:1032E8004E6F76004465630000000000414D0050B9
:1032F8004D00000034340008303400083034000831
:103308003034000830340008303400083034000805
:10331800303400083034000830340008FFFFFFFF65
:10332800FFFFFFFFFFFFFFFFFFFF000070330008F4
:10333800A0320008AC330008C0320008F43200089C
:10334800543300080434000860330008256D2F2525
:10335800642F25790000000025612025622025655D
:10336800202554202559000053756E646179004D5D
:103378006F6E64617900547565736461790057658F
:10338800646E6573646179005468757273646179F9
:103398000046726964617900536174757264617979
:1033A800000000004A616E756172790046656272BC
:1033B80075617279004D6172636800417072696C61
:1033C800004D6179004A756E65004A756C79004157
:1033D80075677573740053657074656D6265720006
:1033E8004F63746F626572004E6F76656D626572C9
:1033F80000446563656D62657200000025483A25E2
:103408004D3A255300000000B92E0008D52E0008BB
:10341800E52E0008F52E0008112F0008212F0008BE
:10342800312F0008412F0008000000002E00000086
:0C34380043000000504F534958000000B2
:10344400020067006D1E00080D1F0008351F0008EC
:1034540000000000311E000815200008D91E0008D5
:10346400C1200008611E0008FF0000009D2700081D
:10347400F9260008AB260008512600086526000836
:1034840039260008232600082C000020652900089E
:10349400692900086D29000871290008D929000844
:1034A4001A030000000000000000000000000000FB
:1034B400000000000000000000000000E1290008F6
:1034C400ED290008552A0008392A0008F9290008BE
:1034D400712A00088D2A0008ED2B0008EF2B000844
:1034E400F12B0008F32B0008F52B00089432000898
:1034F4009432000894320008943200089432000890
:040000050800033DAF
:00000001FF
