:020000040800F2
:100000000040002039030008610300086303000872
:1000100000000000000000000000000000000000E0
:100020000000000000000000000000006503000860
:1000300000000000000000006703000869030008DA
:100040006D0300086F0300087103000873030008C4
:100050007503000877030008790300087B03000894
:100060007D0300087F030008810300088303000864
:100070008503000887030008890300088B03000834
:100080008D0300088F030008910300089303000804
:100090007D31000897030008990300089B030008BE
:1000A0009D0300089F030008A1030008A3030008A4
:1000B000A5030008A70300084D140008852C0008BC
:1000C00001213F4A3F48136882B00B4313605368D5
:1000D0000340536013683C480340136013683B4877
:1000E0000340136053683A4803400F205360D36ABB
:1000F0008343D362136B374803401363536BA020D1
:100100008B43536300239360009301938023116812
:100110005B020B43802113608902C00102E0009B57
:10012000834208D013680B400193009B0133009376
:10013000019B002BF3D0224B1A68802311009B02F5
:1001400019401A4230D0012301931122224B1A6028
:100150001B4B5A685A605A685A60019A012A25D086
:100160005A681E490A405A60A022596892030A43FD
:100170005A608023124A5B0411680B43802113608C
:10018000890413680B42FCD0032153688B435360EE
:10019000536801390B4353600C2209494B681340E3
:1001A000082BFBD102B070470191CEE75A680B498A
:1001B0000A405A609822596852030A435A60D8E7A5
:1001C000001002400CB8FF08FFFFF6FEFFFFFBFF28
:1001D000FFFFC0FFACFEFFFF00200240FF7FC0FF1B
:1001E000354936480A1A02D0072291438D463449D0
:1001F00034480A1A06D00722914381F30988022263
:1002000082F3148830483149314A00F043F83148CC
:100210003149324A00F03EF831483249324A00F062
:1002200039F832483249334A00F034F83248334919
:10023000334A00F02FF833483349344A00F02AF8A3
:1002400033483449344A00F025F834483449002210
:1002500000F02BF833483449002200F026F83348E8
:100260003349091A082903DB0022026004300160C7
:100270001F482049884205D00268043003B49047E3
:1002800003BCF7E700208646EC4600200021294AFF
:100290009047FEE7884207D0521A05D00378013014
:1002A0000B700131013AF9D17047884202D00270D7
:1002B0000130FAE77047000000400020003E0020B7
:1002C000004000200040002068420008000000209C
:1002D000BC000020AC030008AC030008923B0008FF
:1002E000684200080000002000000020943B000845
:1002F000943B0008A03B0008943B0008943B000896
:10030000943B0008A03B0008A03B0008684200089E
:1003100024430008BC000020BC000020BC000020DA
:10032000043400200434002004340020043400206D
:1003300004340020310A00080448054988438546F2
:100340000448804704480549016049E7004000200F
:1003500007000000C100000808ED00E000000008F0
:10036000FEE7FEE7FEE7FEE7FEE7FEE7FEE7FEE765
:10037000FEE7FEE7FEE7FEE7FEE7FEE7FEE7FEE755
:10038000FEE7FEE7FEE7FEE7FEE7FEE7FEE7FEE745
:10039000FEE7FEE7FEE7FEE7FEE7FEE7FEE7FEE735
:0C03A000FEE7FEE7FEE7FEE7FEE7FEE7F3
:1003AC00F0B54546DE4657464E46E0B5837C804662
:1003BC0095B0002B00D133E1C37CB54D1A009C469F
:1003CC00534253415B0006AC0AAF52333B702100E1
:1003DC000368280099464CC84CC1036883460B60DF
:1003EC004B461B0FE35C2E007B7023008A4607CE26
:1003FC0007C35B4652461B6813604B460F221E0E0A
:10040C001640A65D2B00BE70260007CB07C65146D2
:10041C001B680F220B604B461E0D1640A65D230079
:10042C00FE702E0007CE07C35B4651461B680F2299
:10043C000B604B461E0C1640A65D23003E712E0031
:10044C0007CE07C35B4651461B680F220B604B4619
:10045C001E0B1640A65D23007E712E0007CE07C32F
:10046C005B4651461B680F220B604B461E0A16401A
:10047C00A65D2300BE712E0007CE07C35B46514616
:10048C001B680F220B604B461E091640A65D23000D
:10049C00FE712E0007CE07C35B4651461B680F2228
:1004AC000B604B461340E35C3B720B239946013BBC
:1004BC000493013B9A464346290058682300059053
:1004CC0045C945C30968524619600F230598034076
:1004DC00E35CBB546346002B35D1002833D0049B1E
:1004EC004146FA180F23B9469C46404403900095A8
:1004FC0020000B7A009E9B46A8CEA8C002963768B7
:10050C005E46019007603709E75D009B1770270076
:10051C0061CB61C7029D01982B6801310360634672
:10052C0058461840235C5370039B02329942DFD12A
:10053C00049A059B94465B009C44634604930133E8
:10054C004F469946009D00F01DFF002840D04346C1
:10055C00280021001B8A98464CC84CC1036883466E
:10056C000B6043461B0BE35C049E8A46BB552E0076
:10057C00230007CE07C35B4652461B6813604346F5
:10058C001B0A1E000F224B461640A65D2A00FE5485
:10059C0026000BCA0BC65B461A6853461A604346C4
:1005AC000F221E091640A25D049EBE19B2702200D5
:1005BC000BCD0BC25B461A6853461A600F2243469A
:1005CC001340E35CF370049B5A1D9146043304936F
:1005DC000D23049ABB544B46002B1AD080230025C4
:1005EC0000224E462B4C5B01E1582B4BE0584B1C28
:1005FC001B051B0D834203D0B95C0125E154190086
:10060C000132D2B2B242F2D3002D02D080235B0170
:10061C00E15015B0F0BCBB46B246A946A046F0BDB1
:10062C00C37C1B4D1A009C465342534106AC0268D6
:10063C00210028005B000AAF723300923B704CC85B
:10064C004CC1036889460B600F23009A9B46160A1F
:10065C001E40A65D2B007E702600824607CB07C687
:10066C0049461B680B605B46009A16091E40A65D46
:10067C002300BE702E0007CE07C3534649461B68A5
:10068C000B605B46009A1340E35CFB7006230DE79E
:10069C00A03B00083C12002004100000F0B55746A7
:1006AC00DE464E464546E0B53F4B84461B780F0070
:1006BC008BB05B0606D40BB0F0BCBB46B246A94669
:1006CC00A046F0BD452305AC2370384B01AD9B46CD
:1006DC002B005A4643CA43C3924612681A606346BB
:1006EC001B09EB5C5A4663702B0043CA43C3126868
:1006FC0060461A600F23184098462B5CA37000F0DC
:10070C0041FE00281ED1042503230D22E254802330
:10071C0000270022264E5B01F158264BF0584B1C4B
:10072C001B051B0D834203D0A15C0127F15419005A
:10073C000132D2B2AA42F2D3002FBCD080235B018B
:10074C00F150B8E72B005E4607CE07C3524612683D
:10075C005E461A6042463B0B1340EB5CE3702B0089
:10076C0007CE07C3524612685E461A6042463B0AE1
:10077C001340EB5C23712B0007CE07C35246126863
:10078C005E461A6042463B091340EB5C63712B00DA
:10079C0007CE07C3524612681A6043461F40EB5DF2
:1007AC000825A3710723B0E724020020A03B000812
:1007BC003C1200200410000070B5002911D08024D8
:1007CC00094A0A4B4118D5586401135901331B05CA
:1007DC001B0DAB4202D006781351D6540130814226
:1007EC00F3D1002070BDC04634020020041000007C
:1007FC00F0B5DE4657464E4645460023E0B589B077
:10080C000393542800D1B9E0522847D002AA13759B
:10081C00722800D0BEE0012302AA537500210822E1
:10082C0005A803F0A0F9012305219B460022802393
:10083C0092460026904679485B01C358049C9C461E
:10084C00774B0092C3589C45FDD001331B051B0D03
:10085C00C25C0D2A00D1CAE0072954D908292AD133
:10086C001400303C092C6CD85A46E4B2002A00D053
:10087C00CAE0002C00D072E0694A83505346002B2A
:10088C0000D003960023049303A800F087FD09B061
:10089C00F0BCBB46B246A946A046F0BD022302AA54
:1008AC00FF3393820021082205A803F05CF9012391
:1008BC0000219B46BAE745466F0803ADED192D7A2A
:1008CC002D01EDB2019530256D42A94691444D465E
:1008DC00092D23D84A46019D1543EDB203AA914632
:1008EC0001224F449146C8443D726200424513D8E0
:1008FC004B4A83505346002B00D00396009B002B91
:10090C00C2D00494C0E71500303D3601092D2AD819
:10091C00EDB2012292462E43013194E761256D42DE
:10092C00A94691444D46052D4DD941256D42A94608
:10093C0091444D46052D56D8019D373A1543EDB2DD
:10094C00CCE71400613C052C2FD91400413C052C3C
:10095C0041D85D46373AD2B21400002D2BD101227A
:10096C00013100926FE71500613D052D30D915005E
:10097C00413D052D39D8373AD5B2CAE7012302AA31
:10098C0093820021082205A803F0EDF80023002132
:10099C009B464BE702AA53750021082205A803F0D9
:1009AC00E2F8002305219B4640E75D46573AD2B258
:1009BC001400002DD3D01A4943505346002B00D0BD
:1009CC000396049260E7019D573A1543EDB285E713
:1009DC00573AD5B29DE75A46002A0CD10122FF2482
:1009EC00009201312FE7FF2578E7FF2591E70C4AAC
:1009FC00835001204BE70A4A83505346002B00D00A
:100A0C000396FF2304933FE7054A83505346002B7C
:100A1C0000D176E70396049436E7C04634020020F2
:100A2C00041000008023F0B5DE46454657464E467E
:100A3C00D94ADB025169E0B50B435361D74BD84916
:100A4C001A688BB00A401A608022196852030A4354
:100A5C001A6000F05FFBD34800F0DEFCD24800F0D7
:100A6C00E5FC02F04FFD02F039FCD04B002098461B
:100A7C00190002F007FC43469D1C040029000220CB
:100A8C0002F000FC43460443191D042002F0FAFB5B
:100A9C004346A4B2991D0443062002F0F3FB4146E1
:100AAC00A4B204430831082002F0ECFB4146A4B286
:100ABC0004430A310A2002F0E5FB4146A4B2044388
:100ACC000C310C2002F0DEFBA4B20443A4B243466A
:100ADC00002C2AD11B78DA0600D5F2E21B071B0F7B
:100AEC00072B00D9E9E2B24A9B00D058019200F0E2
:100AFC00A9FB434618788006C00F00F03DFC434626
:100B0C001878C00900F044FC4246434690895B8942
:100B1C000004184300F05AFB424643461089DB8818
:100B2C000004184300F03EFB06E001225B7893437F
:100B3C00424653709E4B01939E4B9F4A9F49A0483F
:100B4C0002F028F89F4BA04D9946A04BA04C9A461A
:100B5C00A04B9B468023A0495B01EA586B589342FB
:100B6C0016D001331B051B0DE85C6B5001003F399F
:100B7C00C9B237290CD84E46890071588F46FFF7F9
:100B8C0037FE002800D1AEE05846012102F0B4F83F
:100B9C008027914E7F01A359E2599342DAD0013359
:100BAC001B051B0DE35C02AA01211000137002F05F
:100BBC00A3F80128CED1E259A3599A42CAD00133E5
:100BCC001B051B0DA3519A42E9D1C3E7FFF710FE99
:100BDC000028D9D10121814802F08EF85046D4E783
:100BEC007F49804802F088F843465B787E4ADB07F1
:100BFC0000D47E4A7E4902A802F08AFF02A802F0C5
:100C0C00BBFF010002A802F077F843461A78D3061E
:100C1C0000D44DE24346FE215A889B8809021B04EE
:100C2C001343DA09DB051140DA0D0A43714902A8B6
:100C3C0002F06EFF02A802F09FFF010002A802F072
:100C4C005BF843461A786C499206D20F303202A8F0
:100C5C0002F05EFF02A802F08FFF010002A802F072
:100C6C004BF843461A7865495206D20F303202A827
:100C7C0002F04EFF02A802F07FFF010002A802F072
:100C8C003BF843461A785E49D209303202A802F08A
:100C9C003FFF02A802F070FF010002A802F02CF83E
:100CAC004246434692895B8912041A43554902A86D
:100CBC0002F02EFF02A802F05FFF010002A802F072
:100CCC001BF8424643461289DB8812044E491A43EC
:100CDC0002A802F01DFF02A802F04EFF010002A8BC
:100CEC0002F00AF854E70121484802F005F8504692
:100CFC004BE700F01DFB0700002F00D044E75046E7
:100D0C0043E70023344A0020A350043AA35000F0D8
:100D1C009DFA0700F0E7022000F098FA0700EBE7D5
:100D2C0003213B4801F0E8FF50462EE706213948E5
:100D3C0001F0E2FF504628E7012000F087FA070097
:100D4C00DAE70521344801F0D7FF50461DE701339F
:100D5C001B051B0DEE5C204A313EAB5073425E41CD
:100D6C00F6B2300000F008FB43461B7807009A06E9
:100D7C00D20FB242C0D02022934342467601334375
:100D8C001370434601225B78002013434246537094
:100D9C00118802F055FBAFE7001002400004004838
:100DAC00FFFFCFFFAD030008A906000824020020B6
:100DBC00BC400008A8000020140000208C0000207B
:100DCC00BC000020DC3F000834020020C03B0008BF
:100DDC003C120020BC3B000804100000DC3B000867
:100DEC00A1030000E03B0008B83B0008B43B00083E
:100DFC00843F0008A43F0008B43F0008BC3F000833
:100E0C00C43F0008CC3F0008D43F0008D83B000882
:100E1C00D43B0008C43B0008CC3B000801331B0545
:100E2C001B0DEE5CAC4A303EF6B2AB50072E00D830
:100E3C003AE1AA4800F006FA43461B780700DA06A6
:100E4C0004D41B071B0FB34200D155E743460F21B7
:100E5C001B88A34A0E40F1313143134019434346DA
:100E6C000020198002F0ECFA46E701331A05120D46
:100E7C00AB5C9949313B6A505A4253414246127815
:100E8C00DEB25106C90F99420ED04021B3018A43FC
:100E9C001A4343461A7001225B78002013434246E2
:100EAC005370118802F0CCFA434640221B78B601ED
:100EBC009343424633435046137066E601331B0599
:100ECC001B0DEE5C844A313EAB5073425E41F6B270
:100EDC00300000F05DFA43461A780700D309B3429C
:100EEC0000D109E77F23F60113401E4343461E70D1
:100EFC0048E7082700269A42FDD001331B051B0D3D
:100F0C00E95C360108003038092800D9A6E0C0B2E7
:100F1C0006430D2903D0013FFFB2002FEBD16E4ADF
:100F2C003000AB5000F03EF94346D9881B890700CE
:100F3C001B040B43B34200D1DEE64246330CB1B284
:100F4C0006201381D18002F07BFA434608201989D0
:100F5C0002F076FAD0E6082700269A42FDD001333B
:100F6C001B051B0DE95C36010800303809286DD8CB
:100F7C00C0B206430D2903D0013FFFB2002FECD1C4
:100F8C00554A3000AB5000F021F9434659899B89F2
:100F9C0007001B040B439E4200D1ADE64246330CC6
:100FAC00B1B20A209381518102F04AFA43460C20D7
:100FBC00998902F045FA9FE6042000269A42FDD05A
:100FCC0001331B051B0DE95C36010F00303F092F67
:100FDC0034D8FFB23E430D2903D00138C0B20028EB
:100FEC00ECD13D4AF105AB50FE23F601DB03C90DF4
:100FFC001E400E43300000F0FBF8434659889B8896
:10100C0007001B040B43B3420CD04246330CB1B265
:10101C0002209380518002F013FA434604209988F1
:10102C0002F00EFA43461B78DB0600D564E6434615
:10103C0019882C4B0B40882149000FE70F00613FAA
:10104C00052F13D85739C9B20E43C6E708006138CB
:10105C00052813D85739C9B20E438DE708006138FB
:10106C00052813D85739C9B20E4354E70F00413F36
:10107C00052F13D83739C9B20E43AEE708004138F3
:10108C0005280DD83739C9B20E4375E70800413829
:10109C00052807D83739C9B20E433CE7FF2799E733
:1010AC00FF2066E7FF2033E7019AB300D058C1E672
:1010BC001207120F0C493032B9E50C4B074801935B
:1010CC0015E5434668885B880004184300F090F8E7
:1010DC00064B01930DE5C0460410000002006700AA
:1010EC00E0FEFFFFEFFEFFFFAC3F0008BC40000836
:1010FC00802000230449054A40010B508B500449C1
:10110C000B508B507047C046340200200410000076
:10111C003C12002080231E4ADB02516910B50B43A0
:10112C0053611C4B1C481968812401401960A02193
:10113C00186809030143FF201960596AA400814310
:10114C005962596ABB38014359628023D1699B04A7
:10115C000B43D36146220121104B1A60BB32FF3284
:10116C0098580843985000201851083419510834E5
:10117C001851083419512434185104341851985802
:10118C0088439850064801F071FF002010BDC046FE
:10119C000010024000040048FFFFF0FF0064004014
:1011AC0054220020802210B50124074B920099583C
:1011BC00C0432143995091218900585099580020DF
:1011CC00A143995010BDC04600640040802210B568
:1011DC000124064B92009958214399509021890083
:1011EC00585099580020A143995010BD00640040FC
:1011FC000F4A104B11680B400F49084018430F4B16
:10120C0010601B78002B10D001210D4A13680B4382
:10121C00136053681942FCD0D06113688B43136080
:10122C00012207494B681A42FCD100207047C04686
:10123C001000002000FC80FCFF037F0350220020E4
:10124C000064004010B5FFF7D3FF10BD8021304A79
:10125C000902136810B50B43136013680B42FCD1E1
:10126C00012113680B431360294A53681942FCD0BF
:10127C00442113680B431360264B1B78002B37D08B
:10128C00136834390B431360234A13689B009B0883
:10129C00012837D0022802D1802109060B431360A4
:1012AC0001211B4AD36113688B43136053681942A5
:1012BC00FCD1042353605069184BC724034302200C
:1012CC0053611368A40083431360154B15481A59D6
:1012DC0010408022D20302431A518022D2051A6098
:1012EC00114B12481970012101F030FF002010BD84
:1012FC00102113688B431360074A13689B009B08EB
:10130C000128C7D18021C9050B431360C8E7C0462B
:10131C0000640040452200201000002002880000DC
:10132C0000E100E0FFFF00FF5022002054220020CB
:10133C0002210C4A10B513680B4313605368194211
:10134C00FCD0094B802193608023084AC905D150F9
:10135C000022074B074800211A7001F0F7FE00200D
:10136C0010BDC046006400408080800000E100E0B9
:10137C005022002054220020014B1870002070478E
:10138C0044220020014B18787047C04644220020AC
:10139C00014B18700020704745220020E0211A4AAA
:1013AC0010B594684905030001200C4226D09268C0
:1013BC0015499201920F5C68120184305118FF306C
:1013CC000C5012489C681018046011488446D86868
:1013DC0062441060187C1A68002810D152055B7C9E
:1013EC00002B01D002231A4301231A438033FF330D
:1013FC000848CA50052101F08BFE002010BD0420C6
:10140C00D2000243EBE7C046006400408865004010
:10141C008C65004054220020002803D0024B186039
:10142C00002070470120FCE748220020002803D050
:10143C00024B1860002070470120FCE74C22002072
:10144C00042270B5244B86B059680A420BD05A60FE
:10145C009869224B1B68002B05D0214A4006126864
:10146C00400F516A98471C4AD3689B0731D0D8214A
:10147C0011261B484900036801AC5B6A2382535850
:10148C0055585B07DB0FA3745B42B3431533DD4048
:10149C00019553589B07DB0FE374DA235B00D1589B
:1014AC00A63BFF3B0B400293DC235B00D35820216F
:1014BC000393DE235B00D3580493D3680B43D360B0
:1014CC001B3901F007FE074B1B68002B01D02000D5
:1014DC00984706B070BDC046006400404C22002006
:1014EC005422002048220020024B03480349044A9E
:1014FC0007C37047542200200040014080BB00000D
:10150C0060EA0000F0B557464E46DE464546E0B56B
:10151C0085B002AB9F1D00233B80C94B03AE1B68FB
:10152C009AB232801B0469D5C64B984616E03388B4
:10153C00DB0600D4A6E0C44C23689BB23B803B88FE
:10154C001B0500D5CCE03B881BB2002B00DA1DE15B
:10155C00BB4B1B689AB232801B044FD50F2215006F
:10156C0033881D401A42E2D0B74BAC009946A144D7
:10157C004B461B689BB23B803B881BB2002B44DB69
:10158C003B881B06E4D54B46B04A1B6813404A46C1
:10159C0013606319DB0043449A4622331B78002BFB
:1015AC0000D084E05346187E00F02EFB534618639F
:1015BC006B1C021E994600D01DE16419E4004444E2
:1015CC00207E00F021FB4B46424641469B004B449B
:1015DC00DB00D25820631218CA5043445B68217E4A
:1015EC00002B00D0AFE09A4B40461B685B689847D5
:1015FC00934B1B689AB232801B04AFD405B0F0BC7D
:10160C00BB46B246A946A046F0BD4B46914A1B6864
:10161C0013404A4613608B4B9A466319DB001A0041
:10162C0052441300C2331B780192002B70D113006B
:10163C00B833187800F0FAFA8346002800D0E5E0B9
:10164C006119C90051440A00D03213685B4413601D
:10165C000B00C8331A685A441A6004331B68002BF9
:10166C0005D00800C4300068834500D3D7E0631967
:10167C00DB005344B8331978754B50461B681B6814
:10168C0098477DE7704A714913686E4C0B401360A4
:10169C00207E00F0B9FAA36A20639C466C4B604430
:1016AC001B68A062002120005B68984750E75346F6
:1016BC00187E00F09FF9430649D55346187E00F07A
:1016CC002FFB5346021E186300D0D1E06B1C9946C9
:1016DC006319DB0043440121187E00F045FB6CE7E5
:1016EC004246B823D05C00F0A1FA4146D023C85042
:1016FC00143B0200C95A584800F06EFB2368554A47
:10170C00404613402360524B1B689B6898471FE769
:10171C00B8229446019B634418789B4600F06AF902
:10172C00430422D45B46187800F00CFB8346002857
:10173C0000D0C3E06319DB005344B83300211878A0
:10174C0000F012FB7CE7404600F0C4FC00E7534677
:10175C00187E00F0F7FA534618636B1C021E99466C
:10176C00B6D05346198C4B4685E05B46187800F092
:10177C00D7FA83460028DDD0019A1300BE331988AE
:10178C000A335A46186800F027FBD3E72368314A1E
:10179C00134023602B4BD0249A46B8235246D05C7E
:1017AC0000F044FA5346021E185176D1284B002102
:1017BC001B6850461B689847284A51469446C422D9
:1017CC00274B8A581B681B041B0C63443E2A2DD9DB
:1017DC00510989B2D2065DD0224A8902114319807F
:1017EC001949214A0B681A40C0239B0153401F4AD8
:1017FC0013430B60ACE65346998B4B4640469B001B
:10180C004B44DB00C05800F0D1FAD6E6019A130025
:10181C00BC335A461988D86800F0DEFA10E7B831A4
:10182C00504609789BB200F00DFCA9E6510889B22C
:10183C00D20701D5013189B289021980D0E7C0469F
:10184C00445C0040BC000020005C00400F8F000096
:10185C00580000208F0F0000CC00002006600040D4
:10186C00505C00400080FFFF8FBF000080800000B4
:10187C00D98B6B1C994640469B004B44DB00C058EF
:10188C0000F094FA6319DB0043440121187E00F048
:10189C006BFA92E6013989B29EE7BC235146C82502
:1018AC00C95A5346585900F097FA52465346525962
:1018BC001B59944652466344535177E7019A1300DF
:1018CC00C0335A461988986800F086FA32E7C04649
:1018DC0070B582B06B469C1D002380212380314B58
:1018EC00314D1B6809029BB2238022882B681A4059
:1018FC000A424BD122881A4052050DD52B4A294B4E
:10190C002B4E1A602B4B30001B681B69984700212B
:10191C00300000F09FFC2B6822881A40920403D5FB
:10192C00204B254A1A602B6822881A40D2040BD50A
:10193C00224A1C4B1E481A601E4B1B689B69984719
:10194C00002001F0A3FA2B6822881A4012050AD550
:10195C001B4A144B16481A60164B1B685B69984758
:10196C0001F086FA2B6822881A40920508D50D4B97
:10197C00144A0F481A600F4B1B68DB6898472B689A
:10198C0022881340DB0505D402B070BDFFF7BAFD09
:10199C002B68AFE7034B0C4A07201A6001F076FA6C
:1019AC00F2E7C046445C004060220020FFFB0000D0
:1019BC00BC00002058000020FFDF0000FFEF0000FB
:1019CC00FFF70000FFFD0000FFFE0000014B186058
:1019DC007047C046405C0040014B18607047C046E1
:1019EC00445C004007239843014B18607047C04685
:1019FC00505C0040034B80009C466044006880B201
:101A0C007047C046005C0040054B80009C4660441B
:101A1C000368044A13400B439BB203607047C046F3
:101A2C00005C00408F89FFFF0A4B80009C4660449D
:101A3C000368094A1340CA0602D5102253409BB2D0
:101A4C008A0602D5202253409BB2044A13430360FA
:101A5C007047C046005C0040BF8F000080800000D3
:101A6C000A4B80009C466044094A0368134080225C
:101A7C005201114200D0534080229201114200D0F9
:101A8C005340044A134303607047C046005C004057
:101A9C008FBF000080800000064B80009C46802396
:101AAC00604402685B001343034A1340034A134328
:101ABC0003607047005C00400F0F00008080000046
:101ACC00054B80009C4660440368044A1A40044B52
:101ADC00134303607047C046005C00400F0F0000CA
:101AEC0080C00000054B80009C4660440368044A9B
:101AFC001A40044B134303607047C046005C00401F
:101B0C000F0F0000C0800000064B80009C46604414
:101B1C0003685B0405D50368034A1A40034B13435F
:101B2C0003607047005C00400F0F000080C0000095
:101B3C00064B80009C46604403685B0605D5036831
:101B4C00034A1A40034B134303607047005C004088
:101B5C000F0F0000C0800000064BC0001B68490836
:101B6C001B041B0CC018044B49009C4660440180AC
:101B7C007047C046505C004000600040064BC000FF
:101B8C001B6849081B041B0CC018044B49009C46DD
:101B9C00604401807047C046505C004004600040C7
:101BAC00054BC0001B681B041B0CC018034B9C4648
:101BBC00604401807047C046505C004002600040A9
:101BCC000E4A0F4B94461B68C0001B041B0C1B18C1
:101BDC0063443E2907D94A09C9060BD00949920228
:101BEC000A431A8070474A08C90700D5013292028D
:101BFC001A80F7E7013A92B2F0E7C046066000405F
:101C0C00505C00400080FFFF064BC0001B681B04AB
:101C1C001B0CC018044B9C46604400888005800D4A
:101C2C007047C046505C004002600040064BC0004C
:101C3C001B681B041B0CC018044B9C46604400889A
:101C4C008005800D7047C046505C00400660004027
:101C5C0030B50B4D0B4CAC462368C0001B041B0C61
:101C6C00C3184908634449001980236852081B04AF
:101C7C001B0CC018044B52009C466044028030BDC3
:101C8C0000600040505C00400460004010B500292A
:101C9C001ED11F491F4B8C461B68C0001B041B0C1C
:101CAC001B1863443E2A21D95109D20601D10139AE
:101CBC0089B2194A89020A4392B21A80154B1B68E1
:101CCC001B041B0CC018154B9C466044028010BDB5
:101CDC000129FCD10E4C0F49A4460B68C0001B0413
:101CEC001B0CC31863441A800B6807E05108D20719
:101CFC000CD48A0292B21A80064B1B681B041B0C74
:101D0C00C018064B9C4660440280E0E70131F0E7C6
:101D1C0002600040505C00400080FFFF0660004005
:101D2C00064BC0001B681B041B0CC018044B9C46C4
:101D3C00604400888005800D7047C046505C0040B0
:101D4C0002600040064BC0001B681B041B0CC01833
:101D5C00044B9C46604400888005800D7047C0464B
:101D6C00505C00400660004000290AD10B4B8000FB
:101D7C009C46604403680A4A1A400A4B13430360AA
:101D8C0070470129FCD1054B80009C4660440368D8
:101D9C00034A1A40044B13430360F1E7005C004014
:101DAC000F0F0000C080000080C00000013230B571
:101DBC00091A54100CD0074D4378AC4602781B021C
:101DCC00134342186244013C13800230002CF2D1C0
:101DDC0030BDC04600600040013210B552100AD030
:101DEC00091A054C4318A44663441B88013A038026
:101DFC000230002AF5D110BD006000400123002202
:101E0C0010B5837002718260C3600120FFF7DEFDA4
:101E1C000020FFF7DBFD0020FFF7DEFD0020FFF7C1
:101E2C00E1FDBF20024B00021860FFF7CFFD10BD93
:101E3C006022002010B50C060CD57F240C40A100AC
:101E4C000919C90018314018002A0CD182728380FC
:101E5C00002010BD7F240C40A1000919C900B83125
:101E6C004018002AF2D00122C3801B0C827203811D
:101E7C00EEE7C04670B5050080207F2406000C40BC
:101E8C000E40084200D168E0A0000019C000040018
:101E9C00183428182C19012545767F200840E2605B
:101EAC00E370207002D16062E06120620022226146
:101EBC006261A261A270022B59D01DD8002B5BD09D
:101ECC008021C900FFF7A0FD2078A37A002B1DD13B
:101EDC006378A188002B36D1FFF750FEA1892078BA
:101EEC00FFF76EFE2078FFF70FFEC02120788901E6
:101EFC00FFF7B6FD002070BD032BE6D1C021C90051
:101F0C00FFF782FDA37A2078002BE1D0FFF7C4FD08
:101F1C0020782289E188FFF79BFE63782078002BDC
:101F2C0030D1FFF7F1FD2078FFF702FE2078FFF7A4
:101F3C00D9FDC02120788901FFF792FD002120787E
:101F4C00FFF772FDD6E7FFF707FE2078FFF7F0FDED
:101F5C0020212078FFF768FDCCE7A0000019C00015
:101F6C000400B8342C192D18B9352E7095E70021C2
:101F7C00FFF74AFD2078A8E780218900FFF744FD90
:101F8C002078A2E7FFF7C0FD2078FFF7D1FD20787D
:101F9C00FFF796FD20780021FFF746FD0021207801
:101FAC00FFF75EFDA6E7C0464BB210B5002B40DB39
:101FBC008C006118C900B8314418A37A002B0AD1DF
:101FCC0063782078002B2DD0FFF7B2FD002120780C
:101FDC00FFF72AFD13E063782078002B11D0FFF770
:101FEC0093FD2078FFF7A4FD2078FFF769FD002111
:101FFC002078FFF719FD00212078FFF731FD002034
:10200C0010BDFFF781FD2078FFF792FD2078FFF7D8
:10201C0069FD20780021FFF723FD00212078FFF7D0
:10202C0003FDECE7FFF770FD00212078FFF718FDAA
:10203C00E5E77F240C40A1000919C90018314418A8
:10204C00BBE7C046F0B57F2705000F40BE00F41972
:10205C00E4002C192100C8310A6022000020CC3287
:10206C001360C4348860216883B001908B421DD901
:10207C00019101995B1A1360F319DB00EB181A003C
:10208C00C2321278002A1BD10199B833187889B260
:10209C00FFF796FDC021F619F600AD19B835287872
:1020AC008901FFF7DDFC002003B0F0BD0193F319AB
:1020BC00DB00EB1810601A00C2321278002AE3D051
:1020CC001900019AB833B9310978187892B2FFF730
:1020DC00DDFDDFE7F0B57F25C646060010000022C7
:1020EC000D4000B5AF007C19E4003419616A82B070
:1020FC0001922576A062E3622263994224D2019177
:10210C00019A9B1AE3627B19DB009846B044434664
:10211C002233019A1B7892B2002B18D14346998B2B
:10212C00FFF744FE43460199187E89B2FFF738FD4C
:10213C007F19FF00F719387E3021FFF775FC00205E
:10214C0002B080BCB846F0BD0193E262DBE74346C7
:10215C002800597EFFF79AFD4346187EFFF74AFC8C
:10216C0043060ED44346D98B019AA06A92B2FFF76C
:10217C001DFE7B19DB00F318597E187EFFF7F4FD6A
:10218C00D6E74346198CEFE74BB210B5002B18DBA2
:10219C008B005918C900B8314118087800281AD09A
:1021AC004B78002B07D101238B7080214901FFF75D
:1021BC0057FC002010BD01238B701021FFF734FC5D
:1021CC00F7E77F230B409900C918C9001831411853
:1021DC0008780028E4D10648064A03681A40064BE2
:1021EC005340064A1343036001238B70E1E7C0465A
:1021FC00005C0040BFBF0000101000008080000099
:10220C004BB270B50400002B1BDB88004018C000DB
:10221C00B830241865782078002D09D0FFF788FC99
:10222C0030212078FFF700FC0023A370002070BD44
:10223C00FFF76AFCC02120788901FFF711FCA5701B
:10224C00F4E77F20014088004018C00018302418A3
:10225C00E0E7C046002230B5094D0A4C01710A4B2B
:10226C0090009C46604403682B4013432343013287
:10227C000360042AF3D180231943044B196030BD49
:10228C000F0F000080800000005C00404C5C0040A0
:10229C008023044A1B0211680B43136001238370D3
:1022AC007047C046585C004010B5074C2068FF28AA
:1022BC0007D0064B06491A68064B9B689847FF23C4
:1022CC002360002010BDC04638000020C43200201E
:1022DC00743200205C000020432301480B807047BF
:1022EC00DC40000810B5C023002281210400FFF758
:1022FC00A1FD80230022822120005B00FFF79AFDC4
:10230C0088230022032120005B00FFF793FD0223AA
:10231C00402281212000FFF7ADFD02234022032142
:10232C002000FFF7A7FD0822822103232000FFF7DE
:10233C00A1FD054B1B689847402303212000034A4D
:10234C00FFF780FE002010BD5C00002080320020D2
:10235C0070B504008B005B18DB00C318D033074D3D
:10236C001988074B28001B6998472A004023032132
:10237C002000FFF767FE002070BDC04680320020B1
:10238C005C00002010B504008121FFF70DFE032135
:10239C002000FFF709FE82212000FFF705FE024B0B
:1023AC005B689847002010BD5C000020602270B56F
:1023BC0015000B7806000C001D401A4214D0202D7D
:1023CC001BD1CA88002A1CD05BB2002B35DA264DF3
:1023DC00264B48789B682900984729003000E288F2
:1023EC0000F00CFC002506E04B780A2B11D00B2BCF
:1023FC001DD0062B13D0280070BD00F0A9FA0225C1
:10240C00F9E71A4B4878002200219B689847002571
:10241C00F1E701221649300000F0F0FBEBE74B88A6
:10242C001B0A212B13D013493A220931F3E78B787D
:10243C00002B15D10E4B1D60DDE749780E4B0025A6
:10244C0019600E4B08491A6000F0ECFBD3E7CB88FF
:10245C001A1C3A2B00D93A22064992B21231DAE709
:10246C0000F076FAC7E7C046743200205C0000200A
:10247C00C8320020DC40000838000020C4320020A4
:10248C002D4AF8B51368591C012B02D0116000209D
:10249C00F8BD0023294D13602B78002BF7D1802138
:1024AC00274A490114688C4200D11360254B1468EB
:1024BC0019688C423CD0146819688C4230D980233E
:1024CC0011685B015B1A20490B6014680B68402B88
:1024DC001BD80F6816683B041B0CF61816600A68AC
:1024EC00D21A0A600A68002A05D1BFB2402F02D165
:1024FC000121164A1170012215492A702204120C6E
:10250C0052188121FFF7E6FDC1E7136840331360D1
:10251C000B68403B0B600B68002B07D04023EAE7AD
:10252C001B6811685B1A08490B60CEE74023DFE794
:10253C00002111601960AAE77C320020C032002013
:10254C0068320020643200206C320020703200208F
:10255C0064220020214B70B51A78002A09D0204A39
:10256C001168002907D11F4C2278D5B2002A29D135
:10257C001D70002070BD1C4C21681368402B11D9B4
:10258C002368403323601368403B13601368002BAF
:10259C001FD040230A041549120C52188121FFF751
:1025AC0099FDE6E71668256833041B0CED182560C9
:1025BC001468E41A14601268002AEBD1B6B2402EEB
:1025CC00E8D107E02170002300228131FFF782FD62
:1025DC00CFE740230124034A1470DBE7C03200200C
:1025EC006C320020703200206832002064220020FF
:1025FC0070B54B7805000C0082B0092B0ED8834ABD
:10260C009B00D3589F464A88130A022B00D1ADE099
:10261C00032B00D1B6E0012B00D177E0002128007C
:10262C00FFF7B2FD002002B070BD8B78784C2370A0
:10263C00012BF3D88278022A00D185E0032AEDD150
:10264C00002B00D1D5E00178012933D000F0CEFA6F
:10265C0021782800297000F0BBFA280000F0F8FA65
:10266C00E0E7002301938378023B012BD6D80123AA
:10267C0001938368002B01D00323019302222800CD
:10268C0001A900F0BBFACDE78378023B012BC5D83A
:10269C004B88012BC6D100238360593304E04B884F
:1026AC00012BBFD183605833FF33EB582100280036
:1026BC009B689847280000F0CBFAB3E78B88002B77
:1026CC00ACD1CB88002BA9D18378032BA6D07F2447
:1026DC004B881C404F4B04711C6000F0B9FA002C65
:1026EC0000D183E00223AB709CE70022CB880192DF
:1026FC00012B00D092E78378022B32D0032B00D031
:10270C008CE70122010000F079FA8BE76033FF338C
:10271C00EB5801AE3100007B1B689847E288402AD9
:10272C0071D03388002B00D17CE7E288002A00D1DD
:10273C0078E7111C9A4200D9191C8AB23180010029
:10274C00280000F05BFA6DE7002BB3D00123037077
:10275C0002330121837000F03BFA280000F078FA74
:10276C0060E7012201A900F049FA5BE7AC235B00AA
:10277C00EB5801AE1B6A3100007B9847B2235B001B
:10278C00E850CEE7D2B2052A00D947E7224B920097
:10279C009B58007B01AE9F46B0235B00EB58310089
:1027AC005B699847BDE7B0235B00EB5831001B69B0
:1027BC009847B6E7B0235B00EB583100DB689847CD
:1027CC00AFE7B0235B00EB5831009B689847A8E754
:1027DC00B0235B00EB5831005B689847A1E7B0234E
:1027EC005B00EB5831009B6998479AE70123AB706B
:1027FC0018E7022200218270037000F0F7F928001C
:10280C0000F026FA0EE7082393E7C04620410008A3
:10281C00CF330020CC3200204841000870B58378BB
:10282C0004000D00032B11D10B79012B0ED8AC2316
:10283C005B00C3589B689847EB880600002B0AD1B5
:10284C00002808D1200000F003FA04E00021200049
:10285C00FFF79AFC0026300070BDC04630B500234F
:10286C000C0083B0019363788A8805000979012BE9
:10287C0006D0032B2BD0002B0CD0002003B030BD86
:10288C008378022B09D0032B38D000212800FFF7C6
:10289C007BFCF2E78378022B05D14B06EDD02800A8
:1028AC00FFF772FCE9E7032BEFD113062ED48B0054
:1028BC005B18DB00C318BA331B78002B01D0012343
:1028CC0001930222280001A900F098F9D5E783783A
:1028DC00022BE2D0032BD8D16388002B03D14B06FB
:1028EC0001D0FFF751FCAC235B00EB582100280012
:1028FC009B689847280000F0ABF9BEE76388002B73
:10290C00F1D14B06EFD0FFF77BFCECE77F230B40BC
:10291C009900C918C90041188B7E002BD1D0CEE785
:10292C00037C0B70437C4B70C27C837C12029B1823
:10293C004B80427D037D12029B188B80C27D837D70
:10294C0012029B189BB2CB80C36301234370704768
:10295C0010B50021FFF718FC10BDC04670B500285B
:10296C0021D00378002B1FD001260300361A9C19A6
:10297C005D780133E4B2002DF9D101346400E3B287
:10298C0014800B7003234B700478002C0BD00025A3
:10299C00013B5A1CD2B2CC5401308D540478023312
:1029AC00DBB2002CF5D170BD02230224E8E7C0464F
:1029BC00AE2310B504005B00C3581B699847E3783D
:1029CC000020A37010BDC04610B58378C3700423DB
:1029DC0083705933FF33C358DB689847002010BD10
:1029EC00AC235B00C35810B5DB69002B00D09847B3
:1029FC00002010BD10B50400402300220021FFF779
:102A0C0019FA8023002280212000FFF713FA0023FB
:102A1C00402200212000FFF72DFA402280210023C4
:102A2C002000FFF727FA0123A3705C33FF33E35830
:102A3C00207B5B689847002010BDC04610B582B063
:102A4C0069460400FFF76CFF6B4619781F230B4097
:102A5C00012B0BD0022B13D0002B0CD07F2320008A
:102A6C009943FFF791FB002002B010BD694620008E
:102A7C00FFF7D4FEF7E769462000FFF7B9FDF2E750
:102A8C0069462000FFF7EAFEEDE7C046F8B5040002
:102A9C000D1E06D14378022B0ED0042B30D0002013
:102AAC00F8BDAC235B00C3585B69002BF7D0827870
:102ABC00032AF4D19847F2E7426B456AAA4228D818
:102ACC00876B2900380001F039F80E1E0BD1BD427E
:102ADC0009D8E36B9F4206D200220021200000F0AF
:102AEC0099F8E663DBE7AC235B00E358DB68002B6B
:102AFC0002D0A278032A13D0200000F0B3F8CEE75E
:102B0C00094E31680029CAD0C9B2FFF7A3FB356062
:102B1C00C5E7521B816A426392B200F07BF8BEE7B4
:102B2C0020009847E8E7C046CC32002010B50400DE
:102B3C00002904D14378032B0CD0002010BDAC230A
:102B4C005B00C3589B69002BF7D08278032AF4D121
:102B5C009847F2E70300B833D969DA6891420DD887
:102B6C00AC235B00C3581B69002B03D08278032A6B
:102B7C0000D19847200000F06BF8DEE7891AD96184
:102B8C008A4205D82000196992B200F059F8D4E7AE
:102B9C000A00F7E7F8B504000D0017001E0000F05E
:102BAC006FF8AC235B00E750AE2708337F00E6518B
:102BBC00E55000F021F92000FFF720F9E3591B68DC
:102BCC009847200000F084F82000FFF761FBF8BD67
:102BDC00AC235B00C35810B51B6804009847AE23A8
:102BEC005B00E3589B689847002010BDAC2310B5E0
:102BFC005B00C3585B689847002010BD10B51300EC
:102C0C0082634263022242700A000021FFF762FADB
:102C1C00002010BD10B513000A000021FFF75AFA6E
:102C2C00002010BD1300D82210B58350043A8350F5
:102C3C00D13A42700A000021FFF704FA002010BDBF
:102C4C0010B513000A000021FFF7FCF9002010BD9D
:102C5C00042310B50022437000210023FFF73AFA39
:102C6C00002010BD052310B5002243700021002365
:102C7C00FFF7E8F9002010BD10B5FEF729FE10BDD6
:102C8C008022104B1204D9690A438021DA611A6B35
:102C9C008A431A638022D96912050A43DA610A4B06
:102CAC000A495A680A405A608022596892050A43B8
:102CBC0040215A601A680A431A601A6820390A437C
:102CCC001A60704700100240006C0040FFFFFFCFFD
:102CDC00C7208021054A80001358C9051B021B0A16
:102CEC000B43135080231B061360704700E100E078
:102CFC000020704700207047F0B5CE4647460600CE
:102D0C0080B5002920D0114B114F1B68002098462C
:102D1C0080235B019C460F4B002599463A6809E0DD
:102D2C00745D4D46013080B2AC5405003B60884266
:102D3C0006D21A00531C6345A44123409845EFD199
:102D4C00C0BCB946B046F0BD0020F9E7683200209F
:102D5C00643200206422002010B5FDF72DFD10BD5B
:102D6C0000207047122301480B807047B4410008C3
:102D7C00042301480B807047C84100081A230148FE
:102D8C000B8070477000002010B5044C0A00210025
:102D9C000348FFF7E3FD200010BDC046D0320020F1
:102DAC006041000810B5044C0A0021000348FFF7ED
:102DBC00D5FD200010BDC046D03200208441000853
:102DCC0010B5044C0A0021000348FFF7C7FD200092
:102DDC0010BDC046D03200209841000810B5044CFC
:102DEC000A0021000348FFF7B9FD200010BDC046C2
:102DFC00D0320020A4410008194B70B51A68194B49
:102E0C001B68D218002A00D170BD174B174900253A
:102E1C00080000261C6807E0303302358370C6704A
:102E2C0012010230102D0AD0130F092BF4D93733AD
:102E3C0002358370C67012010230102DF4D10022BD
:102E4C00002007E030338B740232C8742401023145
:102E5C00082AD9D0230F092BF4D937338B74F3E715
:102E6C00ACF7FF1FB4F7FF1FB0F7FF1F7000002077
:102E7C000821054A13689BB20B431360136804398D
:102E8C009BB20B4313607047405C004010B52D4B58
:102E9C00072800D018701978CAB205294CD82A49CD
:102EAC0092008A589746102028490A6892B2024329
:102EBC000A6005221A7005325A7010BD5A78013A10
:102ECC00D2B25A705A78D1B2002AF6D11F48204C8F
:102EDC0002682240026006221A701E4B1960ECE751
:102EEC001C4A1268002A2AD1184A1B481168014052
:102EFC001160BF210902116006221A70DDE704205F
:102F0C0012490A6892B282430A60BF2212020A6016
:102F1C00012218700F4B1A60CFE702225A7001324F
:102F2C001A70CAE75A78013AD2B25A705A78002A03
:102F3C00C3D104321A70C0E706221A70BDE705220D
:102F4C001A70BAE7D0330020CC410008405C004036
:102F5C00EFFF0000D4330020FBFF00007047C04699
:102F6C007047C0467047C0467047C0467047C04661
:102F7C008022036810B5D205934236D0324A934270
:102F8C001BD0324A93423DD0314A934240D0314A11
:102F9C00934230D0304A934240D0304A934244D08E
:102FAC002F4A934248D02F4A93420BD180222E496C
:102FBC00D2028C6922438A6104E002242A49CA693C
:102FCC002243CA6182880121013A92B21A85826831
:102FDC00013ADA6200225A6201329A821A8A11424A
:102FEC00FCD000221A82198010BD01241E49CA6926
:102FFC002243CA61E6E780221B495200CC69224376
:10300C00CA61DFE710241849CA692243CA61D9E7AB
:10301C0020241549CA692243CA61D3E78022124988
:10302C0012018C6922438A61CCE780220E4952023C
:10303C008C6922438A61C5E780220B4992028C6914
:10304C0022438A61BEE7C0460004004000100040E5
:10305C000014004000200040002C014000400140C2
:10306C0000440140004801400010024010B504002B
:10307C00FFF77EFF0022C521FF20236889001A83F9
:10308C001A840E4A535883437F380343535080238A
:10309C005B03136080230A4ADB0251690B435361C3
:1030AC00084B09491A680A401A601968074A0A430A
:1030BC001A609A8A06490A409A8210BD00E100E023
:1030CC000010024000040048CFFF0FFF100050001A
:1030DC00FBF3FFFF0D4B10B514CB0123A340936101
:1030EC0082680368013A91420DD9596A51188A4293
:1030FC0000D2891A03225963022152421A829A89F8
:10310C000A439A8110BD586A0918F0E7E43300208D
:10311C000D4B10B514CB0123A34093618268036857
:10312C00013A91420DD9596A51188A4200D2891A32
:10313C0005229963042152421A829A890A439A8180
:10314C0010BD586A0918F0E7F0330020074B1A68D5
:10315C00002904D0596801238B409361704759684A
:10316C0080235B028B409361F8E7C046D833002084
:10317C000221124B1A8A90B211420CD003225242F5
:10318C001A829A898A439A810D4B1A68596880234E
:10319C005B028B409361042303420DD00521074A47
:1031AC004942118291899943064B91811A68596859
:1031BC0080235B028B4093617047C0460040014006
:1031CC00E4330020F03300200B220A20074B08497F
:1031DC005A600A3A19609A60064B196058609A60F6
:1031EC00054B196002219A6059607047D833002052
:1031FC0000040048E4330020F03300201C4B1D4A2F
:10320C001B88128870B59BB2050090B2002A1CD1A5
:10321C00194A944663445A1E93419BB2174A9C1810
:10322C00174ADB0294466344E4029C4203D315E044
:10323C000434A34212D922680132F9D1200000F0E3
:10324C00D7F904280ED080B270BD002B08D10A4BE0
:10325C009C4660444342584183B2DFE78020F3E749
:10326C00AB20F1E72900A01C00F0C2F9EBE7C04647
:10327C0000F0000800F800081211FFFF1E0001000A
:10328C00FEF700080F4B10B51A880F4B1B889BB22A
:10329C00002A13D0002B0DD10C4C0D4B02E0043B3B
:1032AC009C4209D21A888242F9D10020023B1B8829
:1032BC000B8010BDAB20FCE70120FAE7054C064B58
:1032CC00F0E7C04600F0000800F8000802F800081B
:1032DC00FEFF000802F00008FEF70008F0B5C64635
:1032EC004F4C504D218850482B8800B58AB29BB268
:1032FC0081424CD04D498A4239D0002A09D0200055
:10330C0000F010F9042800D16EE080B280BCB84601
:10331C00F0BD002BF3D08B426DD0454B0126002421
:10332C009846444D444F76423B882888834200D1CE
:10333C0026B2A6420BD04146FFF7A4FF012806D0C7
:10334C00434628881988FFF759FF0428DED1013439
:10335C000235082CE8D10021324800F049F980B23E
:10336C000428D3D12E4800F0DDF880B2CEE7002B34
:10337C00F8D08342C3D1200000F0D4F880B20428E6
:10338C00C4D10021280000F033F980B2BEE7002B35
:10339C0035D1274B012600249846264D274F7642DF
:1033AC003B882888834200D126B2A6420BD04146E6
:1033BC00FFF768FF012806D0434628881988FFF7D5
:1033CC001DFF0428A2D101340235082CE8D10021BC
:1033DC00134800F00DF980B2042800D096E711488C
:1033EC0000F0A0F880B291E70021200000F000F975
:1033FC00042800D089E7280000F094F885E70B4AF0
:10340C00934200D07BE7280000F08CF880B20428AF
:10341C0000D07BE70021200000F0EAF880B275E7CD
:10342C0000F0000800F80008EEEE0000FFFF0000BE
:10343C00FC3300200000002006F8000806F000080D
:10344C00F0B5D64646464F46C0B50D000600FFF710
:10345C00D5FE0400802805D02000E0BCBA46B14659
:10346C00A846F0BD2248234F01883B889BB2002917
:10347C000BD0002B37D1B846070038001E4900F09E
:10348C00B7F8042803D084B2E6E78046F5E72900B4
:10349C003000FFF7B3FE04000428DDD11023994659
:1034AC00164B174D9A46A944288886420BD0514694
:1034BC00FFF7E8FE012806D0534628881988FFF745
:1034CC009DFE042811D102354D45EDD1404600F04A
:1034DC0029F80428D7D10021380000F089F80428F5
:1034EC00BAD084B2B8E7AB24B6E70400B4E7C04660
:1034FC0000F0000800F80008EEEE0000FC3300209D
:10350C0000000020044B1A69120603D5034A5A60C6
:10351C00034A5A607047C0460020024023016745A9
:10352C00AB89EFCD314A30B5D3680500DB0707D442
:10353C00D368DB0644D4D36803205B071CD530BDAD
:10354C00B02301241B03D1680C420BD1D168C906EE
:10355C000DD4D26852070DD50320013B002BEED1C0
:10356C000520ECE7013B002BEDD10520E7E702201D
:10357C00013BF3E7012BF3D002211C4A13690B43E7
:10358C001361556113693E310B431361D368DB073B
:10359C0018D5B02301201B03D16808421CD1D16877
:1035AC00C9061ED4D2680320013B520700D4042064
:1035BC00002B14D002210D4A13698B431361BEE713
:1035CC000220BCE7D368DB060ED40420D368184075
:1035DC00434258410330EDE7013B002BDCD1052081
:1035EC00E8E70220013BE3E70220E3E7002002408A
:1035FC002F4A70B5D3680600DB0707D4D368DB0607
:10360C0040D4D36803205B071CD570BDB0230125C3
:10361C001B03D46825420BD1D468E0060DD4D268C4
:10362C0052070DD50320013B002BEED10520ECE712
:10363C00013B002BEDD10520E7E70220013BF3E72E
:10364C00012BF3D001201A4A136903431361318013
:10365C00D368184218D0B02301201B03D16808424C
:10366C001CD1D168C9061ED4D2680320013B520775
:10367C0000D40420002B14D001210D4A13698B4374
:10368C001361C2E70220C0E7D368DB060ED4D3680F
:10369C0003301840434258410330EDE7013B002B07
:1036AC00DCD10520E8E70220013BE3E70220E3E759
:1036BC0000200240F0B55746DE464E464546E0B582
:1036CC00824608788DB0009102924C1C002844D0A0
:1036DC00BE4B55469B46252800D036E1009B5878BA
:1036EC00302800D15CE12D2800D161E120229246E6
:1036FC000022009B019202332A2800D02AE1029A70
:10370C0040CA002E02DA022176420191591C187827
:10371C00009102922E2800D136E1012464426C28DB
:10372C0007D10423019A1A43009B019218780133A4
:10373C000093002811D00300583BDBB2202B03D898
:10374C00A34A9B00D3589F46002D00D1D2E1A84735
:10375C00009B18785C1C0028BDD10DB0F0BCBB469A
:10376C00B246A946A046F0BD0A27019B5B0700D4D0
:10377C00C3E0029A08CA0292642800D0DFE001225A
:10378C000199002B00DA51E198461140039107236F
:10379C00DBB200224446B0461E002B0015009946B1
:1037AC0003E0202900D10BE10D002000390000F0CE
:1037BC00C5F92200CBB20400092901D9F318DBB2F8
:1037CC0004A8691C3033013843549742E9D94B465D
:1037DC000C00A94646461D0004AB9846039B002BE3
:1037EC0004D02D23424613554C460234019B27002E
:1037FC009B071AD4B44218D2744B99465346A2462E
:10380C001C0004E02000A8470137BE420CD0002D5C
:10381C00F8D14B461B68002BF6D049465A1C013791
:10382C000A601C70BE42F2D15446013C444404E090
:10383C00A847631EA0450ED01C002078002DF7D1A0
:10384C005B461B68002BF4D059465A1C18700A6052
:10385C00631EA045F0D17C1CBE4200D878E720271F
:10386C0006E02020A847631CA64200D170E71C008C
:10387C00002DF6D15B461B68002BF4D059465A1C20
:10388C000A601F70EFE7029B04CB91460293002A5B
:10389C0000D12AE1100000F06FF98046002C02DB09
:1038AC00A04500D9D5E0019B9B0700D5D3E0464548
:1038BC0018D94346454FA0461C0004E05046A84783
:1038CC000134A6420BD0002DF8D13B68002BF7D069
:1038DC005A1C3A60524601341A70A642F3D12300A6
:1038EC00444698464B461878002800D0B7E02FE79E
:1038FC00019B08275B0700D59FE0642800D18DE071
:10390C00029B019904CB9046012211400391029332
:10391C002723782800D03AE73AE7029C08CC002D00
:10392C0000D1D8E0FF201840A847029410E7019B73
:10393C0002275B07E4D50227029A08CA02920122E9
:10394C000199984611400391E2E7002D5CD0A847FD
:10395C000094FDE6010030391A000026092900D92F
:10396C00B7E00300B00080194000C01813001B78AA
:10397C00303819003039060001320929F2D9180003
:10398C0000922E2800D0C8E6009B18782A2821D156
:10399C00029B009A10CB50780293931C0093BEE6C6
:1039AC001A003021907800228A4603330192A3E654
:1039BC00009A9078D31C202292461E3A01929BE6E4
:1039CC001F234D460C004646994605E7003400205F
:1039DC00E441000801331A0000930300303B00243B
:1039EC00092B00D99BE60300A00000194000C01869
:1039FC0013001B78303819003039040001320929C2
:103A0C00F2D9180000928AE63F4A00941368002B02
:103A1C0000D19DE6591C1160187099E6029A019923
:103A2C0008CA02920122002B00DBADE65B429846ED
:103A3C000123114301910393A9E6029A019908CA43
:103A4C0008270292012211409846039160E7102743
:103A5C008BE6A04627E74B46187800281FD0002C91
:103A6C001DD0294B4F469A4623004C46B1461E00AA
:103A7C0006E0A8473878002810D0BB1BA3420DD015
:103A8C000137002DF5D153461B68002BF2D051465F
:103A9C00187038785A1C0A600028EED14E464346FE
:103AAC005C1C464500D853E62023174F984606E089
:103ABC002020A847631CA64200D149E61C00002D1B
:103ACC00F6D13B68002BF5D05A1C3A6042461A706E
:103ADC00F0E700931EE60C4902940A68002A00D114
:103AEC0036E6501C0860137032E600239846074BEC
:103AFC009946D3E65B461B68002B00D128E6594655
:103B0C005A1C0A60187023E600340020C83F0008D5
:103B1C000EB410B583B0084C05AA02CA2060002070
:103B2C000192FFF7C7FD002322682360137003B0D6
:103B3C0010BC08BC03B01847003400200A0010D099
:103B4C000300400800E052008242FCD9002000E053
:103B5C005208934200D39B1A40418A42F8D1190073
:103B6C007047002070478446002A03D00170013052
:103B7C00013AFBD160467047411C02780130002AA3
:063B8C00FBD1401A704756
:0C3B9400FD100008F5140008D5310008F1
:103BA0003031323334353637383941424344454673
:103BB00000000000206E6F7420000000070000006D
:103BC0000D0000007653544D333200005630313131
:103BD00032000000463030007A0000005A00000039
:103BE0005553422D43414E206164617074657220CB
:103BF0006261736564206F6E2053544D33324630DA
:103C000037322E20436F6D70696C65643A204A61CB
:103C10006E20203920323032322031313A31313A7F
:103C200030390A436F6D6D616E64206C6973743A4C
:103C30000A536E5B43525D202020202D2053657473
:103C400075702077697468207374616E6461726442
:103C50002043414E206269742D7261746573207730
:103C600068657265206E20697320302D380A73787C
:103C70007878785B43525D202D20536574757020F1
:103C8000637573746F6D2043414E206269742D72A9
:103C9000617465730A4F5B43525D20202020202D04
:103CA000204F70656E207468652043414E20636824
:103CB000616E6E656C20696E206E6F726D616C2036
:103CC0006D6F64650A4C5B43525D20202020202DDF
:103CD000204F70656E207468652043414E206368F4
:103CE000616E6E656C20696E206C697374656E2000
:103CF0006F6E6C79206D6F64650A6C5B43525D205A
:103D0000202020202D204F70656E20746865204390
:103D1000414E206368616E6E656C20696E206C6F29
:103D20006F706261636B206D6F64650A435B435221
:103D30005D20202020202D20436C6F736520746847
:103D4000652043414E206368616E6E656C0A765B48
:103D500043525D20202020202D204765742053579A
:103D60002056657273696F6E206E756D6265720A9A
:103D7000565B43525D20202020202D204765742073
:103D800048572056657273696F6E206E756D626557
:103D9000720A5A6E5B43525D202020202D2053650D
:103DA00074732054696D65205374616D70204F4E9B
:103DB0002F4F464620666F7220726563656976658F
:103DC00064206672616D6573206F6E6C790A456E52
:103DD0005B43525D202020202D20536574732045C5
:103DE00072726F72205265706F7274696E67204FC5
:103DF0004E2F4F46460A446E5B43525D20202020E2
:103E00002D2044697361626C65204175746F205286
:103E1000657472616E736D697474696E670A746932
:103E200069696C64642E2E2E5B43525D2020202035
:103E300020202D205472616E736D6974206120738F
:103E400074616E6461726420283131626974292062
:103E500043414E206672616D650A546969696969FA
:103E60006969696C64642E2E2E5B43525D202D209F
:103E70005472616E736D697420616E20657874652B
:103E80006E64656420283239626974292043414E8A
:103E9000206672616D650A726969696C5B43525D87
:103EA00020202020202020202020202D205472613E
:103EB0006E736D697420616E207374616E646172DB
:103EC00064205254522028313162697429204341C0
:103ED0004E206672616D650A52696969696969692E
:103EE000696C5B43525D2020202020202D205472DD
:103EF000616E736D697420616E20657874656E649F
:103F00006564205254522028323962697429204352
:103F1000414E206672616D650A4D787878787878C0
:103F200078785B43525D202020202020202D2053D4
:103F300065747320416363657074616E63652043CB
:103F40006F64652052656769737465720A6D78786D
:103F50007878787878785B43525D20202020202084
:103F6000202D205365747320416363657074616E06
:103F70006365204D61736B20526567697374657268
:103F80000A00000043757272656E74207365747464
:103F9000696E677320284545257376616C696429CD
:103FA0003A0A000073253034580A00005325630A8A
:103FB000000000005A25630A000000004525630A3E
:103FC000000000004425630A000000004D25303841
:103FD0006C580A006D2530386C580A00EC0B00084C
:103FE0009C0B00089C0B00089C0B0008FE0C0008B2
:103FF000C80E0008760E00082C0D00089C0B000867
:104000009C0B00089C0B00089C0B00089C0B0008F4
:10401000220D0008620F00089C0B00080E0D00081E
:104020009C0B00089C0B0008D80B0008280E000809
:10403000D80B00089C0B00084E0D00089C0B0008D4
:104040009C0B00089C0B00085A0D00089C0B0008F4
:104050009C0B00089C0B00089C0B00089C0B0008A4
:104060009C0B00089C0B00089C0B00089C0B000894
:104070009C0B00089C0B00089C0B00089C0B000884
:10408000EC0B00089C0B00089C0B00089C0B000824
:10409000440D0008FE0E00089C0B00089C0B000855
:1040A0009C0B00089C0B00088A0B0008C40F00083A
:1040B0008A0B00089C0B0008380D00082B016700D4
:1040C000950067003B0067001D0067001700670050
:1040D0000B0067000500670004004500090243006B
:1040E000020100C03209040000010202010005249F
:1040F0000010010524010001042402020524060029
:1041000001070582030800FF09040100020A0000FC
:10411000000705030240000007058102400000007F
:104120006E2600089426000828260008AA26000803
:1041300028260008C826000812260008282600089D
:10414000F626000836260008DC270008CE270008DF
:10415000C0270008B2270008A4270008EA270008A3
:1041600053544D3332205669727475616C20436F1D
:104170006D506F727420696E204653204D6F6465D8
:104180000000000053544D6963726F656C65637481
:10419000726F6E696373000056435020436F6E6602
:1041A0006967000056435020496E7465726661630A
:1041B0006500000012010002000000408304405727
:1041C000000201020301000004030904EC2E0008B0
:1041D0000A2F0008262F0008302F0008B22E0008F2
:1041E000C82E00085A3A000854370008543700080F
:1041F0005437000854370008543700085437000873
:104200005437000854370008543700083A3900087A
:10421000263900087437000854370008543700085E
:104220005437000854370008543700085437000842
:104230005437000854370008543700085437000832
:10424000FC38000854370008543700085437000879
:1042500092380008543700087437000854370008B3
:08426000543700085A3A000827
:10426800000002000400060008000A000C000E000E
:1042780002006700F122000891230008B923000812
:1042880000000000B5220008612500085D23000831
:104298008D240008E5220008FF000000392B0008E3
:1042A800992A0008492A0008ED290008012A00086F
:1042B800D5290008BD2900083C000020FD2C000875
:1042C8006D2D0008012D0008052D0008652D00083A
:1042D8001A030000000000000000000000000000B9
:1042E800000000000000000000000000712D000820
:1042F8007D2D0008B12D0008952D0008892D000896
:10430800CD2D0008E92D0008692F00086D2F000841
:0C431800752F0008792F0008712F000895
:0400000508000339B3
:00000001FF
